:020000040800F2
:10000000F8100020FD0400085905000859050008F3
:1000100059050008590500085905000800000000AE
:10002000000000000000000000000000590500086A
:10003000590500080000000059050008590500088E
:100040005905000859050008590500085905000818
:1000500059050008590500086912000859050008EB
:1000600059050008590500085905000859050008F8
:1000700059050008590500085905000859050008E8
:1000800059050008590500085905000859050008D8
:1000900059050008590500085905000859050008C8
:1000A00059050008590500085905000859050008B8
:1000B000590500088512000859050008590500086F
:1000C0005905000859050008590500085905000898
:1000D000590500085905000859050008A91200082B
:1000E0005905000859050008590500085905000878
:1000F0005905000859050008590500085905000868
:100100005905000859050008590500085905000857
:100110005905000859050008590500085905000847
:100120005905000859050008590500085905000837
:100130005905000859050008590500085905000827
:100140005905000859050008590500085905000817
:100150005905000859050008590500085905000807
:1001600059050008590500085905000859050008F7
:1001700059050008590500085905000859050008E7
:10018000590500085905000890B484B000AF024634
:100190000B46FA71BB710023FB60BB7903F00303CC
:1001A0009B000F2202FA03F3FB60154BBA79920809
:1001B000D2B21349B8798008C0B2023051F8200099
:1001C000F968C9430140023243F822100C4BBA7956
:1001D0009208D2B20A49B8798008C0B2023051F808
:1001E0002000FC79B97901F00301890004FA01F1DA
:1001F0000143023243F822101037BD4690BC7047CD
:100200000038014080B58AB000AF786039600023C3
:100210007B6200233B620023FB610023BB617B68A0
:100220001B8A9BB27B627B6A23F440537B623B68F0
:10023000DB887A6A13437B627B6A9AB27B681A8294
:100240007B689B899BB27B627B6A23F4B05323F06B
:100250000C037B623B689A883B681B8913439AB204
:100260003B685B8913439BB27A6A13437B627B6A68
:100270009AB27B689A817B689B8A9BB27B627B6A1D
:1002800023F440737B623B689B897A6A13437B62E9
:100290007B6A9AB27B689A8207F10803184600F0DD
:1002A000FDFA7A68314B9A4203D07A68304B9A4211
:1002B00002D17B693B6201E03B693B627B689B89C1
:1002C0009BB29BB21BB2002B0CDA3A6A13469B001E
:1002D00013449A001A443B681B685B00B2FBF3F3BB
:1002E000FB610BE03A6A13469B0013449A001A44E0
:1002F0003B681B689B00B2FBF3F3FB61FA691D4B83
:10030000A3FB02135B091B017B627B6A1B0964224E
:1003100002FB03F3FA69D31ABB617B689B899BB22A
:100320009BB21BB2002B0DDABB69DB0003F132027A
:10033000104BA3FB02135B0903F007037A6A134314
:100340007B620CE0BB691B0103F13202094BA3FB8A
:1003500002135B0903F00F037A6A13437B627B6A23
:100360009AB27B681A812837BD4680BD00100140D3
:10037000001401401F85EB5180B483B000AF78605A
:100380000B46FB70FB78002B08D07B689B899BB2E7
:1003900043F400539AB27B689A8107E07B689B899B
:1003A0009BB223F400539AB27B689A810C37BD4606
:1003B0005DF8047B704700BF80B483B000AF786005
:1003C0000B467B807B88C3F308039AB27B689A80D4
:1003D0000C37BD465DF8047B704700BF80B483B026
:1003E00000AF78607B689B889BB2C3F308039BB225
:1003F00018460C37BD465DF8047B704780B487B063
:1004000000AF786013460A467A807B7000233B6118
:100410000023FB600023BB6000237B617B687B6162
:100420007B88DBB25B09DBB23B617B8803F01F0397
:10043000FB60FB68012202FA03F3BB603B69012BFE
:1004400003D17B690C337B6109E03B69022B03D14B
:100450007B6910337B6102E07B6914337B617B78BD
:10046000002B06D07B697A691168BA680A431A6062
:1004700006E07B697A691168BA68D2430A401A605B
:100480001C37BD465DF8047B704700BF80B485B063
:1004900000AF78600B467B800023FB737B681B8872
:1004A0009AB27B8813409BB2002B02D00123FB73CE
:1004B00001E00023FB73FB7B18461437BD465DF853
:1004C000047B704780B485B000AF78600B467B80BA
:1004D0000023FB810023BB817B881B0AFB81FB89F6
:1004E000012202FA03F3BB81BB89DB439AB27B682A
:1004F0001A801437BD465DF8047B704780B582B022
:1005000000AF104B7B60104B3B6007E03B681A1D4F
:100510003A607A68111D796012681A603A680B4B6C
:100520009A42F3D30A480B494FF000028842B8BF01
:1005300040F8042BFFF6FAAF00F012F80837BD467A
:1005400080BD00BF4C6F000800000020A408002000
:10055000A4080020F408002080B400AFFEE700BF2C
:1005600080B58EB000AF7C4B7B624FF083433B6223
:100570007A4BFB617A4BBB614FF000037B614FF01C
:1005800000033B610023FB86002387F835303C23C2
:10059000FB603C23BB6000233B630023FB62002322
:1005A00087F82B30012387F82A30002387F8293079
:1005B000002387F8283000F095FE97F83530002B9F
:1005C00007D1684B1B68FB8600F0A8FD012387F864
:1005D0003530FB8E02331A46624B1B689A4202D8B2
:1005E000002387F8353000F01FFE0346FB8000F043
:1005F0009BFD786100F0A4FD38617869396A02F0EA
:1006000047F80346002B1DD07869796A02F036F866
:100610000346002B16D03869B96902F039F8034651
:10062000002B0FD03869F96902F028F80346002B37
:1006300008D0012000F0C8FD022000F0C5FD032015
:1006400000F0C2FD7869796A02F02CF80346002BAD
:1006500005D0012000F0A0FD022000F09DFD78698A
:10066000396A02F001F80346002B02D0012000F0A5
:1006700025FD3869F96902F015F80346002B05D00D
:10068000012000F089FD022000F086FD3869B9697B
:1006900001F0EAFF0346002B02D0032000F07CFDAE
:1006A00097F82A30012B1CD1012000F0A5FD97F806
:1006B0002930002B05D12B4B1B68FB62012387F8E7
:1006C0002930FA6AFB681A44264B1B689A4208D8FC
:1006D000012387F82B30002387F82A30002387F87E
:1006E000293097F82B30012B1CD1002000F084FD1D
:1006F00097F82830002B05D11A4B1B683B63012368
:1007000087F828303A6BBB681A44164B1B689A422C
:1007100008D8002387F82B30012387F82A300023DC
:1007200087F82830FB88B3F5FA6F0AD297F82A3099
:10073000012B03D1022000F0C1FC02E0022000F0F6
:10074000D5FC094B1B78012B05D1074B00221A70F1
:1007500000F046F831E730E70000C8410000A04251
:1007600000007042A4080020A908002080B483B0D3
:1007700000AF0346FB80054BFA881A80044B012228
:100780001A700C37BD465DF8047B7047E408002002
:10079000A808002080B400AF094B1B785A1CD1B2C6
:1007A000074A1170642B07D9064B1B685A1C054B6E
:1007B0001A60034B00221A70BD465DF8047B704737
:1007C000AA080020A408002080B400AF034B012237
:1007D0001A70BD465DF8047B704700BFA908002071
:1007E000B0B58AB000AF00F09FFC786200F0A8FCC2
:1007F00038623A46244B14461D460FCD0FC495E887
:10080000070084E807003B46184600F0A5FC3A467E
:100810001E4B14460FCB07C4238002341B0C2370DD
:100820003B46184600F098FC3A46194B14461D46C4
:100830000FCD0FC42B681A46228002341B0C237084
:100840003B46184600F088FC786A01F00DFC024631
:100850000B46394608460F4901F02EFF3B46184625
:1008600000F07AFC386A01F0FFFB02460B4639467D
:100870000846094901F020FF3B46184600F06CFC91
:100880002837BD46B0BD00BF446D0008606D00084C
:10089000706D0008846D00089C6D000880B489B0FC
:1008A00000AF78600023BB6100237B610023FB6104
:1008B00002233B610023FB600223BB60484B9B6823
:1008C00003F00C03BB61BB69042B07D0082B09D0D4
:1008D000002B3FD17B68434A1A603FE07B68424A65
:1008E0001A603BE03E4B5B6803F480039B0DFB60AA
:1008F0003B4B5B6803F03F03BB60FB68002B0DD0F4
:10090000394ABB68B2FBF3F2354B596847F6C073FE
:100910000B409B0903FB02F3FB610CE0314ABB680F
:10092000B2FBF3F22E4B596847F6C0730B409B099C
:1009300003FB02F3FB612A4B5B6803F440331B0C9F
:1009400001335B003B61FA693B69B2FBF3F27B6800
:100950001A6003E07B68234A1A6000BF204B9B6843
:1009600003F0F003BB61BB691B09BB611F4ABB6994
:1009700013441B78DBB27B617B681A687B69DA40C1
:100980007B685A60164B9B6803F4E053BB61BB69FC
:100990009B0ABB61154ABB6913441B78DBB27B61C0
:1009A0007B685A687B69DA407B689A600C4B9B686D
:1009B00003F46043BB61BB695B0BBB610B4ABB6962
:1009C00013441B78DBB27B617B685A687B69DA4031
:1009D0007B68DA602437BD465DF8047B704700BF52
:1009E000003802400024F40040787D01000000201F
:1009F00080B483B000AF78600B46FB70FB78002BAF
:100A000006D0094B084A116B7A680A431A6306E05C
:100A1000054B054A116B7A68D2430A401A630C37BA
:100A2000BD465DF8047B70470038024080B483B057
:100A300000AF78600B46FB70FB78002B06D0094BAB
:100A4000084A116C7A680A431A6406E0054B054AA5
:100A5000116C7A68D2430A401A640C37BD465DF8BF
:100A6000047B70470038024080B483B000AF7860E8
:100A70000B46FB70FB78002B06D0094B084A516CE3
:100A80007A680A435A6406E0054B054A516C7A6855
:100A9000D2430A405A640C37BD465DF8047B704768
:100AA0000038024080B485B000AF78603960002320
:100AB000FB600023FB727B685B68FB60FB6823F0D4
:100AC000407323F48073FB603B681B791A023B6818
:100AD0001B681343FA681343FB607B68FA685A602B
:100AE0007B689B68FB60FA68174B1340FB603B68B0
:100AF0001A693B68DB681A433B689B681A433B688A
:100B00005B795B001343FA681343FB607B68FA6808
:100B10009A607B68DB6AFB60FB6823F47003FB6010
:100B20003B681B7D013BDAB2FB7A1343FB72FB7A15
:100B30001B05FA681343FB607B68FA68DA621437B6
:100B4000BD465DF8047B7047FDF7FFC080B483B0FD
:100B500000AF78607B6800221A607B6800221A71FF
:100B60007B6800225A717B6800229A607B680022B1
:100B7000DA607B6800221A617B6801221A750C37E3
:100B8000BD465DF8047B704780B485B000AF7860E7
:100B90000023FB600E4B5B68FB60FA680D4B134053
:100BA000FB607B681A687B685B681A437B689B689C
:100BB0001A437B68DB681343FA681343FB60044BFA
:100BC000FA685A601437BD465DF8047B704700BF71
:100BD00000230140E030FCFF80B483B000AF7860B8
:100BE0007B6800221A607B6800225A607B680022C2
:100BF0009A607B680022DA600C37BD465DF8047BA2
:100C0000704700BF80B483B000AF78600B46FB70C4
:100C1000FB78002B06D07B689B6843F001027B6861
:100C20009A6005E07B689B6823F001027B689A600C
:100C30000C37BD465DF8047B704700BF80B485B0BB
:100C400000AF7860F970BA707B700023FB600023FE
:100C5000BB60FB78092B23D97B68DB68FB60FB78E2
:100C6000A3F10A0213465B001344072202FA03F3BE
:100C7000BB60BB68DB43FA681340FB607978FB78A4
:100C8000A3F10A0213465B00134401FA03F3BB60AD
:100C9000FA68BB681343FB607B68FA68DA601EE0A1
:100CA0007B681B69FB60FA7813465B0013440722DC
:100CB00002FA03F3BB60BB68DB43FA681340FB60D6
:100CC0007978FA7813465B00134401FA03F3BB60AA
:100CD000FA68BB681343FB607B68FA681A61BB78EB
:100CE000062B21D87B685B6BFB60BB785A1E1346D2
:100CF0009B0013441F2202FA03F3BB60BB68DB4373
:100D0000FA681340FB60F978BB785A1E13469B00C3
:100D1000134401FA03F3BB60FA68BB681343FB603A
:100D20007B68FA685A6347E0BB780C2B21D87B6854
:100D30001B6BFB60BB78DA1F13469B0013441F221A
:100D400002FA03F3BB60BB68DB43FA681340FB6045
:100D5000F978BB78DA1F13469B00134401FA03F3BA
:100D6000BB60FA68BB681343FB607B68FA681A6370
:100D700022E07B68DB6AFB60BB78A3F10D021346BF
:100D80009B0013441F2202FA03F3BB60BB68DB43E2
:100D9000FA681340FB60F978BB78A3F10D021346A3
:100DA0009B00134401FA03F3BB60FA68BB6813436A
:100DB000FB607B68FA68DA621437BD465DF8047B35
:100DC000704700BF80B483B000AF78607B689B68D9
:100DD00043F080427B689A600C37BD465DF8047B27
:100DE000704700BF80B483B000AF78607B68DB6C75
:100DF0009BB218460C37BD465DF8047B704700BFB8
:100E000080B485B000AF78600B46FB700023FB73A5
:100E10007B681A68FB781340002B02D00123FB7318
:100E200001E00023FB73FB7B18461437BD465DF8D9
:100E3000047B704780B487B000AF786039600023CE
:100E40007B6100233B610023FB6000237B6176E034
:100E50007B69012202FA03F33B613B681A683B6934
:100E60001340FB60FA683B699A4265D17B681A6857
:100E70007B695B00032101FA03F3DB431A407B68C3
:100E80001A607B681A683B681B7919467B695B00AE
:100E900001FA03F31A437B681A603B681B79012B44
:100EA00003D03B681B79022B2ED17B689A687B6943
:100EB0005B00032101FA03F3DB431A407B689A606D
:100EC0007B689A683B685B7919467B695B0001FA2D
:100ED00003F31A437B689A607B685A687B699BB20C
:100EE000012101FA03F3DB431A407B685A607B68F7
:100EF0005A683B689B7919467B699BB201FA03F3F8
:100F00009BB21A437B685A607B68DA687B699BB244
:100F10005B00032101FA03F3DB431A407B68DA60CC
:100F20007B68DA683B68DB7919467B695B0001FA0C
:100F300003F31A437B68DA607B6901337B617B6969
:100F40000F2B85D91C37BD465DF8047B704700BF69
:100F500080B483B000AF78607B684FF6FF721A6090
:100F60007B6800221A717B6800225A717B6800221C
:100F70009A717B680022DA710C37BD465DF8047BFC
:100F8000704700BF80B485B000AF78600B467B80AF
:100F90000023FB737B681A697B881340002B02D007
:100FA0000123FB7301E00023FB73FB7B184614371E
:100FB000BD465DF8047B704780B483B000AF7860B5
:100FC0000B467B807B687A881A830C37BD465DF8B8
:100FD000047B704780B483B000AF78600B467B80A1
:100FE0007B687A885A830C37BD465DF8047B70476E
:100FF00080B485B000AF786013460A467A807B7073
:101000000023FB600023BB607A787B8803F0070332
:101010009B0002FA03F3FB607B88DB089BB21A4655
:101020007B88DB089BB219467B68083153F8211096
:101030007B8803F007039B000F2000FA03F3DB43D8
:1010400019407B68083243F822107B88DB089BB28A
:101050001A467B68083253F82220FB681343BB60B2
:101060007B88DB089BB21A467B680832B96843F874
:1010700022101437BD465DF8047B704780B485B0FC
:1010800000AF78600B4B1B68002B02D1094B0A4A5A
:101090001A60084B1B68FB60064B1A687B681A4491
:1010A000044B1A60FB6818461437BD465DF8047B94
:1010B000704700BFAC080020F408002080B582B063
:1010C00000AF0346FB71FA79064B53F82220F979F9
:1010D000054B33F8113010461946FFF76DFF0837FE
:1010E000BD4680BD10000020B06D000880B582B004
:1010F00000AF0346FB71FA79064B53F82220F979C9
:10110000054B33F8113010461946FFF763FF0837D7
:10111000BD4680BD10000020B06D000880B500AF56
:1011200000F0A0FB80BD00BF80B582B000AF00F032
:1011300037FC78607B6818460837BD4680BD00BF25
:1011400080B582B000AF00F063FC78607B68184621
:101150000837BD4680BD00BF80B582B000AF786063
:1011600010E000BF0B488021FFF790F90346002BE9
:10117000F8D07B681B7807481946FFF71DF97B6894
:1011800001337B607B681B78002BEAD10837BD46B2
:1011900080BD00BF0048004080B582B000AF03466C
:1011A000FB71FA79064B53F82220F979054B33F895
:1011B000113010461946FFF7FFFE0837BD4680BDC7
:1011C00020000020B86D000880B582B000AF034653
:1011D000FB71FA79064B53F82220F979054B33F865
:1011E000113010461946FFF7F5FE0837BD4680BDA1
:1011F00020000020B86D000880B582B000AF034623
:10120000FB71FB79012B05D106484FF40061FFF714
:10121000D3FE04E003484FF40061FFF7DBFE08371C
:10122000BD4680BD000C024080B582B000AF0D48C5
:101230000C2101220123FFF701FD0A48FFF7C2FD3F
:1012400000BF08480221FFF7DBFD0346012BF8D160
:101250000448FFF7C7FD0346FB80FB8818460837A4
:10126000BD4680BD0021014080B500AF012000F0E7
:1012700095FA0346002B04D0012000F081FAFFF715
:10128000A3FA80BD80B500AF0648012100F04EFDF5
:101290000346002B05D00348012100F071FDFFF744
:1012A00079FA80BD0004004080B582B000AF0C48E0
:1012B0002021FFF7EBF80346002B0ED0084840F240
:1012C0002551FFF7FFF80648FFF788F80346FB8033
:1012D000FB88DBB21846FFF749FA0837BD4680BDE8
:1012E0000048004080B500AF00F014F800F02EF880
:1012F00000F048F800F09CF800F060F800F0FAF810
:1013000000F038F900F076F900F0A4F900F09AFA4C
:1013100080BD00BF80B582B000AF08200121FFF77B
:1013200067FB0F233B6001233B7102237B7100238A
:10133000BB710023FB713B4603481946FFF77AFD5A
:101340000837BD4680BD00BF000C024080B582B0AA
:1013500000AF08200121FFF74BFB4FF470433B60C7
:1013600001233B7102237B710023BB710023FB71BE
:101370003B4603481946FFF75DFD0837BD4680BD73
:10138000000C024080B582B000AF08200121FFF7B9
:101390002FFB4FF400633B6001233B7102237B7101
:1013A0000023BB710023FB713B4603481946FFF73E
:1013B00041FD0837BD4680BD000C024080B586B0B7
:1013C00000AF01200121FFF713FB01233B61002344
:1013D0003B7502237B750023BB750223FB7507F168
:1013E000100312481946FFF725FD00200021FEF7E3
:1013F000CBFE01237B6000233B7208237B72012319
:10140000BB723B1D184600F04DF906233B730123C8
:101410007B730123BB730123FB7307F10C03184695
:1014200000F022FB1837BD4680BD00BF000002401F
:1014300080B588B000AF08200121FFF7D9FA4FF43A
:1014400080200121FFF7F2FA0023BB730123FB7315
:1014500002233B734FF48073BB6002237B7307F15D
:10146000080322481946FFF7E5FC20480821072217
:10147000FFF7BEFD02233B734FF40073BB6007F11F
:1014800008031A481946FFF7D5FC18480921072216
:10149000FFF7AEFD4FF4E1333B610023BB82002335
:1014A000FB8200233B830023BB830C237B8307F158
:1014B00010030F481946FEF7A5FE0D480121FEF75F
:1014C0005BFF0B4840F225510122FEF797FF2723CF
:1014D0003B7100237B710023BB710123FB713B1D1A
:1014E000184600F0C1FA2037BD4680BD000C02400E
:1014F0000048004080B58CB000AF4FF480700121EF
:10150000FFF7B2FA01200121FFF772FA07F1280371
:101510001846FFF71DFD0823BB62032387F82C3014
:1015200007F1280311481946FFF784FC07F1180357
:101530001846FFF751FB4FF48033FB6107F11803A6
:101540001846FFF721FB3B461846FFF7FFFA00233A
:101550003B603B4606481946FFF7A4FA04480121C0
:10156000FFF750FB3037BD4680BD00BF0000024092
:101570000020014080B58CB000AF4FF40070012115
:10158000FFF772FA01200121FFF732FA07F1280371
:101590001846FFF7DDFC0423BB62032387F82C30D9
:1015A00007F1280311481946FFF744FC07F1180317
:1015B0001846FFF711FB4FF48033FB6107F1180366
:1015C0001846FFF7E1FA3B461846FFF7BFFA00233B
:1015D0003B603B4606481946FFF764FA0448012180
:1015E000FFF710FB3037BD4680BD00BF0000024052
:1015F0000021014080B584B000AF1D233B70002363
:101600007B700123BB700123FB703B46184600F042
:101610002BFA02200121FFF709FA42F21073BB6096
:101620000F23BB800023BB810023FB803B1D0848A8
:10163000194600F077FA06480121012200F052FB1A
:101640000348012100F00CFB1037BD4680BD00BFF0
:101650000004004080B588B000AF01200121FFF7F1
:10166000E5F907F11403184600F0C6FA3B461846A0
:1016700000F016FB4FF6FE73BB610F23BB82002305
:10168000BB830023FB8207F114034FF0804019460F
:1016900000F048FA4FF08040012100F0E1FA2037D5
:1016A000BD4680BD80B485B000AF78600023FB608C
:1016B000324BFB607B689B79002B4DD02F4B2F4A20
:1016C00011687A681268D2430A401A602B4B2B4A81
:1016D00051687A681268D2430A405A607B681B7965
:1016E000FA681344FB60FB68FA6811687A6812684C
:1016F0000A431A60214B214A91687A681268D243E2
:101700000A409A601D4B1D4AD1687A681268D2431C
:101710000A40DA607B685B79102B0ED1174B174AB1
:1017200091687A6812680A439A60144B134AD16828
:101730007A6812680A43DA601BE0104BFB607B6832
:101740005B79FA681344FB60FB68FA6811687A6891
:1017500012680A431A600CE07B681B79FA6813442C
:10176000FB60FB68FA6811687A681268D2430A4025
:101770001A601437BD465DF8047B7047003C014099
:1017800080B483B000AF7860034B7A685A610C373D
:10179000BD465DF8047B7047003C014080B485B0D5
:1017A00000AF78600023FB730023BB600C4B1A680A
:1017B0007B681340BB600A4B5A697B681340002B5F
:1017C00005D0BB68002B02D00123FB7301E000238E
:1017D000FB73FB7B18461437BD465DF8047B7047EE
:1017E000003C014080B582B000AF4FF480633B60A5
:1017F00002237B7100233B710023BB710123FB712A
:101800003B4603481946FFF715FB0837BD4680BD28
:101810000008024080B582B000AF4FF480633B60A7
:1018200002237B7101233B710023BB710123FB71F8
:101830003B4603481946FFF7FDFA0837BD4680BD11
:101840000008024080B500AF04200121FFF7D0F866
:10185000FFF7E0FF02484FF48061FFF7ADFB80BD6A
:101860000008024080B582B000AF0023FB7107235F
:10187000BB7100237B7100233B7100233B6000237D
:101880003B7106E03B79444A0021D1543B79013356
:101890003B713B79052BF5D9FFF7BCFF3F484FF46F
:1018A0008061FFF797FB4FF08040002100F0BEF908
:1018B00000BF4FF0804000F0C7F9024644F61F63B6
:1018C0009A42F6D9FFF78EFF00BF34484FF480618B
:1018D000FFF758FB0346002BF7D100BF2F484FF40A
:1018E0008061FFF74FFB0346002BF7D000BF2B486A
:1018F0004FF48061FFF746FB0346002BF7D100232E
:10190000FB7142E04FF08040002100F08FF900BFF2
:1019100022484FF48061FFF735FB0346002BF7D0D8
:101920004FF0804000F090F9386000BF1B484FF442
:101930008061FFF727FB0346002BF7D14FF0804073
:1019400000F082F902463B68D31A282B0ED97B7926
:101950007A7911498A5CD1B2BA79012000FA02F28F
:10196000D2B20A43D2B2D1B20B4AD154BB79002BC6
:1019700005D10723BB717B7901337B7102E0BB7911
:10198000013BBB71FB790133FB71FB79272BB9D983
:101990000837BD4680BD00BFE808002000080240AF
:1019A00080B582B000AF184B9B7803F07F031846D8
:1019B00000F068FC03467B6078684FF0874100F0D8
:1019C000B5FC03467B60104BDB78184600F05AFCF0
:1019D00003467868194600F0A1FB03467B607868EF
:1019E0000A4900F057FD03467B60074B9B78DBB24A
:1019F0005BB2002B03DA7B6883F000437B607B687B
:101A000018460837BD4680BDE80800200000204188
:101A100080B582B000AF124B1B78184600F02EFC48
:101A200003467B6078684FF0874100F07FFC0346F7
:101A30007B600B4B5B78184600F024FC034678680B
:101A4000194600F06BFB03467B607868054900F09F
:101A500021FD03467B607B6818460837BD4680BD84
:101A6000E80800200000204180B485B000AF786015
:101A70000023FB730023BB730F237B737B68DB782E
:101A8000002B37D0254BDB68DB4303F4E0631B0AF4
:101A9000FB73FB7BC3F10403BB737A7BFB7B42FAD2
:101AA00003F37B737B685B781A46BB7B02FA03F314
:101AB000FB737B689A787B7B1340DAB2FB7B134322
:101AC000FB73FB7B1B01FB73154A7B681B7813447C
:101AD000FA7B83F80023124B7A6812785209D2B24B
:101AE0007968097801F01F01012000FA01F143F83B
:101AF00022100EE00A4B7A6812785209D2B2796845
:101B0000097801F01F01012000FA01F1203243F8A9
:101B100022101437BD465DF8047B704700ED00E0ED
:101B200000E100E080B485B000AF78603960002348
:101B3000FB817B681B88FB817A68284B9A4213D013
:101B40007A68274B9A420FD07B68B3F1804F0BD055
:101B50007A68244B9A4207D07A68234B9A4203D082
:101B60007A68224B9A4208D1FB8923F07003FB81EB
:101B70003B685A88FB891343FB817A681C4B9A4265
:101B80000CD07A681B4B9A4208D0FB8923F440732F
:101B9000FB813B681A89FB891343FB817B68FA89C7
:101BA0001A803B685A687B68DA623B681A887B68EF
:101BB0001A857A68094B9A4203D07A68084B9A4290
:101BC00004D13B689B7A1A467B681A867B6801229F
:101BD0009A821437BD465DF8047B704700000140CF
:101BE000000401400004004000080040000C0040D8
:101BF000001000400014004080B483B000AF786053
:101C00007B684FF0FF325A607B6800221A807B6845
:101C100000221A817B6800225A807B6800229A7217
:101C20000C37BD465DF8047B704700BF80B483B0BD
:101C300000AF786039607B683A685A620C37BD46FD
:101C40005DF8047B704700BF80B483B000AF78605C
:101C50007B685B6A18460C37BD465DF8047B7047AD
:101C600080B483B000AF78600B46FB70FB78002B2C
:101C700008D07B681B889BB243F001039AB27B6853
:101C80001A8007E07B681B889BB223F001039AB29D
:101C90007B681A800C37BD465DF8047B704700BF37
:101CA00080B483B000AF78607B6800221A807B68C4
:101CB00000225A807B6800229A807B6800229A600A
:101CC0007B6800229A817B680022DA817B6800228F
:101CD0001A827B6800225A820C37BD465DF8047B6D
:101CE000704700BF80B483B000AF786013460A46E7
:101CF0007A807B707B78002B08D07B689B899AB2B6
:101D00007B8813439AB27B689A8109E07B689B8940
:101D10009AB27B88DB439BB213409AB27B689A816C
:101D20000C37BD465DF8047B704700BF80B485B0BA
:101D300000AF78600B467B800023FB730023BB81E0
:101D400000237B817B681B8A9AB27B881340BB810E
:101D50007B689B899AB27B8813407B81BB89002B6F
:101D600005D07B89002B02D00123FB7301E0002307
:101D7000FB73FB7B18461437BD465DF8047B704748
:101D800080B483B000AF78600B467B807B88DB43F8
:101D90009AB27B681A820C37BD465DF8047B7047A7
:101DA00081F0004102E000BF83F0004330B54FEA0C
:101DB00041044FEA430594EA050F08BF90EA020F79
:101DC0001FBF54EA000C55EA020C7FEA645C7FEA0C
:101DD000655C00F0E2804FEA5454D4EB5555B8BF2F
:101DE0006D420CDD2C4480EA020281EA030382EAA0
:101DF000000083EA010180EA020281EA0303362D32
:101E000088BF30BD11F0004F4FEA01314FF4801C04
:101E10004CEA113102D0404261EB410113F0004F16
:101E20004FEA03334CEA133302D0524263EB4303CD
:101E300094EA050F00F0A780A4F10104D5F1200E6B
:101E40000DDB02FA0EFC22FA05F2801841F10001C6
:101E500003FA0EF2801843FA05F359410EE0A5F19A
:101E600020050EF1200E012A03FA0EFC28BF4CF0CB
:101E7000020C43FA05F3C01851EBE37101F0004581
:101E800007D54FF0000EDCF1000C7EEB00006EEB8E
:101E90000101B1F5801F1BD3B1F5001F0CD3490818
:101EA0005FEA30004FEA3C0C04F101044FEA44526F
:101EB00012F5800F80F09A80BCF1004F08BF5FEAF6
:101EC000500C50F1000041EB045141EA050130BDD6
:101ED0005FEA4C0C404141EB010111F4801FA4F179
:101EE0000104E9D191F0000F04BF01460020B1FACE
:101EF00081F308BF2033A3F10B03B3F120020CDA06
:101F00000C3208DD02F1140CC2F10C0201FA0CF0E3
:101F100021FA02F10CE002F11402D8BFC2F1200C48
:101F200001FA02F120FA0CFCDCBF41EA0C019040FE
:101F3000E41AA2BF01EB0451294330BD6FEA040447
:101F40001F3C1CDA0C340EDC04F11404C4F1200232
:101F500020FA04F001FA02F340EA030021FA04F344
:101F600045EA030130BDC4F10C04C4F1200220FA9B
:101F700002F001FA04F340EA0300294630BD21FAD9
:101F800004F0294630BD94F0000F83F4801306BF9F
:101F900081F480110134013D4EE77FEA645C18BF93
:101FA0007FEA655C29D094EA050F08BF90EA020F2A
:101FB00005D054EA000C04BF1946104630BD91EA22
:101FC000030F1EBF0021002030BD5FEA545C05D125
:101FD0004000494128BF41F0004130BD14F5800464
:101FE0003CBF01F5801130BD01F0004545F0FE41D8
:101FF00041F470014FF0000030BD7FEA645C1ABF0D
:10200000194610467FEA655C1CBF0B46024650EA43
:10201000013406BF52EA033591EA030F41F400216F
:1020200030BD00BF90F0000F04BF0021704730B5F5
:102030004FF4806404F132044FF000054FF00001CA
:1020400050E700BF90F0000F04BF0021704730B58B
:102050004FF4806404F1320410F0004548BF404260
:102060004FF000013EE700BF42004FEAE2014FEAB5
:1020700031014FEA02701FBF12F07F4393F07F4F90
:1020800081F06051704792F0000F14BF93F07F4FC2
:10209000704730B54FF4607401F0004521F0004105
:1020A00020E700BF50EA010208BF704730B54FF08B
:1020B00000050AE050EA010208BF704730B511F090
:1020C000004502D5404261EB41014FF4806404F1C8
:1020D00032045FEA915C3FF4DCAE4FF003025FEA4A
:1020E000DC0C18BF03325FEADC0C18BF033202EBD2
:1020F000DC02C2F1200300FA03FC20FA02F001FA2C
:1021000003FE40EA0E0021FA02F11444C1E600BFCA
:1021100080F0004002E000BF81F0004142001FBF9C
:102120005FEA410392EA030F7FEA226C7FEA236CA5
:102130006AD04FEA1262D2EB1363C1BFD21841409A
:1021400048404140B8BF5B42192B88BF704710F030
:10215000004F40F4000020F07F4018BF404211F0D3
:10216000004F41F4000121F07F4118BF494292EA3B
:10217000030F3FD0A2F1010241FA03FC10EB0C0067
:10218000C3F1200301FA03F100F0004302D54942F4
:1021900060EB4000B0F5000F13D3B0F1807F06D3A1
:1021A00040084FEA310102F10102FE2A51D2B1F199
:1021B000004F40EBC25008BF20F0010040EA03008E
:1021C0007047490040EB000010F4000FA2F101023B
:1021D000EDD1B0FA80FCACF1080CB2EB0C0200FAC5
:1021E0000CF0AABF00EBC25052421843BCBFD04013
:1021F0001843704792F0000F81F4000106BF80F48D
:1022000000000132013BB5E74FEA41037FEA226C4F
:1022100018BF7FEA236C21D092EA030F04D092F01A
:10222000000F08BF0846704790EA010F1CBF00204E
:10223000704712F07F4F04D1400028BF40F00040AB
:10224000704712F100723CBF00F50000704700F0CB
:10225000004343F0FE4040F4000070477FEA2262F2
:1022600016BF08467FEA23630146420206BF5FEAC3
:10227000412390EA010F40F4800070474FF00003C3
:1022800004E000BF10F0004348BF40425FEA000C8A
:1022900008BF704743F0964301464FF000001CE032
:1022A00050EA010208BF70474FF000030AE000BF88
:1022B00050EA010208BF704711F0004302D54042C6
:1022C00061EB41015FEA010C02BF84460146002038
:1022D00043F0B64308BFA3F18053A3F50003BCFA53
:1022E0008CF2083AA3EBC25310DB01FA02FC634400
:1022F00000FA02FCC2F12002BCF1004F20FA02F207
:1023000043EB020008BF20F00100704702F12002F9
:1023100001FA02FCC2F1200250EA4C0021FA02F25A
:1023200043EB020008BF20EADC7070474FF0FF0C5F
:102330001CEAD0521EBF1CEAD15392EA0C0F93EA5A
:102340000C0F6FD01A4480EA010C400218BF5FEAFC
:1023500041211ED04FF0006343EA501043EA51116F
:10236000A0FB01310CF00040B1F5000F3EBF490069
:1023700041EAD3715B0040EA010062F17F02FD2A6D
:102380001DD8B3F1004F40EBC25008BF20F0010050
:10239000704790F0000F0CF0004C08BF49024CEA67
:1023A000502040EA51207F3AC2BFD2F1FF0340EAF9
:1023B000C250704740F400004FF00003013A5DDC6A
:1023C00012F1190FDCBF00F000407047C2F10002AB
:1023D000410021FA02F1C2F1200200FA02FC5FEA98
:1023E000310040F1000053EA4C0308BF20EADC70E2
:1023F000704792F0000F00F0004C02BF400010F454
:10240000000F013AF9D040EA0C0093F0000F01F000
:10241000004C02BF490011F4000F013BF9D041EA22
:102420000C018FE70CEAD15392EA0C0F18BF93EA24
:102430000C0F0AD030F0004C18BF31F0004CD8D14E
:1024400080EA010000F00040704790F0000F17BFD5
:1024500090F0004F084691F0000F91F0004F14D01B
:1024600092EA0C0F01D142020FD193EA0C0F03D173
:102470004B0218BF084608D180EA010000F0004076
:1024800040F0FE4040F40000704740F0FE4040F451
:10249000400070474FF0FF0C1CEAD0521EBF1CEAF0
:1024A000D15392EA0C0F93EA0C0F69D0A2EB03020E
:1024B00080EA010C49024FEA402037D04FF08053A8
:1024C00043EA111143EA10130CF000408B4238BF6D
:1024D0005B0042F17D024FF4000C8B4224BF5B1A7B
:1024E00040EA0C00B3EB510F24BFA3EB510340EAC9
:1024F0005C00B3EB910F24BFA3EB910340EA9C0077
:10250000B3EBD10F24BFA3EBD10340EADC001B01E6
:1025100018BF5FEA1C1CE0D1FD2A3FF650AF8B428A
:1025200040EBC25008BF20F0010070470CF0004C97
:102530004CEA50207F32C2BFD2F1FF0340EAC250C2
:10254000704740F400004FF00003013A37E792F083
:10255000000F00F0004C02BF400010F4000F013AE1
:10256000F9D040EA0C0093F0000F01F0004C02BFDC
:10257000490011F4000F013BF9D041EA0C0195E745
:102580000CEAD15392EA0C0F08D142027FF47DAFDE
:1025900093EA0C0F7FF470AF084676E793EA0C0FCE
:1025A00004D14B023FF44CAF08466EE730F0004CCC
:1025B00018BF31F0004CCAD130F000427FF45CAF5C
:1025C00031F000437FF43CAF5FE700BF4FF0FF3CCA
:1025D00006E000BF4FF0010C02E000BF4FF0010C1D
:1025E0004DF804CD4FEA40024FEA41037FEA226CE6
:1025F00018BF7FEA236C11D001B052EA530C18BF08
:1026000090EA010F58BFB2EB030088BFC81738BF6C
:102610006FEAE17018BF40F0010070477FEA226C5A
:1026200002D15FEA402C05D17FEA236CE4D15FEA56
:10263000412CE1D05DF8040B704700BF844608468A
:102640006146FFE70FB5FFF7C9FF002848BF10F14B
:10265000000F0FBD4DF808EDFFF7F4FF0CBF012090
:1026600000205DF808FB00BF4DF808EDFFF7EAFF1A
:1026700034BF012000205DF808FB00BF4DF808EDD5
:10268000FFF7E0FF94BF012000205DF808FB00BFCA
:102690004DF808EDFFF7D2FF94BF012000205DF850
:1026A00008FB00BF4DF808EDFFF7C8FF34BF01205D
:1026B00000205DF808FB00BF0EB4F0B59CB021AB64
:1026C0000F4953F8042B019305466FF00044086846
:1026D00002954FF402774FF6FF7602A90695ADF802
:1026E000147004940794ADF8166000F00BF8029B88
:1026F00000221A701CB0BDE8F04003B0704700BF64
:10270000580400202DE9F04FC9B0914610930C9168
:102710000D9002F029FA0068159003F0EFF80C9C78
:102720001890A3891A0603D52369002B01F08D8028
:1027300038ACA44608942B9400250024CDE9164516
:10274000002311932D932C931A9319930E9366469D
:1027500099F80030002B00F0F880252B00F0F58070
:1027600009F1010201E0252B04D01446013223783F
:10277000002BF8D1C9EB04057DB12C9B2D9AC6F82E
:10278000009001332A44072B75602D922C9300F39F
:10279000C28008360E9828440E902378002B00F053
:1027A000C280002394F801808DF88F301A460F9371
:1027B000099304F101094FF0FF340A9409F101096A
:1027C000A8F12003582B00F2C783DFE813F06A0258
:1027D000C503C5037102C503C503C503C503C5030E
:1027E000C50314036403C5039D00C000C50378023C
:1027F0007F027F027F027F027F027F027F027F02D1
:102800007F02C503C503C503C503C503C503C503CF
:10281000C503C503C50390026F03C5036F03C5035A
:10282000C503C503C5036803C503C5037800C50315
:10283000C503C503C503C5035900C503C503AF02DE
:10284000C503C503C503C503C503C503C503C50348
:10285000C503C503370348036F036F036F03FF020C
:102860004803C503C5030803C503C5027C00210353
:10287000A503C503D902C5035F00C503C503DE0078
:10288000DDF824C04CF0100CCDF824C0099CA20641
:1028900000F15683099CE30600F1E085DDF824C0D1
:1028A0001CF0400F00F0DA85DDF840C0BCF80040B5
:1028B0000CF1040C00250123CDF840C08CE0099DEB
:1028C00045F010050995DDF824C01CF0200340F008
:1028D0002C83DDF824C01CF0100240F0B885DDF830
:1028E00024C01CF0400300F0B285DDF840C0BCF805
:1028F00000400CF1040C13460025CDF840C06BE0FD
:102900000F9C109364420F94099D45F004050995AE
:1029100099F8008052E70D980C992BAA03F01EF845
:1029200040B938AE36E72D9B23B10D980C992BAAF0
:1029300003F014F80C9C0E98A38913F0400F18BFF5
:102940004FF0FF3049B0BDE8F08F4C4625E799F8CD
:102950000080B8F12A0F09F1010001F01881A8F1F7
:102960003003092B98BF002101F2778010F8018B0A
:1029700001EB810103EB4101A8F13003092BF5D9EB
:1029800041EAE1710A9181461AE7099DA14C1A9426
:10299000AF068DF88F2040F1D181DDF840C00CF1F9
:1029A000070323F0070303F108041094D3E900455B
:1029B000DDF824C01CF0010F00F0648454EA050027
:1029C00000F0608430234CF0020C8DF890308DF8CC
:1029D0009180CDF824C002234FF0000A8DF88FA01B
:1029E0000A99002905DBDDF824C02CF0800CCDF815
:1029F00024C054EA050040F0C7820A99002940F03B
:102A0000C382002B40F03A84DDF824C01CF0010F93
:102A100000F0348448AF302307F8413D089DEC1B9B
:102A2000DDF828C000256445A8BFA446CDF82CC019
:102A30001495BAF1000F02D00B9D01350B95099B3F
:102A400013F00203129302D00B9D02350B95DDF8B3
:102A500024C01CF0840CCDF84CC040F092820F9D35
:102A6000DDF82CC0CCEB050BBBF1000F40F38982E5
:102A7000BBF1100F2D992C9ADFF8A0A12CDD1B972C
:102A8000304657461025CA460C9EA1460D9C06E0CE
:102A9000ABF1100BBBF1100F00F1080017DD013294
:102AA0001031072A2D912C9207604560F0DD2046F9
:102AB00031462BAA02F052FF00287FF43BAFABF166
:102AC000100BBBF1100F2D992C9A38A8E7DC4C465F
:102AD000D146BA461B9F064601320BEB010C072A72
:102AE000CDF8B4C02C9286E8000C00F31C849DF84D
:102AF0008FA00836BAF1000F0FD02C9B01330CF1D8
:102B0000010C0DF18F010122072BCDF8B4C02C93DD
:102B100086E8060000F39A830836129B73B12C9B5B
:102B200001330CF1020C24A90222072BCDF8B4C00A
:102B30002C9386E8060000F395830836139D802DBC
:102B400000F0CC820A9DC4EB050ABAF1000F3BDD10
:102B5000BAF1100F2C9B304D2BDD0A9432464FF00A
:102B6000100B2E4661460D9C0C9D06E0AAF1100A42
:102B7000BAF1100F02F1080217DD01331031072BF3
:102B80002D912C9382E84008F0DD204629462BAA9F
:102B900002F0E4FE00287FF4CDAEAAF1100ABAF1EB
:102BA000100F2D992C9B38AAE7DC0A9C35468C46E1
:102BB00016460133D444072BCDF8B4C02C9386E8D5
:102BC000200400F337830836099DED0500F12682C5
:102BD0002C9B37600133A444072BCDF8B4C074603C
:102BE0002C9300F311830836099C630749D50F9D88
:102BF0000B982C1A002C44DD102C2C9BDFF81CA009
:102C00002BDD574610256246DDF83080DDF834A014
:102C10000BE000BFF46D0008C06D0008146E0008E2
:102C2000103C102C06F1080615DD01331032072B7D
:102C30002D922C9337607560F2DD504641462BAAE9
:102C400002F08CFE00287FF475AE103C102C2D9AFB
:102C50002C9B38AEE9DC9446BA460133A444072BDA
:102C6000CDF8B4C02C93C6F800A0746009DD0D98AF
:102C70000C992BAA02F072FE00287FF45BAEDDF8FF
:102C8000B4C00E9C0B980F9DA842ACBF24186419C9
:102C90000E94BCF1000F40F0C38200232C9338AE99
:102CA00056E599F80080002A7FF488AD202285E55A
:102CB000099D45F00105099599F800807EE5099D7B
:102CC00045F08005099599F8008077E50024A8F182
:102CD00030030F94214619F8018B01EB810103EBBE
:102CE0004101A8F13003092BF5D90F9168E5DDF812
:102CF00024C08DF88F204CF0100CCDF824C0099C16
:102D0000A30640F1B280109DE91D21F00701D1E931
:102D100000230831109114461D46002A73F100006B
:102D2000C0F28B839DF88FA0012359E6099DB74C13
:102D30008DF88F20AF061A943FF52FAE099DED0652
:102D400040F15D84DDF840C0DCF800400CF1040C7B
:102D5000CDF840C000252BE6DDF824C08DF88F208B
:102D60001CF0200F00F03D84109C21680E9CE5179C
:102D70002B46109D224604351095C1E90023E7E457
:102D8000109C27684FF0000A8DF88FA0251D002F9A
:102D900000F0F5850A9C002C3846C0F2A785514604
:102DA000224602F081F9002800F01F860A9C109547
:102DB000C01BA042B8BF044624EAE475CDF828A0A1
:102DC000CDF850A00B959DF88FA032E6DDF824C019
:102DD0004CF0400CCDF824C099F80080EEE499F84E
:102DE0000080B8F16C0F4B4600F08B84099D45F0D4
:102DF00010050995E2E4109C109D24680F94002CA6
:102E000005F10403FFF67CAD109399F80080D5E43A
:102E1000109ADDF824C07E4814681A903023151DDE
:102E20004FF078084CF0020C8DF890301095CDF8EA
:102E300024C000258DF891800223CDE5109A109DC5
:102E400012688DF8B8200023012404359A460B94AB
:102E500010958DF88F300A9314932EAFEFE5099CEF
:102E60008DF88F20A3063FF54EAFDDF824C01CF08F
:102E7000100F40F0D282099C670640F1CE82DDF847
:102E800040C0BCF900400CF1040CE51722462B466B
:102E9000CDF840C041E799F800802B228EE4099DCF
:102EA00045F00805099599F8008087E4109D099C74
:102EB0008DF88F20EB1D250723F0070340F18A834F
:102EC000D3E90045CDE9164503F1080CCDF840C023
:102ED000DDE9160102F0D8FC0128DDE9160140F019
:102EE0005F830022002303F007FC002840F06D857B
:102EF0009DF88FA003250B95099D464F464B25F065
:102F000080050024099500250A94B8F1470FD8BF21
:102F10001F46032414958CE5DDF824C04CF0200CEA
:102F2000CDF824C099F8008048E4109CE31D23F0FC
:102F3000070303F108051095D3E9004500234BE58D
:102F4000109DEB1D23F0070303F1080CD3E90045A6
:102F5000CDF840C001233FE58DF88F20B8F1000F78
:102F60003FF4E1AC00234FF0010C9A46CDF82CC0A1
:102F70008DF8B8808DF88F300A93149364462EAF85
:102F80005DE5DDF8B4C0B5E5012B00F0EC80022B67
:102F90000DF1DF0318D1DDF868C0194604F00F0009
:102FA000220942EA05720F462B091CF800103970FD
:102FB00052EA030014461D4607F1FF31EED1089D89
:102FC000CDE91E23EC1B2BE5E00840EA457004F038
:102FD0000702E908303250EA010C1F461A70044615
:102FE0000D4603F1FF33EFD1099CCDE91C01E00749
:102FF000394640F1C180302A00F0BE80089D1F464E
:103000003023EC1B01F8013C0AE500BFE06D00082D
:10301000F46D0008D46D0008D06D0008B8F1650F9C
:1030200040F3AD80DDE9160100220023CDF81CC07D
:1030300003F058FBDDF81CC0002800F026812C9B13
:10304000AA4A326001330CF1010C0122072BCDF8A2
:10305000B4C02C93726000F3F7820836259B119C54
:10306000A34203DB099DEC077FF5BEAD2C9B189DA9
:10307000159C34600133AC44072BCDF8B4C07560A7
:103080002C9300F348830836119D6C1E002C7FF7AB
:10309000ABAD102C2C9B964D40F3978110276246C8
:1030A000DDF83480DDF830A004E00836103C102C48
:1030B00040F38A8101331032072B2D922C9386E83E
:1030C000A000F2DD404651462BAA02F047FC002842
:1030D0007FF430AC2D9A2C9B38AEE7E70F9D0B9810
:1030E000C0EB050ABAF1000F7FF72CADBAF1100F53
:1030F0002C9B7F4D2BDD129432464FF0100B2E4649
:1031000061460D9C0C9D06E0AAF1100ABAF1100F61
:1031100002F1080217DD01331031072B2D912C939A
:1031200082E84008F0DD204629462BAA02F016FC72
:1031300000287FF4FFABAAF1100ABAF1100F2D9905
:103140002C9B38AAE7DC129C35468C461646013388
:10315000D444072BCDF8B4C02C9386E8200400F3A8
:1031600012820836EEE4002D08BF0A2C80F0388168
:1031700048AF303407F8414D089DEC1B50E4119CDA
:10318000012C2C9C40F3D58101340CF10103012268
:10319000072C37602D932C94726000F3DB81083686
:1031A000DDF86080159D356001349844189DCDF898
:1031B000B480072C2C94756000F3D8810836DDE9C3
:1031C00016010022002303F08DFA119D002840F023
:1031D000B9806B1E013401379844072C2C94CDF82C
:1031E000B4803760736000F3E2800836DDF864C0B5
:1031F000199D0134C44427AB072CCDF8B4C02C94DE
:1032000086E828007FF7EFAC0D980C992BAA02F006
:10321000A5FB00287FF48EABDDF8B4C038AEE3E444
:103220000D980C992BAA02F099FB00283FF435ADBC
:10323000FFF780BB0D980C992BAA02F08FFB00289A
:103240007FF478ABDDF8B4C038AEBDE40D980C99CE
:103250002BAA02F083FB00287FF46CABDDF8B4C02E
:1032600038AE5AE40D980C992BAA02F077FB00288F
:103270007FF460ABDDF8B4C038AE5FE40A9C38AFD1
:10328000FFF7CEBB0223FFF7A7BB259B002B40F324
:10329000E781119C149DDDF844A0AC42A8BF2C46E8
:1032A000002CBA440BDD2C9B37600133A444072B60
:1032B000CDF8B4C074602C9300F328830836149DB5
:1032C00024EAE4742C1B002C40F3DB80102C2C9B94
:1032D000074D40F3AD810A974FF010082F46624624
:1032E0002546DDF834B00C9C09E000BF106E0008E4
:1032F000C06D00080836103D102D40F39581013354
:103300001032072B2D922C9386E88001F2DD58466F
:1033100021462BAA02F022FB00287FF40BAB2D9A4A
:103320002C9B38AEE7E70D980C992BAA02F016FB00
:1033300000287FF4FFAA9DF88FA0DDF8B4C038AE56
:10334000FFF7D8BB6F1E002F7FF750AF102FB34D84
:1033500023DD43464FF0100ADDF83480DDF830B04D
:1033600004E0103F102F06F1080615DD013410337C
:10337000072C2D932C9486E82004F2DD4046594614
:103380002BAA02F0EBFA00287FF4D4AA103F102FEA
:103390002D9B2C9C38AEE9DC98460134B844072CB0
:1033A000CDF8B4802C9486E8A0007FF71EAF0D986E
:1033B0000C992BAA02F0D2FA00287FF4BBAADDF800
:1033C000B4802C9C38AE11E794460133A444072BFB
:1033D000CDF8B4C02C93356074607FF704AC13E76C
:1033E0000DF1DF0B204629460A22002303F0D4F911
:1033F00030328BF80020204629460A22002303F0B1
:10340000CBF904460D4654EA050C5F460BF1FF3B31
:10341000E8D1089DEC1BFFF703BB109DDDF840C011
:103420002C68E51722462B460CF1040C002A73F198
:103430000000CDF840C0BFF675AC4FF02D0A6442D5
:1034400065EB45058DF88FA00123FFF7C9BA109DE4
:103450002C68043510950025FFF7BEBA109D2C6826
:103460000435109501230025FFF7B6BA0D980C9985
:103470002BAA02F073FA00287FF45CAADDF8B4C02E
:1034800038AE149D259C2F44119DAC4242DB099D12
:10349000E9073FD41198C7EB0A05041BAC42B8BF3B
:1034A0002546002D0BDD2C9B37600133AC44072BE8
:1034B000CDF8B4C075602C9300F35282083625EA2B
:1034C000E575641B002C7FF78FAB102C2C9B534DA4
:1034D0007FF77BAF10276246DDF83480DDF830A03F
:1034E00004E00836103C102C7FF76EAF0133103229
:1034F000072B2D922C9386E8A000F2DD4046514622
:103500002BAA02F02BFA00287FF414AA2D9A2C9BE8
:1035100038AEE7E72C9B159D3560189D756001332B
:10352000AC44072BCDF8B4C02C9300F3FB810836D4
:10353000B0E7099DEA073FF527AE01340CF1010819
:103540000123072CCDF8B4802C94376073607FF78B
:103550004CAE2CE70D980C992BAA02F0FFF900282D
:103560007FF4E8A92D9B2C9C38AE19E60D980C9998
:103570002BAA02F0F3F900287FF4DCA9DDF8B4806F
:103580002C9C38AE1BE60D980C992BAA02F0E6F99C
:1035900000287FF4CFA9DDF8B4C038AEFFF7D2BA67
:1035A00002F072F9002840F0C280099C1C4F1D4BAC
:1035B0009DF88FA00A904FF0030C24F0800409942A
:1035C000CDF82CC01490B8F1470FD8BF1F46644601
:1035D000FFF72FBAD3E900450833CDE9164510931C
:1035E00076E4DDF824C01CF0100F00F05581109C2B
:1035F0000E9D2368043410941D60FFF7A9B8099C40
:10360000640640F14281DDF840C0BCF800400CF196
:10361000040C0025CDF840C0FFF7CAB9C06D000802
:10362000DC6D0008D86D00082C463D460A9F944684
:103630000133A444072BCDF8B4C02C9335607460DB
:103640003FF714AF08361CE70D980C992BAA02F02F
:1036500085F900287FF46EA9DDF8B4C038AEFDE42A
:103660002C9AB749316001320CF1010C0121072A73
:10367000CDF8B4C02C92716000F3F78008361C4678
:103680002CB9119D1DB9099DE8077FF5ADAA2C9BAA
:103690001899159D356001336144189D2D91072BB4
:1036A00075602C9300F3DE8106F108026442002C61
:1036B00040F30B81102CA34D40F34881A346102604
:1036C0000C46DDF83480DDF830A006E00832ABF1BE
:1036D000100BBBF1100F40F3378101331034072B6F
:1036E0002D942C9382E86000F0DD404651462BAAD1
:1036F00002F034F900287FF41DA92D9C2C9B38AAD8
:10370000E5E7099C93F8018044F0200409F10109E0
:103710000994FFF753B80D980C992BAA02F01EF9E3
:1037200000287FF407A9DDF8B4C038AEACE40A9DE8
:10373000013528F0200A00F0A580BAF1470F04D126
:103740000A9D002D08BF01250A95DDE91623DDF845
:1037500024C0002B4CF4807CCDF848C0C0F29C8182
:10376000DDE91645CDE920454FF0000BB8F1660FB5
:1037700000F09B81B8F1460F00F0A981BAF1450F26
:103780000ABF0A9C0A9D651C022025A926AA29AB0E
:103790008DE821000392049302910D98DDE9202326
:1037A00000F0C6FAB8F1670F074602D0B8F1470F2C
:1037B00005D1DDF824C01CF0010F00F09C81BAF1A6
:1037C000460F07EB050400F01C81DDE92001002213
:1037D000002302F087FF002840F00581299B9C42CE
:1037E00006D930215A1C29921970299B9C42F9D87C
:1037F000DB1BBAF1470F119300F0ED80B8F1650FB4
:1038000040F3F281B8F1660F00F06881259C1494B2
:10381000119C149DAC4200F33281DDF824C01CF0F1
:10382000010F40F0AD8125EAE5732C464FF06708A3
:10383000BBF1000F40F0B280129D0B930995CDF8BB
:1038400028B09DF88FA0FFF7F4B80D98402101F043
:103850008FF920602061002800F0BF81DDF830C0C2
:103860004023CCF81430FEF763BF0D980C992BAAB7
:1038700002F074F800287FF45DA8259CDDF8B4C040
:1038800038AEFDE606240A945FE7109D2C680435E7
:1038900010950025FFF78CB8DDF824C01CF0400F10
:1038A00000F08780109C0E9D2368043410941D80C6
:1038B000FEF74EBF0D980C992BAA02F04FF8002886
:1038C0007FF438A82D992C9B38AADDF844C0119CB0
:1038D000176001338C44072BCDF8B4C02C9354608F
:1038E0003FF792AC02F10806FFF77EB9CDF828A0A9
:1038F00002F004F8109520EAE07C0A9DCDF82CC077
:10390000044614959DF88FA0FFF793B80D980C9975
:103910002BAA02F023F800287FF40CA8DDF8B4C02D
:1039200038AECCE40D980C992BAA02F017F80028B9
:103930007FF400A8259CDDF8B4C038AEAAE500BF2E
:10394000106E0008C06D000821465C46013321441A
:10395000072B2D912C9315605460ABDC0832B4E733
:103960000D980C992BAA01F0F9FF00287EF4E2AF24
:10397000259C1199DDF8B4C00C1B38AE9FE50A9C5C
:103980001497062C28BF062424EAE47CBA460A973A
:103990001095CDF82CC0974FFFF74BB8129D0995A5
:1039A0004FF02D0A00250B938DF88FA00A95FFF795
:1039B00043B8DDF840C00E9CDCF800300CF1040C7C
:1039C000CDF840C01C60FEF7C3BE4FF02D0A8DF845
:1039D0008FA0FFF78FBA259BDC1C19DB0A9C9C4249
:1039E00016DB149314E7234602E724EAE47CCDF8BF
:1039F0002CC00A9C10950A9014909DF88FA0FFF798
:103A000018B83B78302B00F0AD80259D2C44DCE6C7
:103A1000A8F10208013B002B2593BABF5B422D227F
:103A20002B22092B8DF89C808DF89D2065DC30338E
:103A300030228DF89F308DF89E2028AB119D119C6F
:103A400027AA9A1A012D1992144440F3B780013421
:103A5000002524EAE4731495EAE6002481460A94DA
:103A6000FEF7AEBE0D980C992BAA01F077FF002847
:103A70007EF460AF259C2D992C9B38AA16E6149CE9
:103A8000119D002CD4BFC4F1020401242C4424EA6B
:103A9000E4734FF06708CBE617991698209001F170
:103AA000004121914FF02D0B60E60A9D0195032006
:103AB00025A926AA29AB00900392049302910D98A0
:103AC000DDE9202300F034F90A9D074677E60A9CD9
:103AD0000194032025A926AA29ABECE7259D14957E
:103AE000002D0A9C63DDB4BB099DE80733D4149C08
:103AF00024EAE4739CE6299B7AE60DF1AA003E4D88
:103B0000DA1785FB0351C2EBA10101EB81040246E8
:103B1000A3EB440303F13000092910700B4602F1B6
:103B2000FF30ECDC01F130030DF1AB04D9B284427B
:103B300002F8011C5AD90DF19D00134601E013F85B
:103B4000011BA34200F8011FF9D10DF5907CC2EBD7
:103B50004C03F63B72E70A9D6C1C149D2C4424EA2E
:103B6000E47365E6DDE920010022002302F0BAFDDE
:103B700000287FF44AAFC5F1010525952C4424E6C1
:103B8000149D6C1C24EAE4734FF0670850E6109D06
:103B9000DDF840C02D6899F801800A950CF1040306
:103BA000002D10938146BEF609AEFEF704BE7CB927
:103BB000099DE9070CD401231C4639E6DDF824C031
:103BC0001CF001037FF443AF149324EAE4732FE65F
:103BD0000A9DAC1C24EAE4732AE60D9D0C232B609D
:103BE0004FF0FF30FEF7AEBE259B13E70DF19E03AD
:103BF00024E700BF086E0008676666662DE9F04F8F
:103C000003690D699D4283B0834600F38B80013DBB
:103C100001F1140400F1140A54F825205AF8253053
:103C20000132B3FBF2F8AA00914600925244A1443B
:103C30000192B8F1000F3DD04FF0000E70462246C1
:103C400053468C4652F8046B1968B7B2360C07FB22
:103C500008EE06FB08F606EB1E461FFA8EF7C71B9A
:103C6000B0B217FA81F7C0EB114000EB2740BFB2AA
:103C700047EA0047914543F8047B4FEA20404FEA6A
:103C8000164EDFD2009A5AF80230614693B9019A73
:103C9000131F9A450CD252F8043C4BB9A2F1080309
:103CA00002E01A68043B1AB99A4505F1FF35F8D3CA
:103CB000CBF81050584601F0FBFC00282EDB08F131
:103CC00001085346002254F8046B1868B1B2521A26
:103CD000360C12FA80F1C6EB104202EB214289B297
:103CE00041EA0241A14543F8041B4FEA2242EAD2CD
:103CF0005AF825200AEB850382B91A1F92450BD288
:103D000053F8042C42B9083B02E01A68043B1AB984
:103D10009A4505F1FF35F8D3CBF81050404603B073
:103D2000BDE8F08F002003B0BDE8F08F0000000078
:103D30002DE9F04F016C9BB00446279D92469B46AF
:103D400049B1436C4B60012202FA03F38B6001F02E
:103D5000B7FA00232364BBF1000FD94633DB0023FD
:103D60002B60A54B1A4609EA0303934214D0504630
:103D700059460022002302F0B5FC804648B3269E37
:103D8000289D01233360002D00F0C9809B482860E6
:103D900001381BB0BDE8F08F269D42F20F732B60F7
:103DA000BAF1000F00F0A4809548289E002EF0D0B4
:103DB000C378002B00F0B58000F10803289D2B602C
:103DC0001BB0BDE8F08F01232BF000492B60CB46E0
:103DD000C7E719AA18AB8DE80C00204652465B468F
:103DE00001F0F4FC5FEA19550A9040F08A80189FB0
:103DF000199D6FF482633D449D42C0F294821F334B
:103E000005F212425B1B09FA03F32AFA02F243EAB3
:103E10000200FEF707F90126013DB846A1F1F8714D
:103E200016960022774BFDF7BFFF6DA3D3E9002361
:103E300002F0F0F96CA3D3E90023FDF7B7FF0646C3
:103E400028460F46FEF7FEF869A3D3E9002302F0E7
:103E5000E1F902460B4630463946FDF7A7FF064614
:103E60000F4602F071FC39460790002230460023CD
:103E700002F042FC002840F02882079E162E00F235
:103E80002182614B03EBC603D3E9000152465B4636
:103E900002F050FC002800F04B82013E07960026FD
:103EA0000E96C5EB0805013D069500F1258200251B
:103EB0000895079E002EC0F21682069D0D96354489
:103EC000002606950C96249D092D2CD8052DC4BFDF
:103ED000043D2495249EA6F10203CCBF00250125B4
:103EE000032B22D8DFE813F0B7039E02C0039A0425
:103EF000464A434BC9F3130000280CBF104618462E
:103F000053E7CBF3130343F07F51CDF8588050466D
:103F1000A5F2FF3541F44011DDF8608081E73C48AF
:103F200037E7C31C4AE70025249500256564294628
:103F3000204601F09FF94FF0FF39012609902595A1
:103F40002064CDF83C900B96199B002BC0F2D280D8
:103F5000079E0E2E00F3CE802B4B03EBC603D3E956
:103F60000001CDE9040125990029C0F28083DDE933
:103F700004235946504602F077FA02F0E5FB054665
:103F8000FEF760F8DDE9042302F044F902460B462F
:103F900050465946FDF708FF099A05F13003B9F17B
:103FA000010F06460F46137002F1010B64D0002288
:103FB000184B02F02FF90022002306460F4602F0AC
:103FC00091FB002840F08180DDF82480099D039456
:103FD000C844DDE904AB05F1020928E0AFF3008035
:103FE00061436F63A787D23FB3C8608B288AC63FFF
:103FF000FB799F501344D33F0000F07F116E0008FF
:10400000306E00080000F83F486E0008246E00087B
:10401000106E00080000244002F0FCF8002200238B
:1040200006460F4602F05EFB002840F0C183524670
:104030005B463046394602F017FA02F085FB05462A
:10404000FEF700F852465B4602F0E4F802460B46E3
:1040500030463946FDF7A8FE05F1300EC14509F896
:1040600001EC4C4606460F464FF00002A74B09F103
:104070000109D1D1A346039C32463B46304639461E
:10408000FDF794FE06460F463246DDE904013B4645
:1040900002F032FB40B9DDE9040132463B4602F052
:1040A00021FB90B1EB0710D51BF8015C099A05E0E4
:1040B0009A4200F0288413F8015C9B46392D0BF1DD
:1040C000FF33F5D06A1CD2B21A7020460A9901F06B
:1040D000F7F8079E269D731C289E00228BF800206F
:1040E0002B60002E00F025830998C6F800B01BB0A5
:1040F000BDE8F08F0B9D002D00F00381249E012E62
:1041000040F3DC820C9E09F1FF37BE42C0F2898386
:10411000F71BB9F1000FC0F28684089D4B46089E3C
:104120001E440896069E20461E440121069601F074
:104130006BF9064665B10698002809DD0346089923
:10414000AB42A8BF2B46C91AC01A0891ED1A0690B7
:104150000C9A002A1DDD0B9B002B00F05883002FCA
:1041600011DD31463A46204601F0F6F90646314661
:104170000A9A204601F052F90A998046204601F039
:104180009FF8CDF82880DDF830E0BEEB070240F064
:104190008F822046012101F037F980460D980028D2
:1041A00005DD414620460D9A01F0D6F98046249956
:1041B000012940F3C18200270D98002840F0AF820A
:1041C0000120069B034413F01F0300F0A180C3F1FC
:1041D0002002042A40F3B5840899069AC3F11C030F
:1041E00019441A4408911D4406920899002905DDD6
:1041F0000A99089A204601F0FDF90A90069A002AC9
:1042000004DD4146204601F0F5F980460E9B002B67
:1042100040F06A82B9F1000F40F3A6820B980028A3
:1042200040F088800B9D0A9FDDF824B006E03946F7
:1042300020460A22002301F04DF807463846414641
:10424000FFF7DCFC30300BF805000135A945EEDC4A
:10425000DDF824B00A978246B9F1010FACBFCB4418
:104260000BF1010B00250A990122204601F0C2F949
:1042700041460A9001F01CFA002840F309831BF81C
:10428000012C099905E0994200F08B8213F8012C6A
:104290009B46392A0BF1FF33F5D001321A704146A3
:1042A000204601F00DF8002E3FF40FAF2DB1B542BE
:1042B00003D02946204601F003F83146204600F09D
:1042C000FFFF02E701260E96EBE50798FDF7BAFE21
:1042D00032463B4602F006FA00287FF4CEAD079E38
:1042E000013E0796C9E5079E089DAD1B08957542DE
:1042F00000260C950D96E6E56D420026089506967B
:10430000D7E50C9F089D0B9E14E700BF00002440DA
:104310001C23DDF820E006989E441844CDF820E0E8
:104320001D44069061E7A748401B0AFA00F070E5BB
:104330000E90B6E5002D05DD31462A46204601F0F7
:1043400059F90646002F40F0E8823746099D099842
:104350004D4408950AF001050B95DDF82890451CA1
:104360000AE000F0B7FF394606460A22204600233D
:1043700000F0B0FF0746013541464846FFF73EFCD6
:1043800031468346484601F093F9414603903A4648
:10439000204601F0B1F9C268691E03460BF1300AEC
:1043A0000691002A40F0938119464846029301F095
:1043B0007FF9029B024619462046029200F080FFD8
:1043C000029A2AB9249B1BB90B98002800F091830C
:1043D000039B002BC0F2348205D1249818B90B99A5
:1043E000002900F02D82002A00F3AB82DDF820E0E6
:1043F00005F801AC7545AB4600F0B38249460A2288
:104400000023204600F066FFBE428146314620462A
:104410004FF00A024FF00003A3D100F05BFF064605
:104420000746A8E700260B96079EDDF894E0B64401
:104430000EF10109B9F1000FCDF83CE04E4640F312
:1044400050810021172E61640AD9012204235B00E8
:1044500003F11400B042114602F10102F7D9616480
:10446000204600F007FF0E2E099020643FF66CAD49
:10447000002D3FF469AD079D002DCDE912AB40F34F
:104480001B82514B05F00F0203EBC2032D11D3E940
:104490000067EB0640F1CD814C4B50465946D3E9BD
:1044A000082301F0E1FFCDE9100105F00F054FF001
:1044B00003088DB1DFF814A130463946EE0705D563
:1044C000DAE9002308F1010801F0A4FE6D100AF1F9
:1044D000080AF3D106460F46DDE9100132463B4695
:1044E00001F0C2FF82468B460E9D45B150465946AB
:1044F0000022374B02F000F9002840F0A982404624
:10450000FDF7A0FD52465B4601F084FE0022314BD0
:10451000FDF74CFC0646A1F15077B9F1000F00F011
:104520005A81079D1795C8460B9D002D00F02282E9
:10453000254B294903EBC80353E90223002001F06E
:1045400093FF32463B46FDF72FFCCDE9100159465B
:10455000504602F0F9F80546FDF774FD02460B4699
:1045600050465946FDF720FC3035099ECDE904013F
:10457000EDB23570DDE91001DDE9042306F1010B30
:1045800002F0D8F8002840F0A982DDE904230020D9
:104590000F49FDF709FC02460B46DDE9100102F068
:1045A000C9F8002840F0A082B8F1010F40F38081E3
:1045B000B044CDF85090A246C146DDE90467DDE97C
:1045C000104519E0EEFBFFFF486E0008106F000871
:1045D0000000F03F00001C400000E03F0020A84920
:1045E000FDF7E2FB22462B4602F086F8002840F059
:1045F0007982CB4500F05981204629460022A14B03
:1046000001F008FE00229F4B04460D463046394615
:1046100001F000FE0F46064602F096F88046FDF7D0
:1046200011FD02460B4630463946FDF7BDFB08F149
:1046300030085FFA88F822462B460BF8018B0646B5
:104640000F4602F059F832463B460028C6D0179E66
:104650000796544639E500260B96259800283CDD40
:1046600006460F908146ECE601260B96F5E7B9F178
:10467000000F3FF77CAC40F0C6800022824BDDE9A2
:10468000040101F0C7FD52465B4602F049F8C846F6
:104690004E4600287CD0259DDDF824B0ED430795DB
:1046A0004146204600F00CFE002E7FF406AE0CE5DD
:1046B0000A99204600F050FF0A906AE5169D002DE9
:1046C00000F0B78103F233430C9F089D27E50146B4
:1046D000204600F0F5FD01227AE6012625960F9688
:1046E000B14600216164BBE60A98414600F0E0FF54
:1046F0000028BFF68FADDDF81CE00A990EF1FF3EF1
:1047000020460A220023CDF81CE000F0E3FD0A90C9
:104710000B98002840F00782DDF83C907AE5D8F845
:10472000103008EB8303186900F020FEC0F1200070
:1047300047E50998FFF72DBBBAF1000F7FF43BADB9
:10474000CBF31303002B40F07B812BF000473F0D90
:104750003F05002F3FF430AD089A069B013201332C
:1047600008920693012727E5249902297FF756AD81
:10477000B9F1000F8FD141464B460522204600F08B
:10478000A9FD804641460A9800F092FF002882DD8C
:10479000079D01350795099D31232B7005F1010B0C
:1047A0007EE7079809993123013007900B7076E571
:1047B000A346039C89E44046FDF744FC02460B46B1
:1047C0005046594601F026FD0022304BFDF7EEFA27
:1047D0000646A1F150775046594600222A4BFDF774
:1047E000E3FA32463B4682468B4601F0A3FF00289F
:1047F00040F0BC80324607F100435046594601F074
:104800007BFF002854D04FF00008464643E70A9942
:104810000C9A204600F0A0FE0A90BAE401260B96FE
:1048200002E60C9D0D9E0C977B1B1E440D960027E7
:104830006FE4DDE912014FF00208CDE9100138E61E
:10484000002ACDF82890D94611DD0A990122204688
:1048500000F0D0FE41460A9000F02AFF002840F305
:104860005B81BAF1390F00F01A8109F1310A069B18
:10487000354683F800A003F1010B3E460FE500BF6B
:104880000000F03F000024400000144000001C40E5
:1048900003D11AF0010F7FF4F2AC5B469B46013B5B
:1048A0001BF8012C302AF9D0F9E4DDF85090544679
:1048B000DDE912ABFFF748BB079E7542002D00F003
:1048C000C280A34B05F00F0203EBC203D3E9002320
:1048D000DDE9120101F09EFC2D1182468B4600F0AD
:1048E0002D819C4E4FF00208EA0705D5D6E900233A
:1048F00008F1010801F08EFC6D1006F10806F3D1F5
:1049000082468B46F0E5079E099D30222A700136CB
:10491000312207961A70FFF7D8BB7168204600F065
:10492000A9FC33699A1C0546920006F10C010C3073
:1049300000F002FC20462946012200F05BFE0746FB
:1049400004E5BAF1390FCDF8289000F0A880069D53
:104950000AF101032B703546069E06F1010B3E4617
:104960009DE43546CDF828903E467CE44FF00008A3
:1049700046460DE7764908F1FF3501EBC5013246A1
:104980003B46D1E90001109501F044FCCDE914014A
:104990005946504601F0D8FE0546FDF753FB024646
:1049A0000B4650465946FDF7FFF9DDF824E0303557
:1049B000B8F1010F06460F468EF800500EF1010BBC
:1049C0001ED0099D6B1E03EB080A0022624B01F00A
:1049D00021FC0F46064601F0B7FE8046FDF732FB8C
:1049E00008F1300802460B4630463946FDF7DCF93F
:1049F00005F8018F5545E8D1109D06460F46AB449A
:104A00000022564BDDE91401FDF7D0F932463B4652
:104A100001F072FE00284DD0179E07961BF8015C2E
:104A2000099AFFF74BBB089E0023C9EB0605FFF769
:104A300076BB189B0C9F089DC3F13603FFF76FBB35
:104A40005746FFF7B9BBDDE912AB4FF002084BE563
:104A5000B9F1000F3FF4AFAE0F9E002E7FF728AFE5
:104A600000223D4B5046594601F0D4FB824608F1E6
:104A700001008B46FDF7E6FA02460B4650465946C2
:104A800001F0C8FB0022364BFDF790F9079DDDF8D9
:104A90003C80013D0646A1F15077179544E5354627
:104AA000069B069E09993922327003F1010B3E469E
:104AB000FFF7EFBBDDE9142300202849FDF774F967
:104AC00032463B4601F036FE00283FF4F1AE5B462D
:104AD0009B46013B1BF8012C302AF9D0179D079506
:104AE000FFF7F3BA45465446179E0796099AFFF713
:104AF000E5BABAF1390FCDF82890D0D0039B3546EE
:104B0000002B069EC8BF0BF1310A86F800A006F103
:104B1000010B3E46FFF7C3BB7FF4A9AE1AF0010FAD
:104B20003FF4A5AE9DE6314620460A220023DDF87B
:104B30003C9000F0CFFB0646FFF76CBB4FF002083D
:104B4000D2E43FF452ABC3F13C03FFF7E2BB00BF3A
:104B5000486E0008106F0008000024400000E03F8D
:104B600000001C40AFF30080004870475C04002048
:104B70002DE9F04F01F10B05162D83B0064627D91C
:104B800035F0070527D4A94225D8304600F06EFB42
:104B9000B5F5FC7F26D2C14F4FEAD50C07EBCC030D
:104BA000DC689C4200F0D2816368E268A16823F06F
:104BB0000303234430465D68CA6045F001059160F7
:104BC0005D6000F055FB0834204603B0BDE8F08F6F
:104BD0001025A942D9D900240C232046336003B004
:104BE000BDE8F08F5FEA552C00F08A80BCF1040F1D
:104BF00000F260814FEA951C0CF1380C4FEA4C0131
:104C0000A64F07EB8101CC68A14205D10CE0002B37
:104C10007ADAE468A14207D0626822F00302531BEB
:104C20000F2BF4DD0CF1FF3C0CF1010C9B4B3C69AC
:104C300003F1080E744500F07E81616821F00301E4
:104C40004A1B0F2A00F36481002AC3F814E0C3F85A
:104C500010E06ADAB1F5007F80F03A81C90803EB11
:104C6000C1004FEAA1085A688168A1604FF00109AC
:104C700009FA08F848EA0202E0605A608460CC60F1
:104C80004FEAAC030120984090425BD8024206D123
:104C90002CF0030C400002420CF1040CFAD007EB9C
:104CA000CC084446E146E3689C4207D145E1002A2E
:104CB00080F25681DB689C4200F03F81596821F008
:104CC00003014A1B0F2AF2DD1C46D3F80CC054F82E
:104CD000088F591945F0010942F00105C3F8049005
:104CE0003046C8F80CC0CCF8088079613961C1F849
:104CF0000CE0C1F808E04D608A5000F0B9FA63E7B3
:104D00007E214FF03F0C7BE72244E3685068A168A6
:104D100040F00105CB6030469960556000F0A8FA7C
:104D20000834204603B0BDE8F08F214430464B687C
:104D300043F001034B6000F09BFA0834204603B0B7
:104D4000BDE8F08FBC68636823F00309A94504D36C
:104D5000C5EB09030F2B00F39180514B514A1968A1
:104D60001368013305EB010A04EB090B00F06181C4
:104D70000AF5805A0AF10F0A2AF47F6A2AF00F0A0C
:104D800030465146019200F0A7FDB0F1FF3F80464A
:104D9000019A00F00081834500F2FA80DFF810C12B
:104DA000DCF80030C3455344CCF8003000F04A81B1
:104DB00012683C4901321BBFCBEB080B5B44C1F8C6
:104DC0000080CCF8003018F0070300F01381C3F125
:104DD0000802C3F5805390440833C244CAF30B0A57
:104DE000CAEB030A51463046CDF804C000F074FD0A
:104DF000431CDDF804C000F03581C8EB00025244CA
:104E000042F00102DCF80030C7F808805344BC428D
:104E1000C8F80420CCF80030DFF894A015D0B9F120
:104E20000F0F40F2EA806168A9F10C0222F007023C
:104E300001F0010EA118052042EA0E0E0F2AC4F857
:104E400004E04860886000F21181174ABC6811686C
:104E50008B4288BF1360154A11688B4288BF13606C
:104E6000626822F003029542C5EB020301D80F2BC2
:104E700004DC304600F0FCF90024A5E6621943F09A
:104E8000010345F0010565603046BA60536000F0EB
:104E9000EFF90834204603B0BDE8F08F94040020F9
:104EA000B8080020A0080020B4080020B0080020A6
:104EB000BC080020BCF1140F61D9BCF1540F00F202
:104EC0008F804FEA153C0CF16E0C4FEA4C0197E6CF
:104ED0004B0A042B58D9142B00F2AE8003F15B026D
:104EE000500007EB8000DFF8BC818368834200F04C
:104EF0008A805A6822F00302914202D29B6898424B
:104F0000F7D1D9687A68E160A3608C60DC60B7E6AD
:104F1000611942F0010745F00105656030465961AD
:104F20001961C1F80CE0C1F808E04F608A500834FC
:104F300000F09EF948E65A68A2E609F1010919F065
:104F4000030F04F108047FF4AEAE2DE004F1080372
:104F50006469A34208BF0CF1020C3FF467AE23E67C
:104F600019441C464868DB6854F8082F40F00105D6
:104F70004D603046D3609A6000F07AF924E60CF177
:104F80005B0C4FEA4C013BE68A0938325000A8E737
:104F9000BC423FF403AFBC68626822F0030262E7E0
:104FA000D8F8008098457BD11CF0030FA8F10803C6
:104FB0000CF1FF3CF4D17B6823EA00037B604000E6
:104FC00098423FF6BFAE00283FF4BCAE0342CC4649
:104FD0007FF465AE400003420CF1040CFAD05EE6AB
:104FE000BCF5AA7F1AD84FEAD53C0CF1770C4FEAF2
:104FF0004C0105E64FF48053EFE60123C8F8043076
:10500000444600222FE791100120D8F8042000FA2E
:1050100001F10A43C8F80420194674E740F25453DA
:105020009C451BD84FEA954C0CF17C0C4FEA4C0187
:10503000E6E50AF1100AA3E6542B1FD80A0B6E32DC
:1050400050004EE7CBF30B0100297FF4B1AE0AEB21
:105050000901BA6841F001015160F6E6FC214FF008
:105060007E0CCDE501224FF0000ACBE604F10801E9
:10507000304600F071FDDAF80030E6E6B3F5AA7FBD
:1050800003D8CA0B773250002BE740F254529342B8
:1050900003D88A0C7C32500023E7FC207E2220E7D4
:1050A0007B688CE794040020830770B4C9B23FD0BA
:1050B000541E2AB303788B4223D0431C04E0FCB176
:1050C00004788C421DD0144613F0030F184604F1E7
:1050D000FF3203F10103F2D1032C14D8651E4CB347
:1050E00003788B420DD0421C002302E004788C42EE
:1050F00007D0AB42104603F1010302F10102F5D1E2
:10510000002070BC704741EA0126034646EA064685
:105110001846043302687240A2F1013525EA020202
:1051200012F0803FDAD1043C032C1846F0D8D5E7C2
:105130001446D1E72046E4E7844641EA000313F031
:1051400003036DD1403A41D351F8043B40F8043B8E
:1051500051F8043B40F8043B51F8043B40F8043B51
:1051600051F8043B40F8043B51F8043B40F8043B41
:1051700051F8043B40F8043B51F8043B40F8043B31
:1051800051F8043B40F8043B51F8043B40F8043B21
:1051900051F8043B40F8043B51F8043B40F8043B11
:1051A00051F8043B40F8043B51F8043B40F8043B01
:1051B00051F8043B40F8043B51F8043B40F8043BF1
:1051C00051F8043B40F8043B403ABDD2303211D391
:1051D00051F8043B40F8043B51F8043B40F8043BD1
:1051E00051F8043B40F8043B51F8043B40F8043BC1
:1051F000103AEDD20C3205D351F8043B40F8043B91
:10520000043AF9D2043208D0D2071CBF11F8013B8E
:1052100000F8013B01D30B8803806046704700BF54
:10522000082A13D38B078DD010F003038AD0C3F163
:105230000403D21ADB071CBF11F8013B00F8013B45
:1052400080D331F8023B20F8023B7BE7043AD9D304
:10525000013A11F8013B00F8013BF9D20B780370D9
:105260004B7843708B78837060467047704700BFFF
:10527000704700BFC26C70B505460C464AB152F883
:10528000240080B1016842F8241000220261C2604B
:1052900070BD2122042100F0E1FBE86402460028F1
:1052A000EDD1002070BD012101FA04F6721D2846DF
:1052B000920000F0D3FB0028F3D044608660E4E75E
:1052C00031B1C36C4A6853F82200086043F82210D9
:1052D000704700BF2DE9F047D1F8108082B08946B1
:1052E000824601F1140500242F68BEB23F0C02FB78
:1052F000063602FB07F303EB16430134B6B206EBA6
:105300000346A04545F8046B4FEA1343ECDC53B168
:10531000D9F8082090450ADA09EB880108F1010262
:105320004B61C9F81020484602B0BDE8F087D9F8B3
:105330000410019301315046FFF79CFFD9F810206B
:10534000023209F10C01044692000C30FFF7F4FE22
:10535000DAF84C20D9F80410019B52F82100C9F862
:10536000000042F82190A146D6E700BF030C1B04C1
:10537000B3B90004102310F07F4F04BF00020833BC
:1053800010F0704F04BF0001043310F0404F04BF11
:1053900080000233002807DB420003D4202070473E
:1053A0000023E8E7581C704718467047036813F05D
:1053B000070207D0D90720D49A0720D49B0803609E
:1053C0000220704799B209B91B0C102213F0FF0F8D
:1053D00004BF1B0A0832190704BF1B0904329907CE
:1053E00004BF9B080232D90704D45B0801D12020F6
:1053F00070470132036010467047002070475B0819
:1054000003600120704700BF10B50C460121FFF773
:1054100031FF01224461026110BD00BF2DE9F04F50
:105420000D69D2F810904D4585B00C46924604DACD
:105430002A4654464D468A469146A368616805EB64
:1054400009079F42C8BF0131FFF714FF00F114069E
:1054500006EB87084645019005D23346002043F805
:10546000040B9845FBD80AF1140C0CEB8909143491
:10547000CC45009404EB85055BD2CDF808800397FA
:10548000C8465CF8043B9CB224B3009A33464FF004
:10549000000900E00B4652F8047B19681FFA87FBED
:1054A0001FFA81FA380C090C04FB0BA7B94404FB62
:1054B000001000EB194019461FFA89F949EA004724
:1054C00095424FEA104941F8047BE3D8C3F80490B1
:1054D0005CF8043C5FEA134924D0D6F800A0009B96
:1054E000504631464FF0000B00E011461A88000C80
:1054F00009FB020083441FFA8AFA0A464AEA0B4073
:1055000042F8040B53F8047B48684FEA174A84B208
:1055100009FB0A4A0AEB1B4A9D424FEA1A4BE4D8A0
:10552000C1F804A0E04506F10406AAD8DDF8088019
:10553000039F002F0ADD58F8043CA8F104081BB1B2
:1055400004E058F8043D0BB9013FFAD1019B18461D
:105550001F6105B0BDE8F08F12F003032DE9F041A3
:10556000144607460E462CD1A4101CD0BD6C002D4D
:1055700030D04FF0000804E0641014D02868A8B1BF
:105580000546E307F8D5384631462A46FFF746FF79
:10559000AEB17268FB6C641053F82210316043F8AE
:1055A00022600646EAD13046BDE8F08138462946F9
:1055B0002A46FFF733FF2860C0F80080E0E7064680
:1055C000DAE75D1E0A4A002352F82520FFF782FE23
:1055D0000646C9E701213846FFF74CFE40F271212B
:1055E00001220023416102610546B8640360C0E7FF
:1055F000386F00082DE9F84F93460A698B684FEA27
:105600006B1A0AEB020909F101069E420F46804619
:10561000496804DD5B009E4201F10101FADC40466D
:10562000FFF728FEBAF1000F00F1140409DD002392
:105630001A4625460133534545F8042BFAD104EBAD
:1056400083043A6907F114031BF01F0B03EB820C70
:1056500021D0CBF1200A002200E02C461968254613
:1056600001FA0BF10A4345F8042B53F8042B634568
:1056700022FA0AF2F1D362600AB109F10206D8F8FF
:105680004C307A68013E53F822100661396043F8C5
:105690002270BDE8F88F53F8042B44F8042B9C4586
:1056A000EDD953F8042B44F8042B9C45F3D8E6E7D6
:1056B00002690B69D21A10B415D19B001430143151
:1056C0001944034401E0984211D253F8042D51F8D3
:1056D000044DA242F7D0944294BF01204FF0FF3016
:1056E0005DF8044B704710465DF8044B704700208E
:1056F0005DF8044B704700BF2DE9F0470D460446A6
:10570000114628461646FFF7D3FF071E55D04EDB3D
:105710004FF0000869682046FFF7ACFD2F69326939
:10572000C0F80C801435143600F1140305EB870C17
:1057300006EB8208002156F8042B55F8044B1FFA9B
:1057400082F911FA84FA110CC1EB1441C9EB0A0277
:1057500001EB224192B242EA0142B04543F8042BE8
:105760004FEA21412C46E6D8AC45984615D954F865
:10577000046B11FA86F1360C06EB214689B241EA38
:105780000642A44543F8042B4FEA2641EFD8EB43E9
:10579000634423F0030304334344043B22B953F826
:1057A000042D013F002AFAD00761BDE8F0872B469F
:1057B0004FF0010835461E46ACE720463946FFF754
:1057C00059FD012347610361BDE8F0872DE9F043EE
:1057D00083B001211D46C3F30A5614460A9FFFF702
:1057E00049FDC5F3130380460EB143F480130193C2
:1057F00024B302A840F8084D6846FFF7D7FD0028FB
:1058000035D19DE80C00C8F81420002B0CBF0124F2
:105810000224C8F81830C8F81040DEB908EB840339
:10582000A0F2324038601869FFF7A0FD0B9BC0EB77
:1058300044101860404603B0BDE8F08301A8FFF7AC
:10584000B5FD0124019BC8F814302030C8F8104081
:10585000002EE3D0A6F2334909EB00033B600B9B1B
:10586000C0F135001860404603B0BDE8F0839DE804
:105870000C00C0F1200103FA01F10A43C340019377
:10588000C8F81420C1E700BF31F0004310B408D0BD
:105890000F4AA3F5801494420AD804205DF8044B03
:1058A000704700280CBF022003205DF8044B7047AE
:1058B000B3F5801F01D20320F7E7064A934201D0D7
:1058C0000020F2E7D0F1010038BF0020EDE700BF73
:1058D000FFFFDF7F0000F07F38B5074C002305464F
:1058E00008462360FBF7CAFB431C00D038BD236881
:1058F000002BFBD02B6038BDF008002020F0030106
:1059000010F00300C0F1000051F8043B00F1040C5A
:105910004FEACC0C6FF000021CBF22FA0CF21343CA
:105920004FF0010C4CEA0C2C4CEA0C4CA3EB0C0293
:1059300022EA030212EACC1204BF51F8043B0430FD
:10594000F4D013F0FF0F1FBF013013F47F4F01306D
:1059500013F47F0F18BF0130704700BF2DE9F04FDF
:105960009468166883B0924680460D46002C6FD02E
:105970004FF0000B08688B685C46002C43D09C42BB
:105980001F4645D3AB8913F4906F44D06F692969E2
:1059900007EB470707EBD777C1EB0009621C7F10C5
:1059A0004A44974234BF17463A465B0535D51146FF
:1059B0004046FFF7DDF8002839D0296901904A46B2
:1059C000FFF7BAFBAA89019B22F4906242F08002A1
:1059D000AA81C9EB070203EB09006F612B61286004
:1059E000AA602746A1464A46594600F083F9DAF8EC
:1059F0000820AB682868DB1B4844141BAB60286098
:105A0000CAF8084024B3D6F800B074680836B4E782
:105A10002746A146E7E7B946E5E7404600F014FA15
:105A200003460028D5D14046296900F095F8AA8997
:105A30000C23C8F8003042F0400200234FF0FF3042
:105A4000AA81CAF80830CAF8043003B0BDE8F08F64
:105A50002046CAF8044003B0BDE8F08F10B502FB41
:105A600001F1FFF785F8044668B150F8042C22F0E4
:105A70000302043A242A18D8132A06D8034600221F
:105A80001A605A609A60204610BD00231B2A0360EA
:105A900043600FD9242A8360C36005BF036143615B
:105AA00000F1100300F11803E9E7002100F082F98A
:105AB000204610BD00F10803E1E700BFF8B5234D13
:105AC0000F460446FFF7D2FBAB685E6826F003067C
:105AD000F11B01F6EF7121F47F6121F00F01A1F5B7
