:020000040800F2
:10000000F8100020FD0400085905000859050008F3
:1000100059050008590500085905000800000000AE
:10002000000000000000000000000000590500086A
:10003000590500080000000059050008590500088E
:100040005905000859050008590500085905000818
:100050005905000859050008611B000859050008EA
:1000600059050008590500085905000859050008F8
:1000700059050008590500085905000859050008E8
:1000800059050008590500085905000859050008D8
:1000900059050008590500085905000859050008C8
:1000A00059050008590500085905000859050008B8
:1000B000590500087D1B000859050008590500086E
:1000C0005905000859050008590500085905000898
:1000D000590500085905000859050008BD1B00080E
:1000E0005905000859050008590500085905000878
:1000F0005905000859050008590500085905000868
:100100005905000859050008590500085905000857
:100110005905000859050008590500085905000847
:100120005905000859050008590500085905000837
:100130005905000859050008590500085905000827
:100140005905000859050008590500085905000817
:100150005905000859050008590500085905000807
:1001600059050008590500085905000859050008F7
:1001700059050008590500085905000859050008E7
:10018000590500085905000890B484B000AF024634
:100190000B46FA71BB710023FB60BB7903F00303CC
:1001A0009B000F2202FA03F3FB60154BBA79920809
:1001B000D2B21349B8798008C0B2023051F8200099
:1001C000F968C9430140023243F822100C4BBA7956
:1001D0009208D2B20A49B8798008C0B2023051F808
:1001E0002000FC79B97901F00301890004FA01F1DA
:1001F0000143023243F822101037BD4690BC7047CD
:100200000038014080B58AB000AF786039600023C3
:100210007B6200233B620023FB610023BB617B68A0
:100220001B8A9BB27B627B6A23F440537B623B68F0
:10023000DB887A6A13437B627B6A9AB27B681A8294
:100240007B689B899BB27B627B6A23F4B05323F06B
:100250000C037B623B689A883B681B8913439AB204
:100260003B685B8913439BB27A6A13437B627B6A68
:100270009AB27B689A817B689B8A9BB27B627B6A1D
:1002800023F440737B623B689B897A6A13437B62E9
:100290007B6A9AB27B689A8207F10803184600F0DD
:1002A00013FF7A68314B9A4203D07A68304B9A42F6
:1002B00002D17B693B6201E03B693B627B689B89C1
:1002C0009BB29BB21BB2002B0CDA3A6A13469B001E
:1002D00013449A001A443B681B685B00B2FBF3F3BB
:1002E000FB610BE03A6A13469B0013449A001A44E0
:1002F0003B681B689B00B2FBF3F3FB61FA691D4B83
:10030000A3FB02135B091B017B627B6A1B0964224E
:1003100002FB03F3FA69D31ABB617B689B899BB22A
:100320009BB21BB2002B0DDABB69DB0003F132027A
:10033000104BA3FB02135B0903F007037A6A134314
:100340007B620CE0BB691B0103F13202094BA3FB8A
:1003500002135B0903F00F037A6A13437B627B6A23
:100360009AB27B681A812837BD4680BD00100140D3
:10037000001401401F85EB5180B483B000AF78605A
:100380000B46FB70FB78002B08D07B689B899BB2E7
:1003900043F400539AB27B689A8107E07B689B899B
:1003A0009BB223F400539AB27B689A810C37BD4606
:1003B0005DF8047B704700BF80B483B000AF786005
:1003C0000B467B807B88C3F308039AB27B689A80D4
:1003D0000C37BD465DF8047B704700BF80B483B026
:1003E00000AF78607B689B889BB2C3F308039BB225
:1003F00018460C37BD465DF8047B704780B487B063
:1004000000AF786013460A467A807B7000233B6118
:100410000023FB600023BB6000237B617B687B6162
:100420007B88DBB25B09DBB23B617B8803F01F0397
:10043000FB60FB68012202FA03F3BB603B69012BFE
:1004400003D17B690C337B6109E03B69022B03D14B
:100450007B6910337B6102E07B6914337B617B78BD
:10046000002B06D07B697A691168BA680A431A6062
:1004700006E07B697A691168BA68D2430A401A605B
:100480001C37BD465DF8047B704700BF80B485B063
:1004900000AF78600B467B800023FB737B681B8872
:1004A0009AB27B8813409BB2002B02D00123FB73CE
:1004B00001E00023FB73FB7B18461437BD465DF853
:1004C000047B704780B485B000AF78600B467B80BA
:1004D0000023FB810023BB817B881B0AFB81FB89F6
:1004E000012202FA03F3BB81BB89DB439AB27B682A
:1004F0001A801437BD465DF8047B704780B582B022
:1005000000AF104B7B60104B3B6007E03B681A1D4F
:100510003A607A68111D796012681A603A680B4B6C
:100520009A42F3D30A480B494FF000028842B8BF01
:1005300040F8042BFFF6FAAF00F012F80837BD467A
:1005400080BD00BFB47C000800000020A40800208B
:10055000A4080020F808002080B400AFFEE700BF28
:1005600080B58EB000AFA24B7B634FF083433B63FB
:10057000A04BFB62A04BBB624FF00003FB604FF04F
:100580000003BB600023FB84002387F825303C2355
:100590003B623C23FB610023BB6100237B610023A2
:1005A000FB740123BB7400237B7400233B7401F0B4
:1005B00023FB00E000BF97F82530002B07D18F4BBD
:1005C0001B68FB8401F0C0F9012387F82530FB8C00
:1005D00002331A46894B1B689A4202D8002387F8D7
:1005E000253001F09DFA0346FB8001F0B3F9F86075
:1005F00001F0BCF9B860F868396B02F035FF0346CA
:10060000002B1DD0F868796B02F024FF0346002B05
:1006100016D0B868B96A02F027FF0346002B0FD046
:10062000B868F96A02F016FF0346002B08D00120D3
:1006300001F0E0F9022001F0DDF9032001F0DAF920
:10064000F868796B02F01AFF0346002B05D00120F1
:1006500001F0B8F9022001F0B5F9F868396B02F041
:10066000EFFE0346002B02D0012001F03DF9B868EF
:10067000F96A02F003FF0346002B05D0012001F0C8
:10068000A1F9022001F09EF9B868B96A02F0D8FE1B
:100690000346002B02D0032001F094F9BB7C012B10
:1006A00017D1012001F0BEF97B7C002B04D1534B04
:1006B0001B687B6101237B747A693B6A1A444F4B48
:1006C0001B689A4205D80123FB740023BB740023E6
:1006D0007B74FB7C012B17D1002001F0A3F93B7C3C
:1006E000002B04D1454B1B68BB6101233B74BA69E5
:1006F000FB691A44414B1B689A4205D80023FB74DE
:100700000123BB7400233B74FB88B3F5FA6F09D255
:10071000BB7C012B03D1022001F0E6F802E00220AD
:1007200001F0FAF8364B1B78012B5FD1344B0022D5
:100730001A70012001F08EF9324B00221A7000F07D
:100740009FF80346BB80BB88002B4FD02E4B1B78F5
:10075000323B062B3FF62EAF01A252F823F000BF2A
:100760007D0700088B07000899070008A707000805
:10077000B5070008C3070008D1070008BB88184662
:1007800002F068FC03463B6330E0BB88184602F089
:1007900061FC03467B6329E0BB88184602F05AFCE3
:1007A0000346BB6222E0BB88184602F053FC0346B6
:1007B000FB621BE0BB884FF4616202FB03F33B6208
:1007C00014E0BB884FF4616202FB03F3FB610DE0B0
:1007D0004FF083433B63064B7B63064BBB62064B88
:1007E000FB623C233B623C23FB6100BFE2E600BFAF
:1007F0000000C8410000A04200007042A408002090
:10080000A9080020A8080020E808002080B483B0D0
:1008100000AF0346FB80054BFA881A80044B012287
:100820001A700C37BD465DF8047B7047EA0800205B
:10083000A808002080B400AF094B1B785A1CD1B225
:10084000074A1170642B07D9064B1B685A1C054BCD
:100850001A60034B00221A70BD465DF8047B704796
:10086000AA080020A408002080B400AF034B012296
:100870001A70BD465DF8047B704700BFA9080020D0
:10088000B0B592B000AF00237B6001F0F9F8386496
:1008900001F06CF8F86307F10802AC4B14461D46F2
:1008A0000FCD0FC40FCD0FC42B681A46228002341F
:1008B0001B0C237007F10803184601F063F807F1D9
:1008C0000802A34B14461D460FCD0FC40FCD0FC415
:1008D0002B681A46228002341B0C237007F1080390
:1008E000184601F04FF807F108029A4B14461D46CE
:1008F0000FCD0FC40FCD0FC42B68237007F1080371
:10090000184601F03FF807F10802934B14461D46C4
:100910000FCD0FC495E80F0084E80F0007F108031E
:10092000184601F02FF807F108028C4B14461D46BB
:100930000FCD0FC495E8070084E8070007F108030E
:10094000184601F01FF807F10802854B14461D46B2
:100950000FCD0FC495E8070084E8070007F10803EE
:10096000184601F00FF807F108027E4B14461D46A9
:100970000FCD0FC40FCD0FC495E8030084E803002A
:1009800007F10803184600F0FDFF07F10802764B57
:1009900014461D460FCD0FC40FCD0FC495E80300BC
:1009A00020600434218007F10803184600F0EAFFB4
:1009B00007F108026D4B14461D460FCD0FC495E894
:1009C000070084E8070007F10803184600F0DAFF83
:1009D000674B1B687B8707E07A8F654B1B68143376
:1009E0009A4201D3002352E3624B1B78002BF3D0D1
:1009F000614B1B88DAB2614B1A70604B1B78313B3C
:100A0000072B00F22C8301A151F823F02D0A0008D6
:100A1000750A0008950B00086D0C0008310D0008E0
:100A2000F50D0008F90E0008D30F0008386C01F02E
:100A3000A5FF02460B4607F108010846504902F09F
:100A400027FD07F10803184600F09CFFF86B01F042
:100A500095FF02460B4607F108010846494902F096
:100A600017FD07F10803184600F08CFF0223A7F8D2
:100A700046300AE307F10802434B14461D460FCDEA
:100A80000FC40FCD0FC495E8070003C4228007F1FF
:100A90000803184600F076FF07F108023B4B1446A6
:100AA0001D460FCD0FC40FCD0FC495E80300206085
:100AB0000434218002340B0C237007F1080318461C
:100AC00000F060FF2A4B1B687B87002387F84530C6
:100AD0001BE007E07A8F264B1B6814339A4201D340
:100AE0000023D4E2234B1B78002BF3D097F845303A
:100AF000214A1288D2B207F148010B4403F8442C72
:100B000097F84530013387F8453097F84530012B89
:100B1000DFD93B79303B9BB21A46920013445B000D
:100B20009AB27B7913449BB2303BA7F84630B7F8B2
:100B3000463007F10802104615491A4602F0A8FC93
:100B400007F10803184600F01DFF9EE2F876000842
:100B50001C77000840770008647700088477000855
:100B6000A0770008BC770008E47700080C7800083C
:100B7000A4080020A8080020EA080020E8080020B7
:100B8000287800084478000858780008847800081D
:100B9000AC78000807F10802AD4B14461D460FCD96
:100BA0000FC40FCD0FC495E8070003C4228007F1DE
:100BB0000803184600F0E6FE07F10802A54B1446AC
:100BC0001D460FCD0FC40FCD0FC495E80300206064
:100BD0000434218002340B0C237007F108031846FB
:100BE00000F0D0FE9C4B1B687B87002387F84530C4
:100BF0001BE007E07A8F984B1B6814339A4201D3AD
:100C0000002344E2954B1B78002BF3D097F8453036
:100C1000934A1288D2B207F148010B4403F8442CDE
:100C200097F84530013387F8453097F84530012B68
:100C3000DFD93B79303B9BB21A46920013445B00EC
:100C40009AB27B7913449BB2303BA7F84630B7F891
:100C5000463007F10802104682491A4602F018FC95
:100C600007F10803184600F08DFE0EE207F10802B6
:100C70007D4B14461D460FCD0FC40FCD0FC495E814
:100C8000030020600434218007F10803184600F0B7
:100C900079FE07F108031846744902F0F9FB07F1E1
:100CA0000803184600F06EFE6B4B1B687B87002321
:100CB00087F845301BE007E07A8F674B1B681433D9
:100CC0009A4201D30023E2E1644B1B78002BF3D05E
:100CD00097F84530624A1288D2B207F148010B44B6
:100CE00003F8442C97F84530013387F8453097F8DE
:100CF0004530012BDFD93B79303B9BB21A4692003D
:100D000013445B009AB27B7913449BB2303BA7F843
:100D10004630B7F8463007F10802104651491A46E6
:100D200002F0B6FB07F10803184600F02BFEACE119
:100D300007F108024E4B14461D460FCD0FC40FCDD0
:100D40000FC495E8030020600434218007F10803F4
:100D5000184600F017FE07F108031846454902F04F
:100D600097FB07F10803184600F00CFE3A4B1B688E
:100D70007B87002387F845301BE007E07A8F364BEE
:100D80001B6814339A4201D3002380E1334B1B7854
:100D9000002BF3D097F84530314A1288D2B207F1D0
:100DA00048010B4403F8442C97F84530013387F889
:100DB000453097F84530012BDFD93B79303B9BB26A
:100DC0001A46920013445B009AB27B7913449BB29B
:100DD000303BA7F84630B7F8463007F10802104616
:100DE00020491A4602F054FB07F10803184600F0A8
:100DF000C9FD4AE107F108021F4B14461D460FCDFD
:100E00000FC40FCD0FC495E8070003C4228007F17B
:100E10000803184600F0B6FD07F10802174B144608
:100E20001D460FCD0FC40FCD0FC495E80300206001
:100E30000434217007F10803184600F0A3FD064BA7
:100E40001B687B87002387F8453034E020E000BF33
:100E5000C8780008F4780008A4080020A80800203A
:100E6000EA080020AC7800081C79000844790008E2
:100E70006C79000894790008BC790008E8790008CA
:100E80007A8F854B1B6814339A4201D30023FEE00E
:100E9000824B1B78002BF3D097F84530804A12889C
:100EA000D2B207F148010B4403F8442C97F84530BF
:100EB000013387F8453097F84530012BC6D93B7987
:100EC000303B9BB21A46920013445B009AB27B7986
:100ED00013449BB2303BA7F84630B7F8463007F1D1
:100EE000080210466F491A4602F0D2FA07F10803C9
:100EF000184600F047FDC8E007F108026A4B1446A7
:100F00001D460FCD0FC40FCD0FC495E80300206020
:100F10000434218002340B0C237007F108031846B7
:100F200000F030FD07F10802604B14461D460FCD5E
:100F30000FC40FCD0FC495E8030020600434217066
:100F400007F10803184600F01DFD534B1B687B8713
:100F5000002387F845301BE007E07A8F4E4B1B6873
:100F600014339A4201D3002391E04C4B1B78002BA1
:100F7000F3D097F845304A4A1288D2B207F14801B7
:100F80000B4403F8442C97F84530013387F845307B
:100F900097F84530012BDFD93B79303B9BB21A469D
:100FA000920013445B009AB27B7913449BB2303BAE
:100FB000A7F84630B7F8463007F10802104639491D
:100FC0001A4602F065FA07F10803184600F0DAFC49
:100FD0005BE007F10802364B14461D460FCD0FC4E7
:100FE0000FCD0FC495E8070003C4227007F1080372
:100FF000184600F0C7FC07F1080318462D491022D7
:10100000192302F045FA07F10803184600F0BAFC6C
:1010100007F108031846284950223C2302F038FA09
:1010200007F10803184600F0ADFC07F10803184665
:1010300022493C2202F02CFA07F10803184600F07E
:10104000A1FC07F1080318461D493C2202F020FAD2
:1010500007F10803184600F095FC012317E007F19B
:101060000802184B14461D460FCD0FC40FCD0FC4F8
:1010700095E80F0007C4238002341B0C237007F18E
:101080000803184600F07EFC00BFB7F8463018464B
:101090004837BD46B0BD00BFA4080020A808002006
:1010A000EA080020AC780008107A0008E879000807
:1010B000387A0008647A0008847A0008A07A000868
:1010C000C87A0008EC7A000880B489B000AF786074
:1010D0000023BB6100237B610023FB6102233B6192
:1010E0000023FB600223BB60484B9B6803F00C03AA
:1010F000BB61BB69042B07D0082B09D0002B3FD163
:101100007B68434A1A603FE07B68424A1A603BE0D2
:101110003E4B5B6803F480039B0DFB603B4B5B68BD
:1011200003F03F03BB60FB68002B0DD0394ABB685E
:10113000B2FBF3F2354B596847F6C0730B409B097D
:1011400003FB02F3FB610CE0314ABB68B2FBF3F234
:101150002E4B596847F6C0730B409B0903FB02F303
:10116000FB612A4B5B6803F440331B0C01335B00CB
:101170003B61FA693B69B2FBF3F27B681A6003E0FA
:101180007B68234A1A6000BF204B9B6803F0F00382
:10119000BB61BB691B09BB611F4ABB6913441B7858
:1011A000DBB27B617B681A687B69DA407B685A60D6
:1011B000164B9B6803F4E053BB61BB699B0ABB61A0
:1011C000154ABB6913441B78DBB27B617B685A68A4
:1011D0007B69DA407B689A600C4B9B6803F4604340
:1011E000BB61BB695B0BBB610B4ABB6913441B78DA
:1011F000DBB27B617B685A687B69DA407B68DA60C6
:101200002437BD465DF8047B704700BF00380240BC
:101210000024F40040787D010000002080B483B0F9
:1012200000AF78600B46FB70FB78002B06D0094BB3
:10123000084A116B7A680A431A6306E0054B054AAF
:10124000116B7A68D2430A401A630C37BD465DF8C9
:10125000047B70470038024080B483B000AF7860F0
:101260000B46FB70FB78002B06D0094B084A116C2B
:101270007A680A431A6406E0054B054A116C7A68DD
:10128000D2430A401A640C37BD465DF8047B7047B0
:101290000038024080B483B000AF78600B46FB702A
:1012A000FB78002B06D0094B084A516C7A680A4338
:1012B0005A6406E0054B054A516C7A68D2430A40ED
:1012C0005A640C37BD465DF8047B70470038024015
:1012D00080B485B000AF786039600023FB600023E4
:1012E000FB727B685B68FB60FB6823F0407323F450
:1012F0008073FB603B681B791A023B681B681343D1
:10130000FA681343FB607B68FA685A607B689B68E5
:10131000FB60FA68174B1340FB603B681A693B6837
:10132000DB681A433B689B681A433B685B795B0048
:101330001343FA681343FB607B68FA689A607B6822
:10134000DB6AFB60FB6823F47003FB603B681B7D7A
:10135000013BDAB2FB7A1343FB72FB7A1B05FA6896
:101360001343FB607B68FA68DA621437BD465DF8A8
:10137000047B7047FDF7FFC080B483B000AF786096
:101380007B6800221A607B6800221A717B68002249
:101390005A717B6800229A607B680022DA607B6861
:1013A00000221A617B6801221A750C37BD465DF870
:1013B000047B704780B485B000AF78600023FB6089
:1013C0000E4B5B68FB60FA680D4B1340FB607B685B
:1013D0001A687B685B681A437B689B681A437B6862
:1013E000DB681343FA681343FB60044BFA685A60E6
:1013F0001437BD465DF8047B704700BF00230140F1
:10140000E030FCFF80B483B000AF78607B680022DE
:101410001A607B6800225A607B6800229A607B68B1
:101420000022DA600C37BD465DF8047B704700BFD0
:1014300080B483B000AF78600B46FB70FB78002B64
:1014400006D07B689B6843F001027B689A6005E0E8
:101450007B689B6823F001027B689A600C37BD466D
:101460005DF8047B704700BF80B485B000AF786042
:10147000F970BA707B700023FB600023BB60FB78BF
:10148000092B23D97B68DB68FB60FB78A3F10A0298
:1014900013465B001344072202FA03F3BB60BB68E8
:1014A000DB43FA681340FB607978FB78A3F10A020A
:1014B00013465B00134401FA03F3BB60FA68BB6890
:1014C0001343FB607B68FA68DA601EE07B681B6987
:1014D000FB60FA7813465B001344072202FA03F319
:1014E000BB60BB68DB43FA681340FB607978FA782D
:1014F00013465B00134401FA03F3BB60FA68BB6850
:101500001343FB607B68FA681A61BB78062B21D80D
:101510007B685B6BFB60BB785A1E13469B001344D1
:101520001F2202FA03F3BB60BB68DB43FA68134077
:10153000FB60F978BB785A1E13469B00134401FAEE
:1015400003F3BB60FA68BB681343FB607B68FA680F
:101550005A6347E0BB780C2B21D87B681B6BFB6080
:10156000BB78DA1F13469B0013441F2202FA03F3D1
:10157000BB60BB68DB43FA681340FB60F978BB785B
:10158000DA1F13469B00134401FA03F3BB60FA68A9
:10159000BB681343FB607B68FA681A6322E07B68D0
:1015A000DB6AFB60BB78A3F10D0213469B0013447A
:1015B0001F2202FA03F3BB60BB68DB43FA681340E7
:1015C000FB60F978BB78A3F10D0213469B0013442E
:1015D00001FA03F3BB60FA68BB681343FB607B68E6
:1015E000FA68DA621437BD465DF8047B704700BFC5
:1015F00080B483B000AF78607B689B6843F0804222
:101600007B689A600C37BD465DF8047B704700BF6D
:1016100080B483B000AF78607B68DB6C9BB2184607
:101620000C37BD465DF8047B704700BF80B485B0C1
:1016300000AF78600B46FB700023FB737B681A6871
:10164000FB781340002B02D00123FB7301E0002341
:10165000FB73FB7B18461437BD465DF8047B70476F
:1016600080B487B000AF7860396000237B610023CD
:101670003B610023FB6000237B6176E07B690122F4
:1016800002FA03F33B613B681A683B691340FB6055
:10169000FA683B699A4265D17B681A687B695B008E
:1016A000032101FA03F3DB431A407B681A607B686D
:1016B0001A683B681B7919467B695B0001FA03F3E2
:1016C0001A437B681A603B681B79012B03D03B6887
:1016D0001B79022B2ED17B689A687B695B00032102
:1016E00001FA03F3DB431A407B689A607B689A68CF
:1016F0003B685B7919467B695B0001FA03F31A4387
:101700007B689A607B685A687B699BB2012101FA09
:1017100003F3DB431A407B685A607B685A683B6876
:101720009B7919467B699BB201FA03F39BB21A437A
:101730007B685A607B68DA687B699BB25B00032137
:1017400001FA03F3DB431A407B68DA607B68DA68EE
:101750003B68DB7919467B695B0001FA03F31A43A6
:101760007B68DA607B6901337B617B690F2B85D9EC
:101770001C37BD465DF8047B704700BF80B483B062
:1017800000AF78607B684FF6FF721A607B680022BA
:101790001A717B6800225A717B6800229A717B68FB
:1017A0000022DA710C37BD465DF8047B704700BF3C
:1017B00080B485B000AF78600B467B800023FB735C
:1017C0007B681A697B881340002B02D00123FB73CE
:1017D00001E00023FB73FB7B18461437BD465DF820
:1017E000047B704780B483B000AF78600B467B8089
:1017F0007B687A881A830C37BD465DF8047B704796
:1018000080B483B000AF78600B467B807B687A88B9
:101810005A830C37BD465DF8047B704780B485B0B1
:1018200000AF786013460A467A807B700023FB6025
:101830000023BB607A787B8803F007039B0002FAE1
:1018400003F3FB607B88DB089BB21A467B88DB08CE
:101850009BB219467B68083153F821107B8803F04E
:1018600007039B000F2000FA03F3DB4319407B685A
:10187000083243F822107B88DB089BB21A467B684B
:10188000083253F82220FB681343BB607B88DB08D7
:101890009BB21A467B680832B96843F822101437A5
:1018A000BD465DF8047B704780B485B000AF7860BA
:1018B0000B4B1B68002B02D1094B0A4A1A60084BDC
:1018C0001B68FB60064B1A687B681A44044B1A605D
:1018D000FB6818461437BD465DF8047B704700BFAF
:1018E000AC080020F808002080B582B000AF0346A5
:1018F000FB71FA79064B53F82220F979054B33F83E
:10190000113010461946FFF76DFF0837BD4680BD00
:10191000100000201C7B000880B582B000AF034699
:10192000FB71FA79064B53F82220F979054B33F80D
:10193000113010461946FFF763FF0837BD4680BDDA
:10194000100000201C7B000880B500AF00F014FCE4
:1019500080BD00BF80B582B000AF00F0ABFC786006
:101960007B6818460837BD4680BD00BF80B582B091
:1019700000AF00F0D7FC78607B6818460837BD469A
:1019800080BD00BF80B582B000AF786010E000BFBE
:101990000B488021FEF77AFD0346002BF8D07B68C8
:1019A0001B7807481946FEF707FD7B6801337B600B
:1019B0007B681B78002BEAD10837BD4680BD00BF8D
:1019C0000048004080B582B000AF0346FB71FA7951
:1019D000064B53F82220F979054B33F811301046A5
:1019E0001946FFF7FFFE0837BD4680BD20000020E6
:1019F000247B000880B582B000AF0346FB71FA7902
:101A0000064B53F82220F979054B33F81130104674
:101A10001946FFF7F5FE0837BD4680BD20000020BF
:101A2000247B000880B582B000AF0346FB71FB79D0
:101A3000012B05D106484FF40061FFF7D3FE04E007
:101A400003484FF40061FFF7DBFE0837BD4680BD59
:101A5000000C024080B483B000AF0346FB80074B0C
:101A6000FA881A8000BF054B1B889BB2002BFAD165
:101A70000C37BD465DF8047B704700BFB0080020FE
:101A800090B585B000AF224BFB60224803210122B4
:101A90000123FFF7E9FC1F48FFF7AAFD00BF1D481F
:101AA0000221FFF7C3FD0346012BF8D11948FFF7C8
:101AB000AFFD03467B817B89184601F0CBFA0446D3
:101AC000F868154901F0D2FB03462046194601F09B
:101AD00019FB03467B60786800F050FF02460B4616
:101AE0001046194608A3D3E9002301F0C5F80246C1
:101AF0000B461046194601F0A7F903463B603B68C8
:101B000018461437BD4690BD4C37894160E5B03F5B
:101B1000333353400020014000F07F45AFF3008095
:101B200080B582B000AF0D480C2101220123FFF7E0
:101B30009BFC0A48FFF75CFD00BF08480221FFF745
:101B400075FD0346012BF8D10448FFF761FD0346FC
:101B5000FB80FB8818460837BD4680BD0021014048
:101B600080B500AF012000F0A3FA0346002B04D09B
:101B7000012000F08FFAFEF777FE80BD80B500AF40
:101B80000C48012100F05CFD0346002B11D00948F0
:101B9000012100F07FFDFEF74DFE074B1B889BB235
:101BA000002B06D0044B1B889BB2013B9AB2024B20
:101BB0001A8080BD00040040B008002080B582B0CB
:101BC00000AF0C482021FEF761FC0346002B0ED02D
:101BD000084840F22551FEF775FC0648FEF7FEFB6B
:101BE0000346FB80FB88DBB21846FEF70FFE083782
:101BF000BD4680BD0048004080B500AF00F014F83D
:101C000000F02EF800F048F800F09CF800F060F8C2
:101C100000F0FAF800F038F900F076F900F0A4F9D5
:101C200000F09AFA80BD00BF80B582B000AF0820F6
:101C30000121FFF7F3FA0F233B6001233B710223DD
:101C40007B710023BB710023FB713B46034819469F
:101C5000FFF706FD0837BD4680BD00BF000C0240FF
:101C600080B582B000AF04200121FFF7D7FA4FF40E
:101C700096433B6001233B7102237B710023BB71C0
:101C80000023FB713B4603481946FFF7E9FC083780
:101C9000BD4680BD0008024080B582B000AF08207C
:101CA0000121FFF7BBFA4FF400633B6001233B7156
:101CB00002237B710023BB710023FB713B46034869
:101CC0001946FFF7CDFC0837BD4680BD000C024029
:101CD00080B586B000AF01200121FFF79FFA0123F4
:101CE0003B6100233B7502237B750023BB750223F8
:101CF000FB7507F1100312481946FFF7B1FC0020ED
:101D00000021FEF741FA01237B6000233B72082388
:101D10007B720123BB723B1D184600F04DF9062370
:101D20003B7301237B730123BB730123FB7307F117
:101D30000C03184600F022FB1837BD4680BD00BFDB
:101D40000000024080B588B000AF08200121FFF7F5
:101D500065FA4FF480200121FFF77EFA0023BB7360
:101D60000123FB7302233B734FF48073BB60022398
:101D70007B7307F1080322481946FFF771FC2048DE
:101D800008210722FFF74AFD02233B734FF400733B
:101D9000BB6007F108031A481946FFF761FC1848B1
:101DA00009210722FFF73AFD4FF4E1333B6100239D
:101DB000BB820023FB8200233B830023BB830C23D5
:101DC0007B8307F110030F481946FEF71BFA0D48F5
:101DD0000121FEF7D1FA0B4840F225510122FEF70E
:101DE0000DFB27233B7100237B710023BB71012373
:101DF000FB713B1D184600F0C1FA2037BD4680BD7F
:101E0000000C02400048004080B58CB000AF4FF499
:101E100080700121FFF73EFA01200121FFF7FEF952
:101E200007F128031846FFF7A9FC0823BB62032328
:101E300087F82C3007F1280311481946FFF710FCEA
:101E400007F118031846FFF7DDFA4FF48033FB6102
:101E500007F118031846FFF7ADFA3B461846FFF79F
:101E60008BFA00233B603B4606481946FFF730FAE1
:101E700004480121FFF7DCFA3037BD4680BD00BFC2
:101E8000000002400020014080B58CB000AF4FF44C
:101E900000700121FFF7FEF901200121FFF7BEF9D3
:101EA00007F128031846FFF769FC0423BB620323EC
:101EB00087F82C3007F1280311481946FFF7D0FBAB
:101EC00007F118031846FFF79DFA4FF48033FB61C2
:101ED00007F118031846FFF76DFA3B461846FFF75F
:101EE0004BFA00233B603B4606481946FFF7F0F9E2
:101EF00004480121FFF79CFA3037BD4680BD00BF82
:101F0000000002400021014080B584B000AF1D23D5
:101F10003B7000237B700123BB700123FB703B46A9
:101F2000184600F02BFA02200121FFF795F942F242
:101F30001073BB600F23BB800023BB810023FB8099
:101F40003B1D0848194600F077FA06480121012296
:101F500000F052FB0348012100F00CFB1037BD4696
:101F600080BD00BF0004004080B588B000AF0120F4
:101F70000121FFF771F907F11403184600F0C6FAC2
:101F80003B46184600F016FB4FF6FE73BB610F236D
:101F9000BB820023BB830023FB8207F114034FF0B5
:101FA0008040194600F048FA4FF08040012100F0CF
:101FB000E1FA2037BD4680BD80B485B000AF7860BF
:101FC0000023FB60324BFB607B689B79002B4DD07C
:101FD0002F4B2F4A11687A681268D2430A401A6060
:101FE0002B4B2B4A51687A681268D2430A405A60D8
:101FF0007B681B79FA681344FB60FB68FA68116818
:102000007A6812680A431A60214B214A91687A68FB
:102010001268D2430A409A601D4B1D4AD1687A6803
:102020001268D2430A40DA607B685B79102B0ED1CC
:10203000174B174A91687A6812680A439A60144BE2
:10204000134AD1687A6812680A43DA601BE0104BC1
:10205000FB607B685B79FA681344FB60FB68FA6895
:1020600011687A6812680A431A600CE07B681B7971
:10207000FA681344FB60FB68FA6811687A681268B2
:10208000D2430A401A601437BD465DF8047B70479E
:10209000003C014080B483B000AF7860034B7A68A5
:1020A0005A610C37BD465DF8047B7047003C014027
:1020B00080B485B000AF78600023FB730023BB6061
:1020C0000C4B1A687B681340BB600A4B5A697B68EB
:1020D0001340002B05D0BB68002B02D00123FB73FB
:1020E00001E00023FB73FB7B18461437BD465DF807
:1020F000047B7047003C014080B582B000AF4FF4D4
:1021000080633B6002237B7100233B710023BB7122
:102110000123FB713B4603481946FFF7A1FA083734
:10212000BD4680BD0008024080B582B000AF4FF4CC
:1021300080633B6002237B7101233B710023BB71F1
:102140000123FB713B4603481946FFF789FA08371C
:10215000BD4680BD0008024080B500AF04200121CB
:10216000FFF75CF8FFF7E0FF02484FF48061FFF7EC
:1021700039FB80BD0008024080B582B000AF00236B
:10218000FB710723BB7100237B7100233B7100238C
:102190003B6000233B7106E03B79444A0021D15467
:1021A0003B7901333B713B79052BF5D9FFF7BCFF38
:1021B0003F484FF48061FFF723FB4FF08040002140
:1021C00000F0BEF900BF4FF0804000F0C7F90246B2
:1021D00044F61F639A42F6D9FFF78EFF00BF3448DA
:1021E0004FF48061FFF7E4FA0346002BF7D100BFFC
:1021F0002F484FF48061FFF7DBFA0346002BF7D03E
:1022000000BF2B484FF48061FFF7D2FA0346002B42
:10221000F7D10023FB7142E04FF08040002100F035
:102220008FF900BF22484FF48061FFF7C1FA0346DF
:10223000002BF7D04FF0804000F090F9386000BFDD
:102240001B484FF48061FFF7B3FA0346002BF7D128
:102250004FF0804000F082F902463B68D31A282BE9
:102260000ED97B797A7911498A5CD1B2BA79012089
:1022700000FA02F2D2B20A43D2B2D1B20B4AD1541E
:10228000BB79002B05D10723BB717B7901337B71AF
:1022900002E0BB79013BBB71FB790133FB71FB7938
:1022A000272BB9D90837BD4680BD00BFEC080020F8
:1022B0000008024080B582B000AF184B9B7803F055
:1022C0007F03184600F0CAFE03467B6078684FF033
:1022D000874100F017FF03467B60104BDB78184600
:1022E00000F0BCFE03467868194600F003FE034682
:1022F0007B6078680A4900F0B9FF03467B60074BB2
:102300009B78DBB25BB2002B03DA7B6883F000437F
:102310007B607B6818460837BD4680BDEC0800200E
:102320000000204180B582B000AF124B1B781846E8
:1023300000F090FE03467B6078684FF0874100F024
:10234000E1FE03467B600B4B5B78184600F086FE8F
:1023500003467868194600F0CDFD03467B60786837
:10236000054900F083FF03467B607B681846083709
:10237000BD4680BDEC0800200000204180B485B03F
:1023800000AF78600023FB730023BB730F237B73C4
:102390007B68DB78002B37D0254BDB68DB4303F40D
:1023A000E0631B0AFB73FB7BC3F10403BB737A7B03
:1023B000FB7B42FA03F37B737B685B781A46BB7B3B
:1023C00002FA03F3FB737B689A787B7B1340DAB2E3
:1023D000FB7B1343FB73FB7B1B01FB73154A7B6881
:1023E0001B781344FA7B83F80023124B7A68127827
:1023F0005209D2B27968097801F01F01012000FA70
:1024000001F143F822100EE00A4B7A681278520963
:10241000D2B27968097801F01F01012000FA01F1B8
:10242000203243F822101437BD465DF8047B704714
:1024300000ED00E000E100E080B485B000AF78601E
:1024400039600023FB817B681B88FB817A68284BFD
:102450009A4213D07A68274B9A420FD07B68B3F127
:10246000804F0BD07A68244B9A4207D07A68234B6E
:102470009A4203D07A68224B9A4208D1FB8923F012
:102480007003FB813B685A88FB891343FB817A68A0
:102490001C4B9A420CD07A681B4B9A4208D0FB899D
:1024A00023F44073FB813B681A89FB891343FB814A
:1024B0007B68FA891A803B685A687B68DA623B68F5
:1024C0001A887B681A857A68094B9A4203D07A6821
:1024D000084B9A4204D13B689B7A1A467B681A865D
:1024E0007B6801229A821437BD465DF8047B7047F1
:1024F00000000140000401400004004000080040CA
:10250000000C0040001000400014004080B483B074
:1025100000AF78607B684FF0FF325A607B68002222
:102520001A807B6800221A817B6800225A807B68AF
:1025300000229A720C37BD465DF8047B704700BFDD
:1025400080B483B000AF786039607B683A685A62C3
:102550000C37BD465DF8047B704700BF80B483B084
:1025600000AF78607B685B6A18460C37BD465DF843
:10257000047B704780B483B000AF78600B46FB707B
:10258000FB78002B08D07B681B889BB243F00103CB
:102590009AB27B681A8007E07B681B889BB223F0A5
:1025A00001039AB27B681A800C37BD465DF8047B44
:1025B000704700BF80B483B000AF78607B680022B2
:1025C0001A807B6800225A807B6800229A807B6890
:1025D00000229A607B6800229A817B680022DA815F
:1025E0007B6800221A827B6800225A820C37BD4623
:1025F0005DF8047B704700BF80B483B000AF7860A3
:1026000013460A467A807B707B78002B08D07B6863
:102610009B899AB27B8813439AB27B689A8109E0BE
:102620007B689B899AB27B88DB439BB213409AB24A
:102630007B689A810C37BD465DF8047B704700BF0C
:1026400080B485B000AF78600B467B800023FB73BD
:102650000023BB8100237B817B681B8A9AB27B8825
:102660001340BB817B689B899AB27B8813407B8136
:10267000BB89002B05D07B89002B02D00123FB7383
:1026800001E00023FB73FB7B18461437BD465DF861
:10269000047B704780B483B000AF78600B467B80CA
:1026A0007B88DB439AB27B681A820C37BD465DF8A3
:1026B000047B704781F0004102E000BF83F00043DB
:1026C00030B54FEA41044FEA430594EA050F08BFCD
:1026D00090EA020F1FBF54EA000C55EA020C7FEA91
:1026E000645C7FEA655C00F0E2804FEA5454D4EB0E
:1026F0005555B8BF6D420CDD2C4480EA020281EAD8
:10270000030382EA000083EA010180EA020281EA0F
:102710000303362D88BF30BD11F0004F4FEA013161
:102720004FF4801C4CEA113102D0404261EB410170
:1027300013F0004F4FEA03334CEA133302D05242F6
:1027400063EB430394EA050F00F0A780A4F10104B2
:10275000D5F1200E0DDB02FA0EFC22FA05F28018EC
:1027600041F1000103FA0EF2801843FA05F35941D2
:102770000EE0A5F120050EF1200E012A03FA0EFC51
:1027800028BF4CF0020C43FA05F3C01851EBE3717B
:1027900001F0004507D54FF0000EDCF1000C7EEB98
:1027A00000006EEB0101B1F5801F1BD3B1F5001FD6
:1027B0000CD349085FEA30004FEA3C0C04F10104F5
:1027C0004FEA445212F5800F80F09A80BCF1004F1E
:1027D00008BF5FEA500C50F1000041EB045141EAA0
:1027E000050130BD5FEA4C0C404141EB010111F4A1
:1027F000801FA4F10104E9D191F0000F04BF01464C
:102800000020B1FA81F308BF2033A3F10B03B3F129
:1028100020020CDA0C3208DD02F1140CC2F10C02B9
:1028200001FA0CF021FA02F10CE002F11402D8BF17
:10283000C2F1200C01FA02F120FA0CFCDCBF41EAE3
:102840000C019040E41AA2BF01EB0451294330BDB2
:102850006FEA04041F3C1CDA0C340EDC04F114048F
:10286000C4F1200220FA04F001FA02F340EA030066
:1028700021FA04F345EA030130BDC4F10C04C4F1AC
:10288000200220FA02F001FA04F340EA030029468C
:1028900030BD21FA04F0294630BD94F0000F83F4D6
:1028A000801306BF81F480110134013D4EE77FEAB9
:1028B000645C18BF7FEA655C29D094EA050F08BF05
:1028C00090EA020F05D054EA000C04BF19461046E6
:1028D00030BD91EA030F1EBF0021002030BD5FEA2A
:1028E000545C05D14000494128BF41F0004130BD52
:1028F00014F580043CBF01F5801130BD01F00045A6
:1029000045F0FE4141F470014FF0000030BD7FEA18
:10291000645C1ABF194610467FEA655C1CBF0B4613
:10292000024650EA013406BF52EA033591EA030F2A
:1029300041F4002130BD00BF90F0000F04BF002122
:10294000704730B54FF4806404F132044FF0000555
:102950004FF0000150E700BF90F0000F04BF0021CE
:10296000704730B54FF4806404F1320410F0004534
:1029700048BF40424FF000013EE700BF42004FEA2F
:10298000E2014FEA31014FEA02701FBF12F07F43AC
:1029900093F07F4F81F06051704792F0000F14BFA9
:1029A00093F07F4F704730B54FF4607401F00045ED
:1029B00021F0004120E700BF50EA010208BF704744
:1029C00030B54FF000050AE050EA010208BF704739
:1029D00030B511F0004502D5404261EB41014FF4A2
:1029E000806404F132045FEA915C3FF4DCAE4FF0A6
:1029F00003025FEADC0C18BF03325FEADC0C18BF8D
:102A0000033202EBDC02C2F1200300FA03FC20FADD
:102A100002F001FA03FE40EA0E0021FA02F114442A
:102A2000C1E600BF70B54FF0FF0C4CF4E06C1CEA3F
:102A300011541DBF1CEA135594EA0C0F95EA0C0FB4
:102A400000F0DEF82C4481EA030621EA4C5123EA27
:102A50004C5350EA013518BF52EA033541F4801156
:102A600043F4801338D0A0FB02CE4FF00005E1FB09
:102A700002E506F00042E0FB03E54FF00006E1FB53
:102A800003569CF0000F18BF4EF0010EA4F1FF0496
:102A9000B6F5007F64F5407404D25FEA4E0E6D41D6
:102AA00046EB060642EAC62141EA55514FEAC520E7
:102AB00040EA5E504FEACE2EB4F1FD0C88BFBCF563
:102AC000E06F1ED8BEF1004F08BF5FEA500E50F114
:102AD000000041EB045170BD06F0004646EA0101DA
:102AE00040EA020081EA0301B4EB5C04C2BFD4EB0C
:102AF0000C0541EA045170BD41F480114FF0000E05
:102B0000013C00F3AB8014F1360FDEBF002001F072
:102B1000004170BDC4F10004203C35DA0C341BDCEC
:102B200004F11404C4F1200500FA05F320FA04F0BE
:102B300001FA05F240EA020001F0004221F00041F2
:102B400010EBD37021FA04F642EB06015EEA430E65
:102B500008BF20EAD37070BDC4F10C04C4F1200595
:102B600000FA04F320FA05F001FA04F240EA020048
:102B700001F0004110EBD37041F100015EEA430E19
:102B800008BF20EAD37070BDC4F1200500FA05F239
:102B90004EEA020E20FA04F301FA05F243EA0203B8
:102BA00021FA04F001F0004121FA04F220EA0200C7
:102BB00000EBD3705EEA430E08BF20EAD37070BD0D
:102BC00094F0000F0FD101F00046400041EB0101ED
:102BD00011F4801F08BF013CF7D041EA060195F0CF
:102BE000000F18BF704703F00046520043EB030389
:102BF00013F4801F08BF013DF7D043EA0603704776
:102C000094EA0C0F0CEA135518BF95EA0C0F0CD080
:102C100050EA410618BF52EA4306D1D181EA0301C6
:102C200001F000414FF0000070BD50EA410606BFC0
:102C30001046194652EA430619D094EA0C0F02D105
:102C400050EA013613D195EA0C0F05D152EA03364A
:102C50001CBF104619460AD181EA030101F0004168
:102C600041F0FE4141F470014FF0000070BD41F0B1
:102C7000FE4141F4780170BD70B54FF0FF0C4CF48B
:102C8000E06C1CEA11541DBF1CEA135594EA0C0FAA
:102C900095EA0C0F00F0A7F8A4EB050481EA030EF7
:102CA00052EA03354FEA013100F088804FEA0333DE
:102CB0004FF0805545EA131343EA12634FEA0222AC
:102CC00045EA111545EA10654FEA00260EF000416D
:102CD0009D4208BF964244F1FD0404F5407402D2BF
:102CE0005B084FEA3202B61A65EB03055B084FEA50
:102CF00032024FF480104FF4002CB6EB020E75EB4D
:102D0000030E22BFB61A754640EA0C005B084FEA74
:102D10003202B6EB020E75EB030E22BFB61A7546F1
:102D200040EA5C005B084FEA3202B6EB020E75EB3C
:102D3000030E22BFB61A754640EA9C005B084FEAB4
:102D40003202B6EB020E75EB030E22BFB61A7546C1
:102D500040EADC0055EA060E18D04FEA051545EAB0
:102D600016754FEA06164FEAC30343EA52734FEA59
:102D7000C2025FEA1C1CC0D111F4801F0BD141EAD2
:102D800000014FF000004FF0004CB6E711F4801F37
:102D900004BF01430020B4F1FD0C88BFBCF5E06F17
:102DA0003FF6AFAEB5EB030C04BFB6EB020C5FEA27
:102DB000500C50F1000041EB045170BD0EF0004E7C
:102DC0004EEA113114EB5C04C2BFD4EB0C0541EAAE
:102DD000045170BD41F480114FF0000E013C90E6AB
:102DE00045EA060E8DE60CEA135594EA0C0F08BF6F
:102DF00095EA0C0F3FF43BAF94EA0C0F0AD150EA6E
:102E000001347FF434AF95EA0C0F7FF425AF104600
:102E100019462CE795EA0C0F06D152EA03353FF428
:102E2000FDAE1046194622E750EA410618BF52EAA5
:102E300043067FF4C5AE50EA41047FF40DAF52EA79
:102E400043057FF4EBAE12E74FEA4102B2F1E043F3
:102E500024BFB3F5001CDCF1FE5C0DD901F0004C81
:102E60004FEAC0024CEA5070B2F1004F40EB8300D1
:102E700008BF20F00100704711F0804F21D113F1FD
:102E80003872BCBF01F00040704741F480114FEA36
:102E90005252C2F11802C2F1200C10FA0CF320FABF
:102EA00002F018BF40F001004FEAC1234FEAD323DC
:102EB00003FA0CFC40EA0C0023FA02F34FEA430346
:102EC000CCE77FEA625307D150EA01331EBF4FF0CF
:102ED000FE4040F44000704701F0004040F0FE40EA
:102EE00040F40000704700BF80F0004002E000BFE7
:102EF00081F0004142001FBF5FEA410392EA030FE5
:102F00007FEA226C7FEA236C6AD04FEA1262D2EB2E
:102F10001363C1BFD218414048404140B8BF5B4233
:102F2000192B88BF704710F0004F40F4000020F0CC
:102F30007F4018BF404211F0004F41F4000121F0E2
:102F40007F4118BF494292EA030F3FD0A2F101022C
:102F500041FA03FC10EB0C00C3F1200301FA03F16A
:102F600000F0004302D5494260EB4000B0F5000F8D
:102F700013D3B0F1807F06D340084FEA310102F14C
:102F80000102FE2A51D2B1F1004F40EBC25008BFFE
:102F900020F0010040EA03007047490040EB0000C8
:102FA00010F4000FA2F10102EDD1B0FA80FCACF1F7
:102FB000080CB2EB0C0200FA0CF0AABF00EBC250F6
:102FC00052421843BCBFD0401843704792F0000FE4
:102FD00081F4000106BF80F400000132013BB5E737
:102FE0004FEA41037FEA226C18BF7FEA236C21D0AD
:102FF00092EA030F04D092F0000F08BF0846704712
:1030000090EA010F1CBF0020704712F07F4F04D1DF
:10301000400028BF40F00040704712F100723CBFF2
:1030200000F50000704700F0004343F0FE4040F41C
:10303000000070477FEA226216BF08467FEA2363DA
:103040000146420206BF5FEA412390EA010F40F4C5
:10305000800070474FF0000304E000BF10F0004311
:1030600048BF40425FEA000C08BF704743F09643F8
:1030700001464FF000001CE050EA010208BF704713
:103080004FF000030AE000BF50EA010208BF70479A
:1030900011F0004302D5404261EB41015FEA010CAF
:1030A00002BF84460146002043F0B64308BFA3F1A7
:1030B0008053A3F50003BCFA8CF2083AA3EBC25389
:1030C00010DB01FA02FC634400FA02FCC2F12002A8
:1030D000BCF1004F20FA02F243EB020008BF20F0DF
:1030E0000100704702F1200201FA02FCC2F1200245
:1030F00050EA4C0021FA02F243EB020008BF20EA3A
:10310000DC7070474FF0FF0C1CEAD0521EBF1CEA67
:10311000D15392EA0C0F93EA0C0F6FD01A4480EA55
:10312000010C400218BF5FEA41211ED04FF000633E
:1031300043EA501043EA5111A0FB01310CF000406A
:10314000B1F5000F3EBF490041EAD3715B0040EA90
:10315000010062F17F02FD2A1DD8B3F1004F40EB60
:10316000C25008BF20F00100704790F0000F0CF033
:10317000004C08BF49024CEA502040EA51207F3AF7
:10318000C2BFD2F1FF0340EAC250704740F40000D2
:103190004FF00003013A5DDC12F1190FDCBF00F0C3
:1031A00000407047C2F10002410021FA02F1C2F171
:1031B000200200FA02FC5FEA310040F1000053EA0D
:1031C0004C0308BF20EADC70704792F0000F00F05B
:1031D000004C02BF400010F4000F013AF9D040EA61
:1031E0000C0093F0000F01F0004C02BF490011F4F5
:1031F000000F013BF9D041EA0C018FE70CEAD153F3
:1032000092EA0C0F18BF93EA0C0F0AD030F0004C72
:1032100018BF31F0004CD8D180EA010000F0004026
:10322000704790F0000F17BF90F0004F084691F0E4
:10323000000F91F0004F14D092EA0C0F01D142021E
:103240000FD193EA0C0F03D14B0218BF084608D1E7
:1032500080EA010000F0004040F0FE4040F4000031
:10326000704740F0FE4040F4400070474FF0FF0CC4
:103270001CEAD0521EBF1CEAD15392EA0C0F93EA0B
:103280000C0F69D0A2EB030280EA010C49024FEA5D
:10329000402037D04FF0805343EA111143EA101316
:1032A0000CF000408B4238BF5B0042F17D024FF4CE
:1032B000000C8B4224BF5B1A40EA0C00B3EB510FA9
:1032C00024BFA3EB510340EA5C00B3EB910F24BF92
:1032D000A3EB910340EA9C00B3EBD10F24BFA3EB17
:1032E000D10340EADC001B0118BF5FEA1C1CE0D1DF
:1032F000FD2A3FF650AF8B4240EBC25008BF20F092
:10330000010070470CF0004C4CEA50207F32C2BFE5
:10331000D2F1FF0340EAC250704740F400004FF082
:103320000003013A37E792F0000F00F0004C02BFB3
:10333000400010F4000F013AF9D040EA0C0093F07D
:10334000000F01F0004C02BF490011F4000F013BD7
:10335000F9D041EA0C0195E70CEAD15392EA0C0F3F
:1033600008D142027FF47DAF93EA0C0F7FF470AF77
:10337000084676E793EA0C0F04D14B023FF44CAFBA
:1033800008466EE730F0004C18BF31F0004CCAD14F
:1033900030F000427FF45CAF31F000437FF43CAF8B
:1033A0005FE700BF4FF0FF3C06E000BF4FF0010CAD
:1033B00002E000BF4FF0010C4DF804CD4FEA40028F
:1033C0004FEA41037FEA226C18BF7FEA236C11D0D9
:1033D00001B052EA530C18BF90EA010F58BFB2EB8C
:1033E000030088BFC81738BF6FEAE17018BF40F00C
:1033F000010070477FEA226C02D15FEA402C05D1C0
:103400007FEA236CE4D15FEA412CE1D05DF8040B44
:10341000704700BF844608466146FFE70FB5FFF7D7
:10342000C9FF002848BF10F1000F0FBD4DF808ED8F
:10343000FFF7F4FF0CBF012000205DF808FB00BF80
:103440004DF808EDFFF7EAFF34BF012000205DF8DA
:1034500008FB00BF4DF808EDFFF7E0FF94BF012027
:1034600000205DF808FB00BF4DF808EDFFF7D2FF24
:1034700094BF012000205DF808FB00BF4DF808ED67
:10348000FFF7C8FF34BF012000205DF808FB00BF34
:103490000EB4F0B59CB021AB0F4953F8042B019347
:1034A00005466FF00044086802954FF402774FF626
:1034B000FF7602A90695ADF8147004940794ADF850
:1034C000166000F00BF8029B00221A701CB0BDE8D9
:1034D000F04003B0704700BF580400202DE9F04FC2
:1034E000C9B0914610930C910D9002F029FA006832
:1034F000159003F0EFF80C9C1890A3891A0603D5D9
:103500002369002B01F08D8038ACA44608942B94DD
:1035100000250024CDE91645002311932D932C930B
:103520001A9319930E93664699F80030002B00F019
:10353000F880252B00F0F58009F1010201E0252B30
:1035400004D0144601322378002BF8D1C9EB0405CE
:103550007DB12C9B2D9AC6F8009001332A44072B8D
:1035600075602D922C9300F3C28008360E98284483
:103570000E902378002B00F0C280002394F8018085
:103580008DF88F301A460F93099304F101094FF01B
:10359000FF340A9409F10109A8F12003582B00F225
:1035A000C783DFE813F06A02C503C5037102C503D0
:1035B000C503C503C503C503C50314036403C503DD
:1035C0009D00C000C50378027F027F027F027F0258
:1035D0007F027F027F027F027F02C503C503C5030E
:1035E000C503C503C503C503C503C503C5039002D1
:1035F0006F03C5036F03C503C503C503C503680394
:10360000C503C5037800C503C503C503C503C503CA
:103610005900C503C503AF02C503C503C503C503F0
:10362000C503C503C503C503C503C5033703480365
:103630006F036F036F03FF024803C503C50308034D
:10364000C503C5027C002103A503C503D902C50338
:103650005F00C503C503DE00DDF824C04CF0100C8C
:10366000CDF824C0099CA20600F15683099CE3060C
:1036700000F1E085DDF824C01CF0400F00F0DA8591
:10368000DDF840C0BCF800400CF1040C002501231B
:10369000CDF840C08CE0099D45F010050995DDF896
:1036A00024C01CF0200340F02C83DDF824C01CF063
:1036B000100240F0B885DDF824C01CF0400300F093
:1036C000B285DDF840C0BCF800400CF1040C134694
:1036D0000025CDF840C06BE00F9C109364420F941E
:1036E000099D45F00405099599F8008052E70D9869
:1036F0000C992BAA03F01EF840B938AE36E72D9B83
:1037000023B10D980C992BAA03F014F80C9C0E9879
:10371000A38913F0400F18BF4FF0FF3049B0BDE848
:10372000F08F4C4625E799F80080B8F12A0F09F18F
:10373000010001F01881A8F13003092B98BF002186
:1037400001F2778010F8018B01EB810103EB41015D
:10375000A8F13003092BF5D941EAE1710A918146BC
:103760001AE7099DA14C1A94AF068DF88F2040F1FD
:10377000D181DDF840C00CF1070323F0070303F10A
:1037800008041094D3E90045DDF824C01CF0010FB3
:1037900000F0648454EA050000F0608430234CF0AB
:1037A000020C8DF890308DF89180CDF824C0022362
:1037B0004FF0000A8DF88FA00A99002905DBDDF88B
:1037C00024C02CF0800CCDF824C054EA050040F051
:1037D000C7820A99002940F0C382002B40F03A8446
:1037E000DDF824C01CF0010F00F0348448AF302312
:1037F00007F8413D089DEC1BDDF828C00025644515
:10380000A8BFA446CDF82CC01495BAF1000F02D081
:103810000B9D01350B95099B13F00203129302D007
:103820000B9D02350B95DDF824C01CF0840CCDF8FF
:103830004CC040F092820F9DDDF82CC0CCEB050B04
:10384000BBF1000F40F38982BBF1100F2D992C9A28
:10385000DFF8A0A12CDD1B97304657461025CA463D
:103860000C9EA1460D9C06E0ABF1100BBBF1100FB6
:1038700000F1080017DD01321031072A2D912C923A
:1038800007604560F0DD204631462BAA02F052FF6A
:1038900000287FF43BAFABF1100BBBF1100F2D995B
:1038A0002C9A38A8E7DC4C46D146BA461B9F064600
:1038B00001320BEB010C072ACDF8B4C02C9286E83C
:1038C000000C00F31C849DF88FA00836BAF1000F9D
:1038D0000FD02C9B01330CF1010C0DF18F01012253
:1038E000072BCDF8B4C02C9386E8060000F39A832A
:1038F0000836129B73B12C9B01330CF1020C24A9E6
:103900000222072BCDF8B4C02C9386E8060000F302
:1039100095830836139D802D00F0CC820A9DC4EB60
:10392000050ABAF1000F3BDDBAF1100F2C9B304DA8
:103930002BDD0A9432464FF0100B2E4661460D9C4B
:103940000C9D06E0AAF1100ABAF1100F02F108026C
:1039500017DD01331031072B2D912C9382E840089D
:10396000F0DD204629462BAA02F0E4FE00287FF471
:10397000CDAEAAF1100ABAF1100F2D992C9B38AADE
:10398000E7DC0A9C35468C4616460133D444072BA7
:10399000CDF8B4C02C9386E8200400F337830836B2
:1039A000099DED0500F126822C9B37600133A4446C
:1039B000072BCDF8B4C074602C9300F31183083644
:1039C000099C630749D50F9D0B982C1A002C44DDE8
:1039D000102C2C9BDFF81CA02BDD574610256246CF
:1039E000DDF83080DDF834A00BE000BF607B00081C
:1039F0002C7B0008807B0008103C102C06F1080688
:103A000015DD01331032072B2D922C933760756032
:103A1000F2DD504641462BAA02F08CFE00287FF4CE
:103A200075AE103C102C2D9A2C9B38AEE9DC9446D8
:103A3000BA460133A444072BCDF8B4C02C93C6F882
:103A400000A0746009DD0D980C992BAA02F072FE9B
:103A500000287FF45BAEDDF8B4C00E9C0B980F9D80
:103A6000A842ACBF241864190E94BCF1000F40F0BA
:103A7000C38200232C9338AE56E599F80080002AC3
:103A80007FF488AD202285E5099D45F00105099563
:103A900099F800807EE5099D45F08005099599F823
:103AA000008077E50024A8F130030F94214619F82F
:103AB000018B01EB810103EB4101A8F13003092BDC
:103AC000F5D90F9168E5DDF824C08DF88F204CF012
:103AD000100CCDF824C0099CA30640F1B280109DC3
:103AE000E91D21F00701D1E90023083110911446A6
:103AF0001D46002A73F10000C0F28B839DF88FA051
:103B0000012359E6099DB74C8DF88F20AF061A9412
:103B10003FF52FAE099DED0640F15D84DDF840C014
:103B2000DCF800400CF1040CCDF840C000252BE679
:103B3000DDF824C08DF88F201CF0200F00F03D84AC
:103B4000109C21680E9CE5172B46109D22460435DB
:103B50001095C1E90023E7E4109C27684FF0000AA4
:103B60008DF88FA0251D002F00F0F5850A9C002CF4
:103B70003846C0F2A7855146224602F081F9002856
:103B800000F01F860A9C1095C01BA042B8BF0446D7
:103B900024EAE475CDF828A0CDF850A00B959DF847
:103BA0008FA032E6DDF824C04CF0400CCDF824C0E4
:103BB00099F80080EEE499F80080B8F16C0F4B465C
:103BC00000F08B84099D45F010050995E2E4109CF6
:103BD000109D24680F94002C05F10403FFF67CADC2
:103BE000109399F80080D5E4109ADDF824C07E483F
:103BF00014681A903023151D4FF078084CF0020C11
:103C00008DF890301095CDF824C000258DF8918066
:103C10000223CDE5109A109D12688DF8B82000237C
:103C2000012404359A460B9410958DF88F300A9331
:103C300014932EAFEFE5099C8DF88F20A3063FF576
:103C40004EAFDDF824C01CF0100F40F0D282099C6A
:103C5000670640F1CE82DDF840C0BCF900400CF1AF
:103C6000040CE51722462B46CDF840C041E799F8F1
:103C700000802B228EE4099D45F00805099599F8EE
:103C8000008087E4109D099C8DF88F20EB1D25078F
:103C900023F0070340F18A83D3E90045CDE91645B7
:103CA00003F1080CCDF840C0DDE9160102F0D8FCA4
:103CB0000128DDE9160140F05F830022002303F0B4
:103CC000F5F9002840F06D859DF88FA003250B9530
:103CD000099D464F464B25F0800500240995002597
:103CE0000A94B8F1470FD8BF1F46032414958CE5FA
:103CF000DDF824C04CF0200CCDF824C099F80080E9
:103D000048E4109CE31D23F0070303F10805109518
:103D1000D3E9004500234BE5109DEB1D23F007037D
:103D200003F1080CD3E90045CDF840C001233FE57D
:103D30008DF88F20B8F1000F3FF4E1AC00234FF075
:103D4000010C9A46CDF82CC08DF8B8808DF88F30D4
:103D50000A93149364462EAF5DE5DDF8B4C0B5E573
:103D6000012B00F0EC80022B0DF1DF0318D1DDF800
:103D700068C0194604F00F00220942EA05720F4696
:103D80002B091CF80010397052EA030014461D4636
:103D900007F1FF31EED1089DCDE91E23EC1B2BE589
:103DA000E00840EA457004F00702E908303250EAC2
:103DB000010C1F461A7004460D4603F1FF33EFD184
:103DC000099CCDE91C01E007394640F1C180302A49
:103DD00000F0BE80089D1F463023EC1B01F8013C1B
:103DE0000AE500BF4C7B0008607B0008407B0008B0
:103DF0003C7B0008B8F1650F40F3AD80DDE91601AA
:103E000000220023CDF81CC003F046F9DDF81CC0E9
:103E1000002800F026812C9BAA4A326001330CF165
:103E2000010C0122072BCDF8B4C02C93726000F373
:103E3000F7820836259B119CA34203DB099DEC0702
:103E40007FF5BEAD2C9B189D159C34600133AC44AE
:103E5000072BCDF8B4C075602C9300F34883083667
:103E6000119D6C1E002C7FF7ABAD102C2C9B964D3A
:103E700040F3978110276246DDF83480DDF830A0EA
:103E800004E00836103C102C40F38A8101331032D4
:103E9000072B2D922C9386E8A000F2DD4046514678
:103EA0002BAA02F047FC00287FF430AC2D9A2C9B03
:103EB00038AEE7E70F9D0B98C0EB050ABAF1000F8B
:103EC0007FF72CADBAF1100F2C9B7F4D2BDD129498
:103ED00032464FF0100B2E4661460D9C0C9D06E0BD
:103EE000AAF1100ABAF1100F02F1080217DD01332E
:103EF0001031072B2D912C9382E84008F0DD2046ED
:103F000029462BAA02F016FC00287FF4FFABAAF189
:103F1000100ABAF1100F2D992C9B38AAE7DC129CDD
:103F200035468C4616460133D444072BCDF8B4C031
:103F30002C9386E8200400F312820836EEE4002D6C
:103F400008BF0A2C80F0388148AF303407F8414D63
:103F5000089DEC1B50E4119C012C2C9C40F3D58156
:103F600001340CF101030122072C37602D932C94AE
:103F7000726000F3DB810836DDF86080159D3560E6
:103F800001349844189DCDF8B480072C2C947560AA
:103F900000F3D8810836DDE916010022002303F082
:103FA0007BF8119D002840F0B9806B1E0134013769
:103FB0009844072C2C94CDF8B4803760736000F3DC
:103FC000E2800836DDF864C0199D0134C44427AB93
:103FD000072CCDF8B4C02C9486E828007FF7EFAC0E
:103FE0000D980C992BAA02F0A5FB00287FF48EAB4C
:103FF000DDF8B4C038AEE3E40D980C992BAA02F0BA
:1040000099FB00283FF435ADFFF780BB0D980C9964
:104010002BAA02F08FFB00287FF478ABDDF8B4C048
:1040200038AEBDE40D980C992BAA02F083FB002852
:104030007FF46CABDDF8B4C038AE5AE40D980C993F
:104040002BAA02F077FB00287FF460ABDDF8B4C048
:1040500038AE5FE40A9C38AFFFF7CEBB0223FFF710
:10406000A7BB259B002B40F3E781119C149DDDF835
:1040700044A0AC42A8BF2C46002CBA440BDD2C9BBC
:1040800037600133A444072BCDF8B4C074602C937F
:1040900000F328830836149D24EAE4742C1B002CBA
:1040A00040F3DB80102C2C9B074D40F3AD810A9729
:1040B0004FF010082F4662462546DDF834B00C9CC0
:1040C00009E000BF7C7B00082C7B00080836103D0F
:1040D000102D40F3958101331032072B2D922C9334
:1040E00086E88001F2DD584621462BAA02F022FB29
:1040F00000287FF40BAB2D9A2C9B38AEE7E70D9888
:104100000C992BAA02F016FB00287FF4FFAA9DF859
:104110008FA0DDF8B4C038AEFFF7D8BB6F1E002FFC
:104120007FF750AF102FB34D23DD43464FF0100AF9
:10413000DDF83480DDF830B004E0103F102F06F1D8
:10414000080615DD01341033072C2D932C9486E8D6
:104150002004F2DD404659462BAA02F0EBFA002873
:104160007FF4D4AA103F102F2D9B2C9C38AEE9DC95
:1041700098460134B844072CCDF8B4802C9486E8D6
:10418000A0007FF71EAF0D980C992BAA02F0D2FA6F
:1041900000287FF4BBAADDF8B4802C9C38AE11E770
:1041A00094460133A444072BCDF8B4C02C9335605A
:1041B00074607FF704AC13E70DF1DF0B204629464E
:1041C0000A22002302F0C2FF30328BF80020204682
:1041D00029460A22002302F0B9FF04460D4654EA9C
:1041E000050C5F460BF1FF3BE8D1089DEC1BFFF788
:1041F00003BB109DDDF840C02C68E51722462B4616
:104200000CF1040C002A73F10000CDF840C0BFF699
:1042100075AC4FF02D0A644265EB45058DF88FA013
:104220000123FFF7C9BA109D2C68043510950025AD
:10423000FFF7BEBA109D2C680435109501230025A8
:10424000FFF7B6BA0D980C992BAA02F073FA002862
:104250007FF45CAADDF8B4C038AE149D259C2F44D1
:10426000119DAC4242DB099DE9073FD41198C7EB91
:104270000A05041BAC42B8BF2546002D0BDD2C9B64
:1042800037600133AC44072BCDF8B4C075602C9374
:1042900000F35282083625EAE575641B002C7FF78F
:1042A0008FAB102C2C9B534D7FF77BAF10276246B2
:1042B000DDF83480DDF830A004E00836103C102C26
:1042C0007FF76EAF01331032072B2D922C9386E8C7
:1042D000A000F2DD404651462BAA02F02BFA00283E
:1042E0007FF414AA2D9A2C9B38AEE7E72C9B159DE2
:1042F0003560189D75600133AC44072BCDF8B4C010
:104300002C9300F3FB810836B0E7099DEA073FF5DF
:1043100027AE01340CF101080123072CCDF8B4803D
:104320002C94376073607FF74CAE2CE70D980C9996
:104330002BAA02F0FFF900287FF4E8A92D9B2C9C02
:1043400038AE19E60D980C992BAA02F0F3F9002863
:104350007FF4DCA9DDF8B4802C9C38AE1BE60D9808
:104360000C992BAA02F0E6F900287FF4CFA9DDF81A
:10437000B4C038AEFFF7D2BA02F072F9002840F0AC
:10438000C280099C1C4F1D4B9DF88FA00A904FF0D6
:10439000030C24F080040994CDF82CC01490B8F1DB
:1043A000470FD8BF1F466446FFF72FBAD3E9004531
:1043B0000833CDE91645109376E4DDF824C01CF0EF
:1043C000100F00F05581109C0E9D2368043410944A
:1043D0001D60FFF7A9B8099C640640F14281DDF831
:1043E00040C0BCF800400CF1040C0025CDF840C0E2
:1043F000FFF7CAB92C7B0008487B0008447B000803
:104400002C463D460A9F94460133A444072BCDF821
:10441000B4C02C93356074603FF714AF08361CE7C6
:104420000D980C992BAA02F085F900287FF46EA94B
:10443000DDF8B4C038AEFDE42C9AB74931600132E2
:104440000CF1010C0121072ACDF8B4C02C92716047
:1044500000F3F78008361C462CB9119D1DB9099D43
:10446000E8077FF5ADAA2C9B1899159D356001339F
:104470006144189D2D91072B75602C9300F3DE810C
:1044800006F108026442002C40F30B81102CA34D6E
:1044900040F34881A34610260C46DDF83480DDF851
:1044A00030A006E00832ABF1100BBBF1100F40F367
:1044B000378101331034072B2D942C9382E8600050
:1044C000F0DD404651462BAA02F034F900287FF473
:1044D0001DA92D9C2C9B38AAE5E7099C93F8018027
:1044E00044F0200409F101090994FFF753B80D982D
:1044F0000C992BAA02F01EF900287FF407A9DDF819
:10450000B4C038AEACE40A9D013528F0200A00F0B2
:10451000A580BAF1470F04D10A9D002D08BF0125DF
:104520000A95DDE91623DDF824C0002B4CF4807CCD
:10453000CDF848C0C0F29C81DDE91645CDE92045A3
:104540004FF0000BB8F1660F00F09B81B8F1460FF9
:1045500000F0A981BAF1450F0ABF0A9C0A9D651CAB
:10456000022025A926AA29AB8DE8210003920493F5
:1045700002910D98DDE9202300F0C6FAB8F1670F2B
:10458000074602D0B8F1470F05D1DDF824C01CF072
:10459000010F00F09C81BAF1460F07EB050400F013
:1045A0001C81DDE920010022002302F075FD0028B6
:1045B00040F00581299B9C4206D930215A1C299242
:1045C0001970299B9C42F9D8DB1BBAF1470F119354
:1045D00000F0ED80B8F1650F40F3F281B8F1660F9D
:1045E00000F06881259C1494119C149DAC4200F34A
:1045F0003281DDF824C01CF0010F40F0AD8125EAC6
:10460000E5732C464FF06708BBF1000F40F0B28015
:10461000129D0B930995CDF828B09DF88FA0FFF758
:10462000F4B80D98402101F08FF920602061002836
:1046300000F0BF81DDF830C04023CCF81430FEF725
:1046400063BF0D980C992BAA02F074F800287FF430
:104650005DA8259CDDF8B4C038AEFDE606240A94BA
:104660005FE7109D2C68043510950025FFF78CB886
:10467000DDF824C01CF0400F00F08780109C0E9DD8
:104680002368043410941D80FEF74EBF0D980C99DA
:104690002BAA02F04FF800287FF438A82D992C9B04
:1046A00038AADDF844C0119C176001338C44072BF5
:1046B000CDF8B4C02C9354603FF792AC02F10806D9
:1046C000FFF77EB9CDF828A002F004F8109520EA93
:1046D000E07C0A9DCDF82CC0044614959DF88FA06F
:1046E000FFF793B80D980C992BAA02F023F8002835
:1046F0007FF40CA8DDF8B4C038AECCE40D980C996A
:104700002BAA02F017F800287FF400A8259CDDF8FA
:10471000B4C038AEAAE500BF7C7B00082C7B000843
:1047200021465C4601332144072B2D912C931560C3
:104730005460ABDC0832B4E70D980C992BAA01F059
:10474000F9FF00287EF4E2AF259C1199DDF8B4C092
:104750000C1B38AE9FE50A9C1497062C28BF062434
:1047600024EAE47CBA460A971095CDF82CC0974FFE
:10477000FFF74BB8129D09954FF02D0A00250B93BA
:104780008DF88FA00A95FFF743B8DDF840C00E9C66
:10479000DCF800300CF1040CCDF840C01C60FEF7D2
:1047A000C3BE4FF02D0A8DF88FA0FFF78FBA259B5F
:1047B000DC1C19DB0A9C9C4216DB149314E723468D
:1047C00002E724EAE47CCDF82CC00A9C10950A90FC
:1047D00014909DF88FA0FFF718B83B78302B00F0AD
:1047E000AD80259D2C44DCE6A8F10208013B002B9E
:1047F0002593BABF5B422D222B22092B8DF89C807A
:104800008DF89D2065DC303330228DF89F308DF897
:104810009E2028AB119D119C27AA9A1A012D19924E
:10482000144440F3B7800134002524EAE47314955E
:10483000EAE6002481460A94FEF7AEBE0D980C9974
:104840002BAA01F077FF00287EF460AF259C2D99FC
:104850002C9B38AA16E6149C119D002CD4BFC4F1E1
:10486000020401242C4424EAE4734FF06708CBE6E9
:1048700017991698209001F1004121914FF02D0BCE
:1048800060E60A9D0195032025A926AA29AB009080
:104890000392049302910D98DDE9202300F034F98E
:1048A0000A9D074677E60A9C0194032025A926AABB
:1048B00029ABECE7259D1495002D0A9C63DDB4BB64
:1048C000099DE80733D4149C24EAE4739CE6299BF1
:1048D0007AE60DF1AA003E4DDA1785FB0351C2EBD3
:1048E000A10101EB81040246A3EB440303F1300074
:1048F000092910700B4602F1FF30ECDC01F13003A6
:104900000DF1AB04D9B2844202F8011C5AD90DF161
:104910009D00134601E013F8011BA34200F8011F9C
:10492000F9D10DF5907CC2EB4C03F63B72E70A9D82
:104930006C1C149D2C4424EAE47365E6DDE9200137
:104940000022002302F0A8FB00287FF44AAFC5F143
:10495000010525952C4424E6149D6C1C24EAE4737F
:104960004FF0670850E6109DDDF840C02D6899F8BB
:1049700001800A950CF10403002D10938146BEF6C8
:1049800009AEFEF704BE7CB9099DE9070CD40123EA
:104990001C4639E6DDF824C01CF001037FF443AF68
:1049A000149324EAE4732FE60A9DAC1C24EAE47312
:1049B0002AE60D9D0C232B604FF0FF30FEF7AEBEB4
:1049C000259B13E70DF19E0324E700BF747B0008CD
:1049D000676666662DE9F04F03690D699D4283B0F5
:1049E000834600F38B80013D01F1140400F1140AA9
:1049F00054F825205AF825300132B3FBF2F8AA000A
:104A0000914600925244A1440192B8F1000F3DD06A
:104A10004FF0000E7046224653468C4652F8046B07
:104A20001968B7B2360C07FB08EE06FB08F606EB72
:104A30001E461FFA8EF7C71BB0B217FA81F7C0EBFC
:104A4000114000EB2740BFB247EA0047914543F8C9
:104A5000047B4FEA20404FEA164EDFD2009A5AF804
:104A60000230614693B9019A131F9A450CD252F84D
:104A7000043C4BB9A2F1080302E01A68043B1AB9DE
:104A80009A4505F1FF35F8D3CBF81050584601F0A0
:104A9000FBFC00282EDB08F101085346002254F8E5
:104AA000046B1868B1B2521A360C12FA80F1C6EBD8
:104AB000104202EB214289B241EA0241A14543F88A
:104AC000041B4FEA2242EAD25AF825200AEB85035A
:104AD00082B91A1F92450BD253F8042C42B9083BF5
:104AE00002E01A68043B1AB99A4505F1FF35F8D37C
:104AF000CBF81050404603B0BDE8F08F002003B063
:104B0000BDE8F08F000000002DE9F04F016C9BB074
:104B10000446279D92469B4649B1436C4B60012257
:104B200002FA03F38B6001F0B7FA00232364BBF1B0
:104B3000000FD94633DB00232B60A54B1A4609EA48
:104B40000303934214D0504659460022002302F03A
:104B5000A3FA804648B3269E289D01233360002D8A
:104B600000F0C9809B48286001381BB0BDE8F08F79
:104B7000269D42F20F732B60BAF1000F00F0A48063
:104B80009548289E002EF0D0C378002B00F0B58009
:104B900000F10803289D2B601BB0BDE8F08F0123B6
:104BA0002BF000492B60CB46C7E719AA18AB8DE85C
:104BB0000C00204652465B4601F0F4FC5FEA1955B2
:104BC0000A9040F08A80189F199D6FF482633D44DB
:104BD0009D42C0F294821F3305F212425B1B09FA18
:104BE00003F32AFA02F243EA0200FDF7A5FE0126CA
:104BF000013DB846A1F1F87116960022774BFDF7FA
:104C00005DFD6DA3D3E90023FDF70CFF6CA3D3E991
:104C10000023FDF755FD064628460F46FDF79CFE8E
:104C200069A3D3E90023FDF7FDFE02460B4630469B
:104C30003946FDF745FD06460F4602F05FFA394654
:104C4000079000223046002302F030FA002840F09E
:104C50002882079E162E00F22182614B03EBC603C9
:104C6000D3E9000152465B4602F03EFA002800F00C
:104C70004B82013E079600260E96C5EB0805013DC6
:104C8000069500F1258200250895079E002EC0F2AA
:104C90001682069D0D963544002606950C96249D99
:104CA000092D2CD8052DC4BF043D2495249EA6F1C2
:104CB0000203CCBF00250125032B22D8DFE813F027
:104CC000B7039E02C0039A04464A434BC9F313003C
:104CD00000280CBF1046184653E7CBF3130343F0EC
:104CE0007F51CDF858805046A5F2FF3541F4401170
:104CF000DDF8608081E73C4837E7C31C4AE70025C0
:104D00002495002565642946204601F09FF94FF05F
:104D1000FF390126099025952064CDF83C900B962B
:104D2000199B002BC0F2D280079E0E2E00F3CE807E
:104D30002B4B03EBC603D3E90001CDE90401259910
:104D40000029C0F28083DDE9042359465046FDF76F
:104D500093FF02F0D3F90546FDF7FEFDDDE90423DC
:104D6000FDF760FE02460B4650465946FDF7A6FC8D
:104D7000099A05F13003B9F1010F06460F46137089
:104D800002F1010B64D00022184BFDF74BFE00220C
:104D9000002306460F4602F07FF9002840F081808C
:104DA000DDF82480099D0394C844DDE904AB05F1D6
:104DB000020928E0AFF3008061436F63A787D23F09
:104DC000B3C8608B288AC63FFB799F501344D33FFA
:104DD0000000F07F7D7B00089C7B00080000F83F0E
:104DE000B07B0008907B00087C7B0008000024401A
:104DF000FDF718FE0022002306460F4602F04CF98C
:104E0000002840F0C18352465B4630463946FDF7E4
:104E100033FF02F073F90546FDF79EFD52465B46EF
:104E2000FDF700FE02460B4630463946FDF746FCCC
:104E300005F1300EC14509F801EC4C4606460F4617
:104E40004FF00002A74B09F10109D1D1A346039C01
:104E500032463B4630463946FDF732FC06460F46A1
:104E60003246DDE904013B4602F020F940B9DDE9B4
:104E7000040132463B4602F00FF990B1EB0710D522
:104E80001BF8015C099A05E09A4200F0288413F8A7
:104E9000015C9B46392D0BF1FF33F5D06A1CD2B271
:104EA0001A7020460A9901F0F7F8079E269D731C98
:104EB000289E00228BF800202B60002E00F0258316
:104EC0000998C6F800B01BB0BDE8F08F0B9D002D0F
:104ED00000F00381249E012E40F3DC820C9E09F138
:104EE000FF37BE42C0F28983F71BB9F1000FC0F251
:104EF0008684089D4B46089E1E440896069E2046C2
:104F00001E440121069601F06BF9064665B106982C
:104F1000002809DD03460899AB42A8BF2B46C91AF1
:104F2000C01A0891ED1A06900C9A002A1DDD0B9B01
:104F3000002B00F05883002F11DD31463A46204601
:104F400001F0F6F9064631460A9A204601F052F978
:104F50000A998046204601F09FF8CDF82880DDF8B8
:104F600030E0BEEB070240F08F822046012101F0C5
:104F700037F980460D98002805DD414620460D9AF8
:104F800001F0D6F980462499012940F3C182002717
:104F90000D98002840F0AF820120069B034413F0D7
:104FA0001F0300F0A180C3F12002042A40F3B5845E
:104FB0000899069AC3F11C0319441A4408911D4428
:104FC00006920899002905DD0A99089A204601F001
:104FD000FDF90A90069A002A04DD4146204601F0B8
:104FE000F5F980460E9B002B40F06A82B9F1000F64
:104FF00040F3A6820B98002840F088800B9D0A9F02
:10500000DDF824B006E0394620460A22002301F0EC
:105010004DF8074638464146FFF7DCFC30300BF8C8
:1050200005000135A945EEDCDDF824B00A9782467B
:10503000B9F1010FACBFCB440BF1010B00250A996C
:105040000122204601F0C2F941460A9001F01CFA03
:10505000002840F309831BF8012C099905E09942C7
:1050600000F08B8213F8012C9B46392A0BF1FF3399
:10507000F5D001321A704146204601F00DF8002E9D
:105080003FF40FAF2DB1B54203D02946204601F0C1
:1050900003F83146204600F0FFFF02E701260E9696
:1050A000EBE50798FDF758FC32463B4601F0F4FF6C
:1050B00000287FF4CEAD079E013E0796C9E5079E06
:1050C000089DAD1B0895754200260C950D96E6E5EA
:1050D0006D42002608950696D7E50C9F089D0B9E0D
:1050E00014E700BF000024401C23DDF820E00698F0
:1050F0009E441844CDF820E01D44069061E7A7487F
:10510000401B0AFA00F070E50E90B6E5002D05DDB3
:1051100031462A46204601F059F90646002F40F054
:10512000E8823746099D09984D4408950AF0010523
:105130000B95DDF82890451C0AE000F0B7FF3946D2
:1051400006460A222046002300F0B0FF074601353C
:1051500041464846FFF73EFC31468346484601F04B
:1051600093F9414603903A46204601F0B1F9C268EE
:10517000691E03460BF1300A0691002A40F0938124
:1051800019464846029301F07FF9029B02461946F0
:105190002046029200F080FF029A2AB9249B1BB994
:1051A0000B98002800F09183039B002BC0F23482FF
:1051B00005D1249818B90B99002900F02D82002AF6
:1051C00000F3AB82DDF820E005F801AC7545AB4695
:1051D00000F0B38249460A220023204600F066FF11
:1051E000BE428146314620464FF00A024FF000038E
:1051F000A3D100F05BFF06460746A8E700260B9602
:10520000079EDDF894E0B6440EF10109B9F1000FF4
:10521000CDF83CE04E4640F350810021172E6164EA
:105220000AD9012204235B0003F11400B0421146A5
:1052300002F10102F7D96164204600F007FF0E2E4B
:10524000099020643FF66CAD002D3FF469AD079DD9
:10525000002DCDE912AB40F31B82514B05F00F023C
:1052600003EBC2032D11D3E90067EB0640F1CD81BA
:105270004C4B50465946D3E90823FDF7FDFCCDE9D8
:10528000100105F00F054FF003088DB1DFF814A1F0
:1052900030463946EE0705D5DAE9002308F1010862
:1052A000FDF7C0FB6D100AF1080AF3D106460F4660
:1052B000DDE9100132463B46FDF7DEFC82468B46B7
:1052C0000E9D45B1504659460022374B01F0EEFE87
:1052D000002840F0A9824046FDF73EFB52465B465F
:1052E000FDF7A0FB0022314BFDF7EAF90646A1F1DC
:1052F0005077B9F1000F00F05A81079D1795C84605
:105300000B9D002D00F02282254B294903EBC80399
:1053100053E902230020FDF7AFFC32463B46FDF780
:10532000CDF9CDE910015946504601F0E7FE05469A
:10533000FDF712FB02460B4650465946FDF7BEF9F3
:105340003035099ECDE90401EDB23570DDE910017B
:10535000DDE9042306F1010B01F0C6FE002840F050
:10536000A982DDE9042300200F49FDF7A7F90246D1
:105370000B46DDE9100101F0B7FE002840F0A082E5
:10538000B8F1010F40F38081B044CDF85090A246AF
:10539000C146DDE90467DDE9104519E0EEFBFFFFDA
:1053A000B07B0008787C00080000F03F00001C4043
:1053B0000000E03F0020A849FDF780F922462B4677
:1053C00001F074FE002840F07982CB4500F059814D
:1053D000204629460022A14BFDF724FB00229F4BCB
:1053E00004460D4630463946FDF71CFB0F4606467F
:1053F00001F084FE8046FDF7AFFA02460B463046C8
:105400003946FDF75BF908F130085FFA88F8224663
:105410002B460BF8018B06460F4601F047FE32463D
:105420003B460028C6D0179E0796544639E500260D
:105430000B96259800283CDD06460F908146ECE649
:1054400001260B96F5E7B9F1000F3FF77CAC40F071
:10545000C6800022824BDDE90401FDF7E3FA5246E3
:105460005B4601F037FEC8464E4600287CD0259D9D
:10547000DDF824B0ED4307954146204600F00CFED0
:10548000002E7FF406AE0CE50A99204600F050FF8E
:105490000A906AE5169D002D00F0B78103F23343B0
:1054A0000C9F089D27E50146204600F0F5FD0122EE
:1054B0007AE6012625960F96B14600216164BBE687
:1054C0000A98414600F0E0FF0028BFF68FADDDF8F6
:1054D0001CE00A990EF1FF3E20460A220023CDF877
:1054E0001CE000F0E3FD0A900B98002840F00782D2
:1054F000DDF83C907AE5D8F8103008EB83031869A2
:1055000000F020FEC0F1200047E50998FFF72DBB11
:10551000BAF1000F7FF43BADCBF31303002B40F047
:105520007B812BF000473F0D3F05002F3FF430AD4E
:10553000089A069B0132013308920693012727E55A
:10554000249902297FF756ADB9F1000F8FD141465A
:105550004B460522204600F0A9FD804641460A98A8
:1055600000F092FF002882DD079D01350795099D17
:1055700031232B7005F1010B7EE707980999312340
:10558000013007900B7076E5A346039C89E4404602
:10559000FDF7E2F902460B4650465946FDF742FA3E
:1055A0000022304BFDF78CF80646A1F150775046AB
:1055B000594600222A4BFDF781F832463B46824687
:1055C0008B4601F091FD002840F0BC80324607F187
:1055D00000435046594601F069FD002854D04FF071
:1055E0000008464643E70A990C9A204600F0A0FEC0
:1055F0000A90BAE401260B9602E60C9D0D9E0C97CC
:105600007B1B1E440D9600276FE4DDE912014FF06D
:105610000208CDE9100138E6002ACDF82890D946D5
:1056200011DD0A990122204600F0D0FE41460A9081
:1056300000F02AFF002840F35B81BAF1390F00F037
:105640001A8109F1310A069B354683F800A003F15F
:10565000010B3E460FE500BF0000F03F0000244074
:105660000000144000001C4003D11AF0010F7FF429
:10567000F2AC5B469B46013B1BF8012C302AF9D06B
:10568000F9E4DDF850905446DDE912ABFFF748BB72
:10569000079E7542002D00F0C280A34B05F00F025B
:1056A00003EBC203D3E90023DDE91201FDF7BAF9E8
:1056B0002D1182468B4600F02D819C4E4FF0020842
:1056C000EA0705D5D6E9002308F10108FDF7AAF994
:1056D0006D1006F10806F3D182468B46F0E5079E71
:1056E000099D30222A700136312207961A70FFF781
:1056F000D8BB7168204600F0A9FC33699A1C0546A6
:10570000920006F10C010C3000F002FC2046294604
:10571000012200F05BFE074604E5BAF1390FCDF82F
:10572000289000F0A880069D0AF101032B703546F1
:10573000069E06F1010B3E469DE43546CDF82890C5
:105740003E467CE44FF0000846460DE7764908F1F6
:10575000FF3501EBC50132463B46D1E9000110950A
:10576000FDF760F9CDE914015946504601F0C6FC39
:105770000546FDF7F1F802460B4650465946FCF740
:105780009DFFDDF824E03035B8F1010F06460F46E5
:105790008EF800500EF1010B1ED0099D6B1E03EB1D
:1057A000080A0022624BFDF73DF90F46064601F05C
:1057B000A5FC8046FDF7D0F808F1300802460B46FC
:1057C00030463946FCF77AFF05F8018F5545E8D198
:1057D000109D06460F46AB440022564BDDE91401EE
:1057E000FCF76EFF32463B4601F060FC00284DD0CE
:1057F000179E07961BF8015C099AFFF74BBB089EA2
:105800000023C9EB0605FFF776BB189B0C9F089D8C
:10581000C3F13603FFF76FBB5746FFF7B9BBDDE9AE
:1058200012AB4FF002084BE5B9F1000F3FF4AFAEF9
:105830000F9E002E7FF728AF00223D4B5046594661
:10584000FDF7F0F8824608F101008B46FDF784F879
:1058500002460B4650465946FDF7E4F80022364B07
:10586000FCF72EFF079DDDF83C80013D0646A1F1C7
:105870005077179544E53546069B069E09993922CF
:10588000327003F1010B3E46FFF7EFBBDDE9142355
:1058900000202849FCF712FF32463B4601F024FC69
:1058A00000283FF4F1AE5B469B46013B1BF8012C00
:1058B000302AF9D0179D0795FFF7F3BA45465446AD
:1058C000179E0796099AFFF7E5BABAF1390FCDF896
:1058D0002890D0D0039B3546002B069EC8BF0BF105
:1058E000310A86F800A006F1010B3E46FFF7C3BB64
:1058F0007FF4A9AE1AF0010F3FF4A5AE9DE6314644
:1059000020460A220023DDF83C9000F0CFFB06463B
:10591000FFF76CBB4FF00208D2E43FF452ABC3F187
:105920003C03FFF7E2BB00BFB07B0008787C0008B7
:10593000000024400000E03F00001C40AFF3008066
:10594000004870475C0400202DE9F04F01F10B0581
:10595000162D83B0064627D935F0070527D4A9426E
:1059600025D8304600F06EFBB5F5FC7F26D2C14F3E
:105970004FEAD50C07EBCC03DC689C4200F0D281E7
:105980006368E268A16823F00303234430465D683E
:10599000CA6045F0010591605D6000F055FB083478
:1059A000204603B0BDE8F08F1025A942D9D90024C4
:1059B0000C232046336003B0BDE8F08F5FEA552C1E
:1059C00000F08A80BCF1040F00F260814FEA951C60
:1059D0000CF1380C4FEA4C01A64F07EB8101CC6863
:1059E000A14205D10CE0002B7ADAE468A14207D08D
:1059F000626822F00302531B0F2BF4DD0CF1FF3C15
:105A00000CF1010C9B4B3C6903F1080E744500F04E
:105A10007E81616821F003014A1B0F2A00F3648133
:105A2000002AC3F814E0C3F810E06ADAB1F5007F89
:105A300080F03A81C90803EBC1004FEAA1085A6817
:105A40008168A1604FF0010909FA08F848EA0202EA
:105A5000E0605A608460CC604FEAAC03012098405B
:105A600090425BD8024206D12CF0030C4000024267
:105A70000CF1040CFAD007EBCC084446E146E3688D
:105A80009C4207D145E1002A80F25681DB689C42A6
:105A900000F03F81596821F003014A1B0F2AF2DD13
:105AA0001C46D3F80CC054F8088F591945F0010969
:105AB00042F00105C3F804903046C8F80CC0CCF899
:105AC000088079613961C1F80CE0C1F808E04D60E7
:105AD0008A5000F0B9FA63E77E214FF03F0C7BE774
