:020000040800F2
:1000000048080020D9040008350500083505000817
:10001000350500083505000835050008000000001A
:10002000000000000000000000000000350500088E
:1000300035050008000000003505000835050008FA
:1000400035050008350500083505000835050008A8
:100050003505000835050008691100083505000858
:100060003505000835050008350500083505000888
:100070003505000835050008350500083505000878
:100080003505000835050008350500083505000868
:100090003505000835050008350500083505000858
:1000A0003505000835050008350500083505000848
:1000B00085110008350500083505000835050008DC
:1000C0003505000835050008350500083505000828
:1000D000350500083505000835050008A911000898
:1000E0003505000835050008350500083505000808
:1000F00035050008350500083505000835050008F8
:1001000035050008350500083505000835050008E7
:1001100035050008350500083505000835050008D7
:1001200035050008350500083505000835050008C7
:1001300035050008350500083505000835050008B7
:1001400035050008350500083505000835050008A7
:100150003505000835050008350500083505000897
:100160003505000835050008350500083505000887
:100170003505000835050008350500083505000877
:10018000350500083505000890B484B000AF02467C
:100190000B46FA71BB710023FB60BB7903F00303CC
:1001A0009B000F2202FA03F3FB60154BBA79920809
:1001B000D2B21349B8798008C0B2023051F8200099
:1001C000F968C9430140023243F822100C4BBA7956
:1001D0009208D2B20A49B8798008C0B2023051F808
:1001E0002000FC79B97901F00301890004FA01F1DA
:1001F0000143023243F822101037BD4690BC7047CD
:100200000038014080B58AB000AF786039600023C3
:100210007B6200233B620023FB610023BB617B68A0
:100220001B8A9BB27B627B6A23F440537B623B68F0
:10023000DB887A6A13437B627B6A9AB27B681A8294
:100240007B689B899BB27B627B6A23F4B05323F06B
:100250000C037B623B689A883B681B8913439AB204
:100260003B685B8913439BB27A6A13437B627B6A68
:100270009AB27B689A817B689B8A9BB27B627B6A1D
:1002800023F440737B623B689B897A6A13437B62E9
:100290007B6A9AB27B689A8207F10803184600F0DD
:1002A0007FFA7A68314B9A4203D07A68304B9A428F
:1002B00002D17B693B6201E03B693B627B689B89C1
:1002C0009BB29BB21BB2002B0CDA3A6A13469B001E
:1002D00013449A001A443B681B685B00B2FBF3F3BB
:1002E000FB610BE03A6A13469B0013449A001A44E0
:1002F0003B681B689B00B2FBF3F3FB61FA691D4B83
:10030000A3FB02135B091B017B627B6A1B0964224E
:1003100002FB03F3FA69D31ABB617B689B899BB22A
:100320009BB21BB2002B0DDABB69DB0003F132027A
:10033000104BA3FB02135B0903F007037A6A134314
:100340007B620CE0BB691B0103F13202094BA3FB8A
:1003500002135B0903F00F037A6A13437B627B6A23
:100360009AB27B681A812837BD4680BD00100140D3
:10037000001401401F85EB5180B483B000AF78605A
:100380000B46FB70FB78002B08D07B689B899BB2E7
:1003900043F400539AB27B689A8107E07B689B899B
:1003A0009BB223F400539AB27B689A810C37BD4606
:1003B0005DF8047B704700BF80B483B000AF786005
:1003C0007B689B889BB2C3F308039BB218460C372B
:1003D000BD465DF8047B704780B487B000AF78609D
:1003E00013460A467A807B7000233B610023FB6042
:1003F0000023BB6000237B617B687B617B88DBB271
:100400005B09DBB23B617B8803F01F03FB60FB6889
:10041000012202FA03F3BB603B69012B03D17B6924
:100420000C337B6109E03B69022B03D17B691033FC
:100430007B6102E07B6914337B617B78002B06D003
:100440007B697A691168BA680A431A6006E07B69B9
:100450007A691168BA68D2430A401A601C37BD46EF
:100460005DF8047B704700BF80B485B000AF786052
:100470000B467B800023FB737B681B889AB27B88CA
:1004800013409BB2002B02D00123FB7301E0002339
:10049000FB73FB7B18461437BD465DF8047B704741
:1004A00080B485B000AF78600B467B800023FB8171
:1004B0000023BB817B881B0AFB81FB89012202FA96
:1004C00003F3BB81BB89DB439AB27B681A80143784
:1004D000BD465DF8047B704780B582B000AF104B1D
:1004E0007B60104B3B6007E03B681A1D3A607A68FE
:1004F000111D796012681A603A680B4B9A42F3D367
:100500000A480B494FF000028842B8BF40F8042B5C
:10051000FFF6FAAF00F012F80837BD4680BD00BF05
:10052000E8210008000000203000002030000020FA
:100530004400002080B400AFFEE700BF80B58AB061
:1005400000AF19237B7610233B765023FB753C23A9
:10055000BB754FF000033B614FF00003FB600023CD
:10056000FB84002387F825304AF6C003BB604AF6B7
:10057000C0037B6000233B620023FB610023FB760A
:100580000123BB7600F02EFE97F82530002B07D113
:10059000684B1B68FB8400F035FD012387F825308C
:1005A000FB8C02331A46634B1B689A4202D8002325
:1005B00087F8253000F0B8FD03467B8000F07CFD15
:1005C000386100F025FDF8603B7E184601F0EAFB3B
:1005D00003461846396901F0E1FD0346002B2CD093
:1005E0007B7E184601F0DEFB03461846396901F0B0
:1005F000DFFD0346002B20D0BB7D184601F0D2FB67
:1006000003461846F96801F0C9FD0346002B14D0D3
:10061000FB7D184601F0C6FB03461846F96801F059
:10062000C7FD0346002B08D0012000F015FD022075
:1006300000F012FD032000F00FFD7B7E184601F054
:10064000B1FB03461846396901F09EFD0346002BB5
:1006500005D0012000F0E8FC022000F0E5FC3B7E24
:10066000184601F09FFB03461846396901F0AAFDC0
:100670000346002B02D0012000F094FCFB7D1846BD
:1006800001F090FB03461846F96801F07DFD034632
:10069000002B05D0012000F0C7FC022000F0C4FCB4
:1006A000BB7D184601F07EFB03461846F96801F051
:1006B00089FD0346002B02D0032000F0B5FCBB7E71
:1006C000012B07D1012000F0DFFC1A4B1B68FB61F6
:1006D0000023BB76FB7E012B07D1002000F0D4FC69
:1006E000144B1B683B620023FB76BB7E002B08D1BA
:1006F000FA69BB681A440F4B1B689A4201D8012360
:10070000FB76FB7E002B08D13A6A7B681A44094BC2
:100710001B689A4201D80123BB767B88B3F5FA6F38
:1007200006D2BB7E002B03D1022000F03BFC2BE75E
:100730002AE700BF3000002080B483B000AF03463A
:10074000FB80054BFA881A80044B01221A700C3783
:10075000BD465DF8047B704738000020340000205F
:1007600080B400AF094B1B785A1CD1B2074A1170F4
:10077000642B07D9064B1B685A1C054B1A60034BA8
:1007800000221A70BD465DF8047B704735000020DA
:100790003000002080B500AF002000F01BFC80BDC1
:1007A00080B489B000AF78600023BB6100237B6117
:1007B0000023FB6102233B610023FB600223BB603B
:1007C000484B9B6803F00C03BB61BB69042B07D04B
:1007D000082B09D0002B3FD17B68434A1A603FE0C9
:1007E0007B68424A1A603BE03E4B5B6803F480033F
:1007F0009B0DFB603B4B5B6803F03F03BB60FB68FA
:10080000002B0DD0394ABB68B2FBF3F2354B596867
:1008100047F6C0730B409B0903FB02F3FB610CE03E
:10082000314ABB68B2FBF3F22E4B596847F6C073EE
:100830000B409B0903FB02F3FB612A4B5B6803F44B
:1008400040331B0C01335B003B61FA693B69B2FB2F
:10085000F3F27B681A6003E07B68234A1A6000BFEA
:10086000204B9B6803F0F003BB61BB691B09BB61B4
:100870001F4ABB6913441B78DBB27B617B681A6833
:100880007B69DA407B685A60164B9B6803F4E0533F
:10089000BB61BB699B0ABB61154ABB6913441B78EA
:1008A000DBB27B617B685A687B69DA407B689A605F
:1008B0000C4B9B6803F46043BB61BB695B0BBB6182
:1008C0000B4ABB6913441B78DBB27B617B685A68B7
:1008D0007B69DA407B68DA602437BD465DF8047BCB
:1008E000704700BF003802400024F40040787D01CA
:1008F0000000002080B483B000AF78600B46FB702E
:10090000FB78002B06D0094B084A116B7A680A4322
:100910001A6306E0054B054A116B7A68D2430A4018
:100920001A630C37BD465DF8047B704700380240FF
:1009300080B483B000AF78600B46FB70FB78002B6F
:1009400006D0094B084A116C7A680A431A6406E01B
:10095000054B054A116C7A68D2430A401A640C3779
:10096000BD465DF8047B70470038024080B483B018
:1009700000AF78600B46FB70FB78002B06D0094B6C
:10098000084A516C7A680A435A6406E0054B054AE6
:10099000516C7A68D2430A405A640C37BD465DF800
:1009A000047B70470038024080B485B000AF7860A7
:1009B00039600023FB600023FB727B685B68FB608F
:1009C000FB6823F0407323F48073FB603B681B7962
:1009D0001A023B681B681343FA681343FB607B6889
:1009E000FA685A607B689B68FB60FA68174B134093
:1009F000FB603B681A693B68DB681A433B689B688D
:100A00001A433B685B795B001343FA681343FB604E
:100A10007B68FA689A607B68DB6AFB60FB6823F49A
:100A20007003FB603B681B7D013BDAB2FB7A13432A
:100A3000FB72FB7A1B05FA681343FB607B68FA685C
:100A4000DA621437BD465DF8047B7047FDF7FFC0DE
:100A500080B483B000AF78607B6800221A607B6846
:100A600000221A717B6800225A717B6800229A600A
:100A70007B680022DA607B6800221A617B680122B1
:100A80001A750C37BD465DF8047B704780B485B09D
:100A900000AF78600023FB600E4B5B68FB60FA6878
:100AA0000D4B1340FB607B681A687B685B681A43D8
:100AB0007B689B681A437B68DB681343FA681343BF
:100AC000FB60044BFA685A601437BD465DF8047B3E
:100AD000704700BF00230140E030FCFF80B483B0CA
:100AE00000AF78607B6800221A607B6800225A6041
:100AF0007B6800229A607B680022DA600C37BD4672
:100B00005DF8047B704700BF80B483B000AF7860AD
:100B10000B46FB70FB78002B06D07B689B6843F08C
:100B200001027B689A6005E07B689B6823F0010204
:100B30007B689A600C37BD465DF8047B704700BF48
:100B400080B485B000AF7860F970BA707B70002314
:100B5000FB600023BB60FB78092B23D97B68DB6833
:100B6000FB60FB78A3F10A0213465B0013440722E3
:100B700002FA03F3BB60BB68DB43FA681340FB6017
:100B80007978FB78A3F10A0213465B00134401FA5B
:100B900003F3BB60FA68BB681343FB607B68FA68C9
:100BA000DA601EE07B681B69FB60FA7813465B0025
:100BB0001344072202FA03F3BB60BB68DB43FA6805
:100BC0001340FB607978FA7813465B00134401FA0E
:100BD00003F3BB60FA68BB681343FB607B68FA6889
:100BE0001A61BB78062B21D87B685B6BFB60BB78F6
:100BF0005A1E13469B0013441F2202FA03F3BB60E4
:100C0000BB68DB43FA681340FB60F978BB785A1E77
:100C100013469B00134401FA03F3BB60FA68BB68F8
:100C20001343FB607B68FA685A6347E0BB780C2B80
:100C300021D87B681B6BFB60BB78DA1F13469B00D7
:100C400013441F2202FA03F3BB60BB68DB43FA685C
:100C50001340FB60F978BB78DA1F13469B001344FE
:100C600001FA03F3BB60FA68BB681343FB607B685F
:100C7000FA681A6322E07B68DB6AFB60BB78A3F149
:100C80000D0213469B0013441F2202FA03F3BB60BC
:100C9000BB68DB43FA681340FB60F978BB78A3F1CB
:100CA0000D0213469B00134401FA03F3BB60FA687C
:100CB000BB681343FB607B68FA68DA621437BD4691
:100CC0005DF8047B704700BF80B483B000AF7860EC
:100CD0007B689B6843F080427B689A600C37BD4616
:100CE0005DF8047B704700BF80B483B000AF7860CC
:100CF0007B68DB6C9BB218460C37BD465DF8047B05
:100D0000704700BF80B485B000AF78600B46FB70C1
:100D10000023FB737B681A68FB781340002B02D01A
:100D20000123FB7301E00023FB73FB7B18461437A0
:100D3000BD465DF8047B704780B487B000AF786033
:100D4000396000237B6100233B610023FB600023AB
:100D50007B6176E07B69012202FA03F33B613B6829
:100D60001A683B691340FB60FA683B699A4265D197
:100D70007B681A687B695B00032101FA03F3DB439C
:100D80001A407B681A607B681A683B681B791946B1
:100D90007B695B0001FA03F31A437B681A603B68C6
:100DA0001B79012B03D03B681B79022B2ED17B686A
:100DB0009A687B695B00032101FA03F3DB431A4065
:100DC0007B689A607B689A683B685B7919467B69A7
:100DD0005B0001FA03F31A437B689A607B685A68E8
:100DE0007B699BB2012101FA03F3DB431A407B6864
:100DF0005A607B685A683B689B7919467B699BB24D
:100E000001FA03F39BB21A437B685A607B68DA6885
:100E10007B699BB25B00032101FA03F3DB431A40B9
:100E20007B68DA607B68DA683B68DB7919467B6946
:100E30005B0001FA03F31A437B68DA607B690133D4
:100E40007B617B690F2B85D91C37BD465DF8047B20
:100E5000704700BF80B483B000AF78607B684FF606
:100E6000FF721A607B6800221A717B6800225A7137
:100E70007B6800229A717B680022DA710C37BD46CC
:100E80005DF8047B704700BF80B485B000AF786028
:100E90000B467B800023FB737B681A697B881340B9
:100EA000002B02D00123FB7301E00023FB73FB7BCB
:100EB00018461437BD465DF8047B704780B483B094
:100EC00000AF78600B467B807B687A881A830C378A
:100ED000BD465DF8047B704780B483B000AF786096
:100EE0000B467B807B687A885A830C37BD465DF859
:100EF000047B704780B483B000AF78600B467B8082
:100F00007B685A697B885A407B685A610C37BD46BA
:100F10005DF8047B704700BF80B485B000AF786097
:100F200013460A467A807B700023FB600023BB6077
:100F30007A787B8803F007039B0002FA03F3FB60D7
:100F40007B88DB089BB21A467B88DB089BB219467C
:100F50007B68083153F821107B8803F007039B005E
:100F60000F2000FA03F3DB4319407B68083243F893
:100F700022107B88DB089BB21A467B68083253F844
:100F80002220FB681343BB607B88DB089BB21A46B8
:100F90007B680832B96843F822101437BD465DF803
:100FA000047B704780B582B000AF0346FB71FA79CD
:100FB000064B53F82220F979054B33F811301046CF
:100FC0001946FFF77BFF0837BD4680BD10000020A3
:100FD000D821000880B582B000AF0346FB71FA79D2
:100FE000064B53F82220F979054B33F8113010469F
:100FF0001946FFF77FFF0837BD4680BD100000206F
:10100000D821000880B500AF00F0ACFB80BD00BF68
:1010100080B582B000AF00F043FC78607B68184672
:101020000837BD4680BD00BF80B582B000AF034623
:10103000FB71FA79064B53F82220F979054B33F806
:10104000113010461946FFF739FF0837BD4680BDFD
:1010500020000020E021000880B582B000AF0346E8
:10106000FB71FA79064B53F82220F979054B33F8D6
:10107000113010461946FFF72FFF0837BD4680BDD7
:1010800020000020E021000880B582B000AF0346B8
:10109000FB71FB79012B05D106484FF40061FFF786
:1010A0000DFF04E003484FF40061FFF715FF083718
:1010B000BD4680BD000C024090B585B000AF174B17
:1010C000FB6017480C2101220123FFF739FD14486A
:1010D000FFF7FAFD00BF12480221FFF713FE034697
:1010E000012BF8D10E48FFF7FFFD03467B817B897A
:1010F000184600F057FE0446F8680A4900F05AFF07
:1011000003462046194600F0A1FE03467B607B683B
:101110003B603B6818461437BD4690BD333353409F
:101120000020014000F07F4580B582B000AF0D483F
:101130000C2101220123FFF703FD0A48FFF7C4FD3C
:1011400000BF08480221FFF7DDFD0346012BF8D15F
:101150000448FFF7C9FD0346FB80FB8818460837A3
:10116000BD4680BD0021014080B500AF012000F0E8
:1011700095FA0346002B04D0012000F081FAFFF716
:1011800009FB80BD80B500AF4FF08040012100F029
:1011900015FD0346002B06D04FF08040012100F0E2
:1011A00037FDFFF7DDFA80BD80B582B000AF0C4897
:1011B0002021FFF759F90346002B0ED0084840F2D2
:1011C0002551FFF76DF90648FFF7F6F80346FB8057
:1011D000FB88DBB21846FFF7AFFA0837BD4680BD83
:1011E0000048004080B500AF00F014F800F02EF881
:1011F00000F048F800F09CF800F060F800F0FAF811
:1012000000F038F900F076F900F0A4F900F09AFA4D
:1012100080BD00BF80B582B000AF08200121FFF77C
:1012200069FB0F233B6001233B7102237B71002389
:10123000BB710023FB713B4603481946FFF77CFD59
:101240000837BD4680BD00BF000C024080B582B0AB
:1012500000AF08200121FFF74DFB4FF470433B60C6
:1012600001233B7102237B710023BB710023FB71BF
:101270003B4603481946FFF75FFD0837BD4680BD72
:10128000000C024080B582B000AF08200121FFF7BA
:1012900031FB4FF400633B6001233B7102237B7100
:1012A0000023BB710023FB713B4603481946FFF73F
:1012B00043FD0837BD4680BD000C024080B586B0B6
:1012C00000AF01200121FFF715FB01233B61002343
:1012D0003B7502237B750023BB750223FB7507F169
:1012E000100312481946FFF727FD00200021FEF7E2
:1012F0004BFF01237B6000233B7208237B72012399
:10130000BB723B1D184600F04DF906233B730123C9
:101310007B730123BB730123FB7307F10C03184696
:1013200000F0EAFA1837BD4680BD00BF0000024059
:1013300080B588B000AF08200121FFF7DBFA4FF439
:1013400080200121FFF7F4FA0023BB730123FB7314
:1013500002233B734FF48073BB6002237B7307F15E
:10136000080322481946FFF7E7FC20480821072216
:10137000FFF7D2FD02233B734FF40073BB6007F10C
:1013800008031A481946FFF7D7FC18480921072215
:10139000FFF7C2FD4FF4E1333B610023BB82002322
:1013A000FB8200233B830023BB830C237B8307F159
:1013B00010030F481946FEF725FF0D480121FEF7DF
:1013C000DBFF0B4840F225510122FFF705F82723E8
:1013D0003B7100237B710023BB710123FB713B1D1B
:1013E000184600F089FA2037BD4680BD000C024047
:1013F0000048004080B58CB000AF4FF480700121F0
:10140000FFF7B4FA01200121FFF774FA07F128036E
:101410001846FFF71FFD0823BB62032387F82C3013
:1014200007F1280311481946FFF786FC07F1180356
:101430001846FFF753FB4FF48033FB6107F11803A5
:101440001846FFF723FB3B461846FFF701FB002336
:101450003B603B4606481946FFF7A6FA04480121BF
:10146000FFF752FB3037BD4680BD00BF0000024091
:101470000020014080B58CB000AF4FF40070012116
:10148000FFF774FA01200121FFF734FA07F128036E
:101490001846FFF7DFFC0423BB62032387F82C30D8
:1014A00007F1280311481946FFF746FC07F1180316
:1014B0001846FFF713FB4FF48033FB6107F1180365
:1014C0001846FFF7E3FA3B461846FFF7C1FA002338
:1014D0003B603B4606481946FFF766FA044801217F
:1014E000FFF712FB3037BD4680BD00BF0000024051
:1014F0000021014080B584B000AF1D233B70002364
:101500007B700123BB700123FB703B46184600F043
:10151000F3F902200121FFF70BFA42F21073BB60CE
:101520000F23BB800023BB810023FB803B1D0848A9
:10153000194600F03FFA06480121012200F01AFB8B
:101540000348012100F0D4FA1037BD4680BD00BF2A
:101550000004004080B588B000AF01200121FFF7F2
:10156000E7F907F11403184600F08EFA3B461846D7
:1015700000F0DEFA4FF6FE73BB610F23BB8200233F
:10158000BB830023FB8207F114034FF08040194610
:1015900000F010FA4FF08040012100F0A9FA203746
:1015A000BD4680BD80B485B000AF78600023FB608D
:1015B000324BFB607B689B79002B4DD02F4B2F4A21
:1015C00011687A681268D2430A401A602B4B2B4A82
:1015D00051687A681268D2430A405A607B681B7966
:1015E000FA681344FB60FB68FA6811687A6812684D
:1015F0000A431A60214B214A91687A681268D243E3
:101600000A409A601D4B1D4AD1687A681268D2431D
:101610000A40DA607B685B79102B0ED1174B174AB2
:1016200091687A6812680A439A60144B134AD16829
:101630007A6812680A43DA601BE0104BFB607B6833
:101640005B79FA681344FB60FB68FA6811687A6892
:1016500012680A431A600CE07B681B79FA6813442D
:10166000FB60FB68FA6811687A681268D2430A4026
:101670001A601437BD465DF8047B7047003C01409A
:1016800080B483B000AF7860034B7A685A610C373E
:10169000BD465DF8047B7047003C014080B485B0D6
:1016A00000AF78600023FB730023BB600C4B1A680B
:1016B0007B681340BB600A4B5A697B681340002B60
:1016C00005D0BB68002B02D00123FB7301E000238F
:1016D000FB73FB7B18461437BD465DF8047B7047EF
:1016E000003C014080B582B000AF4FF480633B60A6
:1016F00002237B7100233B710023BB710123FB712B
:101700003B4603481946FFF717FB0837BD4680BD27
:101710000008024080B582B000AF4FF480633B60A8
:1017200002237B7101233B710023BB710123FB71F9
:101730003B4603481946FFF7FFFA0837BD4680BD10
:101740000008024080B500AF04200121FFF7D2F865
:10175000FFF7E0FF02484FF48061FFF7AFFB80BD69
:101760000008024080B582B000AF0023FB71072360
:10177000BB7100237B7100233B7100233B6000237E
:101780003B7106E03B79444A0021D1543B79013357
:101790003B713B79052BF5D9FFF7BCFF3F484FF470
:1017A0008061FFF799FB4FF08040002100F086F93F
:1017B00000BF4FF0804000F08FF9024644F61F63EF
:1017C0009A42F6D9FFF78EFF00BF34484FF480618C
:1017D000FFF75AFB0346002BF7D100BF2F484FF409
:1017E0008061FFF751FB0346002BF7D000BF2B4869
:1017F0004FF48061FFF748FB0346002BF7D100232D
:10180000FB7142E04FF08040002100F057F900BF2B
:1018100022484FF48061FFF737FB0346002BF7D0D7
:101820004FF0804000F058F9386000BF1B484FF47B
:101830008061FFF729FB0346002BF7D14FF0804072
:1018400000F04AF902463B68D31A282B0ED97B795F
:101850007A7911498A5CD1B2BA79012000FA02F290
:10186000D2B20A43D2B2D1B20B4AD154BB79002BC7
:1018700005D10723BB717B7901337B7102E0BB7912
:10188000013BBB71FB790133FB71FB79272BB9D984
:101890000837BD4680BD00BF3C0000200008024064
:1018A00080B582B000AF124B1B78184600F076FA74
:1018B00003467B6078684FF0874100F0C7FA034623
:1018C0007B600B4B5B78184600F06CFA0346786837
:1018D000194600F0B3F903467B607868054900F0CB
:1018E00069FB03467B607B6818460837BD4680BDB0
:1018F0003C0000200000204180B485B000AF78603B
:101900000023FB730023BB730F237B737B68DB789F
:10191000002B37D0254BDB68DB4303F4E0631B0A65
:10192000FB73FB7BC3F10403BB737A7BFB7B42FA43
:1019300003F37B737B685B781A46BB7B02FA03F385
:10194000FB737B689A787B7B1340DAB2FB7B134393
:10195000FB73FB7B1B01FB73154A7B681B781344ED
:10196000FA7B83F80023124B7A6812785209D2B2BC
:101970007968097801F01F01012000FA01F143F8AC
:1019800022100EE00A4B7A6812785209D2B27968B6
:10199000097801F01F01012000FA01F1203243F81B
:1019A00022101437BD465DF8047B704700ED00E05F
:1019B00000E100E080B485B000AF786039600023BA
:1019C000FB817B681B88FB817A68284B9A4213D085
:1019D0007A68274B9A420FD07B68B3F1804F0BD0C7
:1019E0007A68244B9A4207D07A68234B9A4203D0F4
:1019F0007A68224B9A4208D1FB8923F07003FB815D
:101A00003B685A88FB891343FB817A681C4B9A42D6
:101A10000CD07A681B4B9A4208D0FB8923F44073A0
:101A2000FB813B681A89FB891343FB817B68FA8938
:101A30001A803B685A687B68DA623B681A887B6860
:101A40001A857A68094B9A4203D07A68084B9A4201
:101A500004D13B689B7A1A467B681A867B68012210
:101A60009A821437BD465DF8047B70470000014040
:101A7000000401400004004000080040000C004049
:101A8000001000400014004080B483B000AF7860C4
:101A90007B684FF0FF325A607B6800221A807B68B7
:101AA00000221A817B6800225A807B6800229A7289
:101AB0000C37BD465DF8047B704700BF80B483B02F
:101AC00000AF786039607B683A685A620C37BD466F
:101AD0005DF8047B704700BF80B483B000AF7860CE
:101AE0007B685B6A18460C37BD465DF8047B70471F
:101AF00080B483B000AF78600B46FB70FB78002B9E
:101B000008D07B681B889BB243F001039AB27B68C4
:101B10001A8007E07B681B889BB223F001039AB20E
:101B20007B681A800C37BD465DF8047B704700BFA8
:101B300080B483B000AF78607B6800221A807B6835
:101B400000225A807B6800229A807B6800229A607B
:101B50007B6800229A817B680022DA817B68002200
:101B60001A827B6800225A820C37BD465DF8047BDE
:101B7000704700BF80B483B000AF786013460A4658
:101B80007A807B707B78002B08D07B689B899AB227
:101B90007B8813439AB27B689A8109E07B689B89B2
:101BA0009AB27B88DB439BB213409AB27B689A81DE
:101BB0000C37BD465DF8047B704700BF80B485B02C
:101BC00000AF78600B467B800023FB730023BB8152
:101BD00000237B817B681B8A9AB27B881340BB8180
:101BE0007B689B899AB27B8813407B81BB89002BE1
:101BF00005D07B89002B02D00123FB7301E0002379
:101C0000FB73FB7B18461437BD465DF8047B7047B9
:101C100080B483B000AF78600B467B807B88DB4369
:101C20009AB27B681A820C37BD465DF8047B704718
:101C300080F0004002E000BF81F0004142001FBF81
:101C40005FEA410392EA030F7FEA226C7FEA236C8A
:101C50006AD04FEA1262D2EB1363C1BFD21841407F
:101C600048404140B8BF5B42192B88BF704710F015
:101C7000004F40F4000020F07F4018BF404211F0B8
:101C8000004F41F4000121F07F4118BF494292EA20
:101C9000030F3FD0A2F1010241FA03FC10EB0C004C
:101CA000C3F1200301FA03F100F0004302D54942D9
:101CB00060EB4000B0F5000F13D3B0F1807F06D386
:101CC00040084FEA310102F10102FE2A51D2B1F17E
:101CD000004F40EBC25008BF20F0010040EA030073
:101CE0007047490040EB000010F4000FA2F1010220
:101CF000EDD1B0FA80FCACF1080CB2EB0C0200FAAA
:101D00000CF0AABF00EBC25052421843BCBFD040F7
:101D10001843704792F0000F81F4000106BF80F471
:101D200000000132013BB5E74FEA41037FEA226C34
:101D300018BF7FEA236C21D092EA030F04D092F0FF
:101D4000000F08BF0846704790EA010F1CBF002033
:101D5000704712F07F4F04D1400028BF40F0004090
:101D6000704712F100723CBF00F50000704700F0B0
:101D7000004343F0FE4040F4000070477FEA2262D7
:101D800016BF08467FEA23630146420206BF5FEAA8
:101D9000412390EA010F40F4800070474FF00003A8
:101DA00004E000BF10F0004348BF40425FEA000C6F
:101DB00008BF704743F0964301464FF000001CE017
:101DC00050EA010208BF70474FF000030AE000BF6D
:101DD00050EA010208BF704711F0004302D54042AB
:101DE00061EB41015FEA010C02BF8446014600201D
:101DF00043F0B64308BFA3F18053A3F50003BCFA38
:101E00008CF2083AA3EBC25310DB01FA02FC6344E4
:101E100000FA02FCC2F12002BCF1004F20FA02F2EB
:101E200043EB020008BF20F00100704702F12002DE
:101E300001FA02FCC2F1200250EA4C0021FA02F23F
:101E400043EB020008BF20EADC7070474FF0FF0C44
:101E50001CEAD0521EBF1CEAD15392EA0C0F93EA3F
:101E60000C0F6FD01A4480EA010C400218BF5FEAE1
:101E700041211ED04FF0006343EA501043EA511154
:101E8000A0FB01310CF00040B1F5000F3EBF49004E
:101E900041EAD3715B0040EA010062F17F02FD2A52
:101EA0001DD8B3F1004F40EBC25008BF20F0010035
:101EB000704790F0000F0CF0004C08BF49024CEA4C
:101EC000502040EA51207F3AC2BFD2F1FF0340EADE
:101ED000C250704740F400004FF00003013A5DDC4F
:101EE00012F1190FDCBF00F000407047C2F1000290
:101EF000410021FA02F1C2F1200200FA02FC5FEA7D
:101F0000310040F1000053EA4C0308BF20EADC70C6
:101F1000704792F0000F00F0004C02BF400010F438
:101F2000000F013AF9D040EA0C0093F0000F01F0E5
:101F3000004C02BF490011F4000F013BF9D041EA07
:101F40000C018FE70CEAD15392EA0C0F18BF93EA09
:101F50000C0F0AD030F0004C18BF31F0004CD8D133
:101F600080EA010000F00040704790F0000F17BFBA
:101F700090F0004F084691F0000F91F0004F14D000
:101F800092EA0C0F01D142020FD193EA0C0F03D158
:101F90004B0218BF084608D180EA010000F000405B
:101FA00040F0FE4040F40000704740F0FE4040F436
:101FB000400070474FF0FF0C1CEAD0521EBF1CEAD5
:101FC000D15392EA0C0F93EA0C0F69D0A2EB0302F3
:101FD00080EA010C49024FEA402037D04FF080538D
:101FE00043EA111143EA10130CF000408B4238BF52
:101FF0005B0042F17D024FF4000C8B4224BF5B1A60
:1020000040EA0C00B3EB510F24BFA3EB510340EAAD
:102010005C00B3EB910F24BFA3EB910340EA9C005B
:10202000B3EBD10F24BFA3EBD10340EADC001B01CB
:1020300018BF5FEA1C1CE0D1FD2A3FF650AF8B426F
:1020400040EBC25008BF20F0010070470CF0004C7C
:102050004CEA50207F32C2BFD2F1FF0340EAC250A7
:10206000704740F400004FF00003013A37E792F068
:10207000000F00F0004C02BF400010F4000F013AC6
:10208000F9D040EA0C0093F0000F01F0004C02BFC1
:10209000490011F4000F013BF9D041EA0C0195E72A
:1020A0000CEAD15392EA0C0F08D142027FF47DAFC3
:1020B00093EA0C0F7FF470AF084676E793EA0C0FB3
:1020C00004D14B023FF44CAF08466EE730F0004CB1
:1020D00018BF31F0004CCAD130F000427FF45CAF41
:1020E00031F000437FF43CAF5FE700BF4FF0FF3CAF
:1020F00006E000BF4FF0010C02E000BF4FF0010C02
:102100004DF804CD4FEA40024FEA41037FEA226CCA
:1021100018BF7FEA236C11D001B052EA530C18BFEC
:1021200090EA010F58BFB2EB030088BFC81738BF51
:102130006FEAE17018BF40F0010070477FEA226C3F
:1021400002D15FEA402C05D17FEA236CE4D15FEA3B
:10215000412CE1D05DF8040B704700BF844608466F
:102160006146FFE70FB5FFF7C9FF002848BF10F130
:10217000000F0FBD4DF808EDFFF7F4FF0CBF012075
:1021800000205DF808FB00BF4DF808EDFFF7EAFFFF
:1021900034BF012000205DF808FB00BF4DF808EDBA
:1021A000FFF7E0FF94BF012000205DF808FB00BFAF
:1021B0004DF808EDFFF7D2FF94BF012000205DF835
:1021C00008FB00BF4DF808EDFFF7C8FF34BF012042
:1021D00000205DF808FB00BF0100020004000800B9
:0821E000001000200040008007
:1021E80000000000010203040102030406070809B5
:1021F800000C0240000C0240000C0240000C02409F
:10220800000C0240000C0240000C0240000C02408E
:0400000508000000EF
:00000001FF
